:020000040800F2
:1000000000800120650C0108979500089D95000867
:10001000A3950008A9950008AF950008000000000E
:10002000000000000000000000000000357400081F
:10003000B595000800000000F17300082173000866
:10004000B50C0108B50C0108B50C0108B50C010888
:10005000B50C0108B50C0108B50C0108B50C010878
:10006000B50C0108B50C0108B50C0108C3950008D2
:1000700079140008B50C0108B50C0108B50C01088D
:10008000B50C0108B50C0108B50C0108B50C010848
:10009000B50C0108B50C0108B50C0108B50C010838
:1000A000B50C0108D1950008B50C0108B50C010884
:1000B000B50C0108B50C0108B50C0108B50C010818
:1000C000B50C0108B50C0108B50C0108B50C010808
:1000D000B50C0108B50C0108B50C0108B50C0108F8
:1000E000B50C0108B50C0108B50C0108B50C0108E8
:1000F000B50C0108B50C0108B50C0108B50C0108D8
:10010000B50C0108B50C0108B50C0108B50C0108C7
:10011000B50C0108B50C0108B50C0108B50C0108B7
:10012000B50C0108B50C0108B50C0108B50C0108A7
:10013000B50C0108B50C0108B50C0108B50C010897
:10014000B50C0108B50C0108B50C0108E5950008CF
:10015000B50C0108B50C0108B50C0108B50C010877
:10016000B50C0108B50C0108B50C0108B50C010867
:10017000B50C0108B50C0108B50C01080000000021
:08018000B50C0108B50C0108E3
:1001880010B5054C237833B9044B13B10448AFF3C9
:1001980000800123237010BDF00200200000000041
:1001A8004811010808B5034B1BB103490348AFF3D5
:1001B800008008BD00000000F4020020481101087A
:1001C80081F0004102E000BF83F0004330B54FEA00
:1001D80041044FEA430594EA050F08BF90EA020F6D
:1001E8001FBF54EA000C55EA020C7FEA645C7FEA00
:1001F800655C00F0E2804FEA5454D4EB5555B8BF23
:100208006D420CDD2C4480EA020281EA030382EA93
:10021800000083EA010180EA020281EA0303362D25
:1002280088BF30BD11F0004F4FEA01314FF4801CF8
:100238004CEA113102D0404261EB410113F0004F0A
:100248004FEA03334CEA133302D0524263EB4303C1
:1002580094EA050F00F0A780A4F10104D5F1200E5F
:100268000DDB02FA0EFC22FA05F2801841F10001BA
:1002780003FA0EF2801843FA05F359410EE0A5F18E
:1002880020050EF1200E012A03FA0EFC28BF4CF0BF
:10029800020C43FA05F3C01851EBE37101F0004575
:1002A80007D54FF0000EDCF1000C7EEB00006EEB82
:1002B8000101B1F5801F1BD3B1F5001F0CD349080C
:1002C8005FEA30004FEA3C0C04F101044FEA445263
:1002D80012F5800F80F09A80BCF1004F08BF5FEAEA
:1002E800500C50F1000041EB045141EA050130BDCA
:1002F8005FEA4C0C404141EB0101013C28BFB1F5DC
:10030800801FE9D291F0000F04BF01460020B1FA26
:1003180081F308BF2033A3F10B03B3F120020CDAF9
:100328000C3208DD02F1140CC2F10C0201FA0CF0D7
:1003380021FA02F10CE002F11402D8BFC2F1200C3C
:1003480001FA02F120FA0CFCDCBF41EA0C019040F2
:10035800E41AA2BF01EB0451294330BD6FEA04043B
:100368001F3C1CDA0C340EDC04F11404C4F1200226
:1003780020FA04F001FA02F340EA030021FA04F338
:1003880045EA030130BDC4F10C04C4F1200220FA8F
:1003980002F001FA04F340EA0300294630BD21FACD
:1003A80004F0294630BD94F0000F83F4801306BF93
:1003B80081F480110134013D4EE77FEA645C18BF87
:1003C8007FEA655C29D094EA050F08BF90EA020F1E
:1003D80005D054EA000C04BF1946104630BD91EA16
:1003E800030F1EBF0021002030BD5FEA545C05D119
:1003F8004000494128BF41F0004130BD14F5800458
:100408003CBF01F5801130BD01F0004545F0FE41CB
:1004180041F470014FF0000030BD7FEA645C1ABF00
:10042800194610467FEA655C1CBF0B46024650EA37
:10043800013406BF52EA033591EA030F41F4002163
:1004480030BD00BF90F0000F04BF0021704730B5E9
:100458004FF4806404F132044FF000054FF00001BE
:1004680050E700BF90F0000F04BF0021704730B57F
:100478004FF4806404F1320410F0004548BF404254
:100488004FF000013EE700BF42004FEAE2014FEAA9
:1004980031014FEA02701FBF12F07F4393F07F4F84
:1004A80081F06051704732F07F4208BF704793F087
:1004B8007F4F04BF41F40021704730B54FF460749A
:1004C80001F0004521F000411CE700BF50EA01029D
:1004D80008BF704730B54FF000050AE050EA010246
:1004E80008BF704730B511F0004502D5404261EBB6
:1004F80041014FF4806404F132045FEA915C3FF4F7
:10050800D8AE4FF003025FEADC0C18BF03325FEA93
:10051800DC0C18BF033202EBDC02C2F1200300FA44
:1005280003FC20FA02F001FA03FE40EA0E0021FA69
:1005380002F11444BDE600BF70B54FF0FF0C4CF457
:10054800E06C1CEA11541DBF1CEA135594EA0C0F09
:1005580095EA0C0F00F0DEF82C4481EA030621EA44
:100568004C5123EA4C5350EA013518BF52EA03357F
:1005780041F4801143F4801338D0A0FB02CE4FF031
:100588000005E1FB02E506F00042E0FB03E54FF061
:100598000006E1FB03569CF0000F18BF4EF0010E59
:1005A800A4F1FF04B6F5007F64F5407404D25FEA55
:1005B8004E0E6D4146EB060642EAC62141EA555108
:1005C8004FEAC52040EA5E504FEACE2EB4F1FD0C4A
:1005D80088BFBCF5E06F1ED8BEF1004F08BF5FEAC8
:1005E800500E50F1000041EB045170BD06F000467A
:1005F80046EA010140EA020081EA0301B4EB5C0427
:10060800C2BFD4EB0C0541EA045170BD41F480111E
:100618004FF0000E013C00F3AB8014F1360FDEBF43
:10062800002001F0004170BDC4F10004203C35DA1F
:100638000C341BDC04F11404C4F1200500FA05F3A2
:1006480020FA04F001FA05F240EA020001F0004243
:1006580021F0004110EBD37021FA04F642EB0601B9
:100668005EEA430E08BF20EAD37070BDC4F10C04E3
:10067800C4F1200500FA04F320FA05F001FA04F2A7
:1006880040EA020001F0004110EBD37041F1000193
:100698005EEA430E08BF20EAD37070BDC4F120059E
:1006A80000FA05F24EEA020E20FA04F301FA05F206
:1006B80043EA020321FA04F001F0004121FA04F2AE
:1006C80020EA020000EBD3705EEA430E08BF20EA7E
:1006D800D37070BD94F0000F0FD101F000464000B8
:1006E80041EB010111F4801F08BF013CF7D041EA3A
:1006F800060195F0000F18BF704703F0004652003E
:1007080043EB030313F4801F08BF013DF7D043EA0E
:100718000603704794EA0C0F0CEA135518BF95EAC4
:100728000C0F0CD050EA410618BF52EA4306D1D14B
:1007380081EA030101F000414FF0000070BD50EA6A
:10074800410606BF1046194652EA430619D094EAF4
:100758000C0F02D150EA013613D195EA0C0F05D1DE
:1007680052EA03361CBF104619460AD181EA030132
:1007780001F0004141F0FE4141F470014FF00000EA
:1007880070BD41F0FE4141F4780170BD70B54FF085
:10079800FF0C4CF4E06C1CEA11541DBF1CEA135505
:1007A80094EA0C0F95EA0C0F00F0A7F8A4EB0504E7
:1007B80081EA030E52EA03354FEA013100F08880DE
:1007C8004FEA03334FF0805545EA131343EA1263A7
:1007D8004FEA022245EA111545EA10654FEA00265C
:1007E8000EF000419D4208BF964244F1FD0404F515
:1007F800407402D25B084FEA3202B61A65EB030571
:100808005B084FEA32024FF480104FF4002CB6EB2D
:10081800020E75EB030E22BFB61A754640EA0C00AD
:100828005B084FEA3202B6EB020E75EB030E22BFED
:10083800B61A754640EA5C005B084FEA3202B6EB2E
:10084800020E75EB030E22BFB61A754640EA9C00ED
:100858005B084FEA3202B6EB020E75EB030E22BFBD
:10086800B61A754640EADC0055EA060E18D04FEA7B
:10087800051545EA16754FEA06164FEAC30343EA1B
:1008880052734FEAC2025FEA1C1CC0D111F4801FE8
:100898000BD141EA00014FF000004FF0004CB6E7E1
:1008A80011F4801F04BF01430020B4F1FD0C88BF80
:1008B800BCF5E06F3FF6AFAEB5EB030C04BFB6EB8B
:1008C800020C5FEA500C50F1000041EB045170BD7E
:1008D8000EF0004E4EEA113114EB5C04C2BFD4EBAB
:1008E8000C0541EA045170BD41F480114FF0000E2F
:1008F800013C90E645EA060E8DE60CEA135594EAAB
:100908000C0F08BF95EA0C0F3FF43BAF94EA0C0FAD
:100918000AD150EA01347FF434AF95EA0C0F7FF422
:1009280025AF104619462CE795EA0C0F06D152EA76
:1009380003353FF4FDAE1046194622E750EA41065A
:1009480018BF52EA43067FF4C5AE50EA41047FF46B
:100958000DAF52EA43057FF4EBAE12E74FF0FF3CD0
:1009680006E000BF4FF0010C02E000BF4FF0010CA1
:100978004DF804CD4FEA410C7FEA6C5C4FEA430C1A
:1009880018BF7FEA6C5C1BD001B050EA410C0CBF69
:1009980052EA430C91EA030F02BF90EA020F0020CB
:1009A800704710F1000F91EA030F58BF994208BF32
:1009B80090422CBFD8176FEAE37040F001007047EF
:1009C8004FEA410C7FEA6C5C02D150EA013C07D146
:1009D8004FEA430C7FEA6C5CD6D152EA033CD3D091
:1009E8005DF8040B704700BF8446104662468C468B
:1009F8001946634600E000BF01B5FFF7B7FF0028BE
:100A080048BF10F1000F01BD4DF808EDFFF7F4FFE6
:100A18000CBF012000205DF808FB00BF4DF808ED71
:100A2800FFF7EAFF34BF012000205DF808FB00BF94
:100A38004DF808EDFFF7E0FF94BF012000205DF8B6
:100A480008FB00BF4DF808EDFFF7CEFF94BF01206B
:100A580000205DF808FB00BF4DF808EDFFF7C4FF64
:100A680034BF012000205DF808FB00BF4FEA410CAD
:100A78007FEA6C5C02D150EA013C0AD14FEA430C90
:100A88007FEA6C5C02D152EA033C02D14FF00000CD
:100A980070474FF0010070474A0011D212F500125A
:100AA80011D20DD56FF47873B3EB62520ED44FEABE
:100AB800C12343F0004343EA505323FA02F070473E
:100AC8004FF00000704750EA013002D14FF0FF307C
:100AD80070474FF0000070474FEA4102B2F1E0431F
:100AE80024BFB3F5001CDCF1FE5C0DD901F0004C0D
:100AF8004FEAC0024CEA5070B2F1004F40EB83005D
:100B080008BF20F00100704711F0804F21D113F188
:100B18003872BCBF01F00040704741F480114FEAC1
:100B28005252C2F11802C2F1200C10FA0CF320FA4A
:100B380002F018BF40F001004FEAC1234FEAD32367
:100B480003FA0CFC40EA0C0023FA02F34FEA4303D1
:100B5800CCE77FEA625307D150EA01331EBF4FF05A
:100B6800FE4040F44000704701F0004040F0FE4075
:100B780040F40000704700BF80B485B000AF7860D3
:100B880039603B68002B03D17B684033FB6001E090
:100B9800044BFB60FB6818461437BD465DF8047BC0
:100BA800704700BF0C03045080B483B000AF786076
:100BB8007B68DB6803F44063002B01D1012300E06C
:100BC800002318460C37BD465DF8047B704780B497
:100BD80083B000AF786039607B681B6B23F00F022D
:100BE8003B681A437B681A6300BF0C37BD465DF843
:100BF800047B704780B483B000AF786039607B684D
:100C0800DB6823F003023B681A437B68DA6000BFA5
:100C18000C37BD465DF8047B704780B483B000AFE5
:100C280078607B68DB6C03F0C003002B01D10123E3
:100C380000E0002318460C37BD465DF8047B70477A
:100C480080B483B000AF78607B689B6823F0004372
:100C580023F03F0343F001027B689A6000BF0C3722
:100C6800BD465DF8047B704780B483B000AF786000
:100C78007B689B6823F0004323F03F0343F00202A4
:100C88007B689A6000BF0C37BD465DF8047B7047EF
:100C980080B483B000AF78607B689B6803F0010381
:100CA800012B01D1012300E0002318460C37BD4673
:100CB8005DF8047B704780B483B000AF786039601A
:100CC8007B689B6823F0404323F03F033A6802F0B7
:100CD8008042134343F000427B689A6000BF0C37A0
:100CE800BD465DF8047B704780B483B000AF786080
:100CF8007B689B6803F00043B3F1004F01D10123E7
:100D080000E0002318460C37BD465DF8047B7047A9
:100D180080B483B000AF78607B689B6823F00043A1
:100D280023F03F0343F004027B689A6000BF0C374E
:100D3800BD465DF8047B704780B483B000AF78602F
:100D48007B689B6823F0004323F03F0343F00802CD
:100D58007B689A6000BF0C37BD465DF8047B70471E
:100D680080B483B000AF78607B681B6803F0080329
:100D7800082B01D1012300E0002318460C37BD469B
:100D88005DF8047B704780B483B000AF78607B68FF
:100D98001B6803F01003102B01D1012300E000238E
:100DA80018460C37BD465DF8047B704780B483B0A5
:100DB80000AF78607B6810221A6000BF0C37BD4610
:100DC8005DF8047B704780B483B000AF78607B68BF
:100DD8005B6843F008027B685A6000BF0C37BD4669
:100DE8005DF8047B704780B483B000AF78607B689F
:100DF8005B6843F040027B685A6000BF0C37BD4611
:100E08005DF8047B704780B483B000AF78607B687E
:100E18005B6823F008027B685A6000BF0C37BD4648
:100E28005DF8047B704780B483B000AF78607B685E
:100E38005B6823F010027B685A6000BF0C37BD4620
:100E48005DF8047B704780B483B000AF78607B683E
:100E58005B6823F040027B685A6000BF0C37BD46D0
:100E68005DF8047B704780B483B000AF78607B681E
:100E78005B6823F080027B685A6000BF0C37BD4670
:100E88005DF8047B704780B483B000AF78607B68FE
:100E98005B6803F01003102B01D1012300E000234D
:100EA80018460C37BD465DF8047B704780B483B0A4
:100EB80000AF78607B685B6803F08003802B01D10A
:100EC800012300E0002318460C37BD465DF8047B7B
:100ED8007047000080B485B000AF786039607B68E7
:100EE800FB600C4A3B6813441B781A46FB681344A2
:100EF8001B6808493A680A4412781146FA680A4495
:100F080043F00103136000BF1437BD465DF8047B4E
:100F1800704700BFA811010880B485B000AF7860A1
:100F280039607B68FB600C4A3B6813441B781A469F
:100F3800FB6813441B6808493A680A44127811464A
:100F4800FA680A4423F00103136000BF1437BD4652
:100F58005DF8047B704700BFA811010880B485B014
:100F680000AF786039607B68FB60084A3B681344CF
:100F78001B781A46FB6813441B6803F020031846C5
:100F88001437BD465DF8047B704700BFA8110108FF
:100F980080B487B000AFF860B9607A60FB687B61A5
:100FA8000D4ABB6813441B781A467B6913445B6877
:100FB8001B0C1B040849BA680A44127811467A695E
:100FC8000A4411467A6813434B6000BF1C37BD467C
:100FD8005DF8047B704700BFA811010880B487B092
:100FE80000AFF860B9607A603B60FB687B613B6A80
:100FF800102B14D1174ABB6813441B781A467B6917
:1010080013441A467B68D360124ABB6813441B78A2
:101018001A467B6913441A463B68936013E00D4AED
:10102800BB6813441B781A467B6913441A467B68CD
:101038009360084ABB6813441B781A467B691344BB
:101048001A463B68D36000BF1C37BD465DF8047B79
:10105800704700BFA811010880B487B000AFF860DE
:10106800B9607A60FB687B61074ABB6813441B78E8
:101078001A467B6913441A467B68936000BF1C3785
:10108800BD465DF8047B7047A811010880B483B0A1
:1010980000AF78607B681B6803F02003202B01D128
:1010A800012300E0002318460C37BD465DF8047B99
:1010B800704780B483B000AF78607B6820225A60A4
:1010C80000BF0C37BD465DF8047B704780B485B01F
:1010D80000AF786039607B68FB600C4A3B6813445A
:1010E8001B781A46FB6813441B6808493A680A4487
:1010F80012781146FA680A4443F00203136000BFED
:101108001437BD465DF8047B704700BFA81101087D
:1011180080B485B000AF786039607B68FB600C4AAA
:101128003B6813441B781A46FB6813441B6808493C
:101138003A680A4412781146FA680A4443F00803E8
:10114800136000BF1437BD465DF8047B704700BFCD
:10115800A811010880B485B000AF786039607B6859
:10116800FB600C4A3B6813441B781A46FB6813441F
:101178001B6808493A680A4412781146FA680A4412
:1011880023F00203136000BF1437BD465DF8047BEB
:10119800704700BFA811010880B485B000AF78601F
:1011A80039607B68FB600C4A3B6813441B781A461D
:1011B800FB6813441B6808493A680A4412781146C8
:1011C800FA680A4423F00403136000BF1437BD46CD
:1011D8005DF8047B704700BFA811010880B485B092
:1011E80000AF786039607B68FB600C4A3B68134449
:1011F8001B781A46FB6813441B6808493A680A4476
:1012080012781146FA680A4423F00803136000BFF5
:101218001437BD465DF8047B704700BFA81101086C
:1012280080B485B000AF786039607B68FB600A4A9B
:101238003B6813441B781A46FB6813441B6803F089
:101248000203022B01D1012300E0002318461437C2
:10125800BD465DF8047B7047A811010880B584B0CD
:1012680000AF78600123FB817B681B691846FFF794
:101278009BFC0346002B2FD07B685B7ADBB2022BEA
:1012880011D07B685B7ADBB2042B0CD07B685B7A6D
:10129800DBB2082B07D07B681B691846FFF760FD97
:1012A8000346012B18D1786800F0F2F80346002BAA
:1012B80012D17B685B7ADBB2082B03D17B680122F1
:1012C8005A7202E07B6820225A727B681B691846B2
:1012D800FFF71EFD0023FB81FB8918461037BD462A
:1012E80080BD80B586B002AFF860B9607A603B60B7
:1012F8000021F868FFF740FC03461A467968B86889
:10130800FFF7AAFE0021F868FFF736FC02463B68A3
:10131800002100917968B868FFF760FEBA697968BA
:10132800B868FFF735FE7968B868FFF7CFFE7968C7
:10133800B868FFF7EDFE7968B868FFF7CBFD00BF26
:101348001037BD4680BD80B584B000AFF860B96085
:101358007A607968B868FFF7DFFD7968B868FFF7E1
:101368001BFF7968B868FFF739FF7968B868FFF735
:10137800F1FE00227968B868FFF70AFE00BF10374F
:10138800BD4680BD80B582B000AF786039607B68AB
:10139800DB79012B0DD17B68DA687B681B685B0001
:1013A800D1187B681B685B001A4638680FF0B2FEDC
:1013B80008E07B68D9687B681B685B001A46386858
:1013C8000FF0A8FE00BF0837BD4680BD80B586B0C7
:1013D80000AFF860B9607A60FB685A69FB689B796E
:1013E80019461046FFF71CFF0346DBB2012B37D125
:1013F800FB685A69BB68104698470346012B2FD1F2
:10140800FB6804225A72FB685A697B681046984741
:10141800FB685A69FB689B7919461046FFF79EFDE1
:101428000346002B19D1FB685A69FB689B7919465A
:101438001046FFF771FDFB685869FB689B791946F0
:10144800FB681B681A46FFF7A3FDFB685A69FB682F
:101458009B7919461046FFF73DFD0123FB7501E016
:101468000023FB75FB7D18461837BD4680BD00007C
:1014780080B500AF034A04490448FFF7A7FF00BF3F
:1014880080BD00BFBB10000895100008680500204B
:1014980080B582B000AF78607B681B691846FFF79B
:1014A80072FC0346DBB2012B07D17B681B69184627
:1014B800FFF77CFC7B6810225A727B685B7ADBB290
:1014C800102B0CBF01230023DBB218460837BD469A
:1014D80080BD80B582B000AF78600B46FB70FB78AA
:1014E800012B0DD17B681B691846FFF75DFB03468E
:1014F800012B12D07B681B691846FFF709FC0CE02A
:101508007B681B691846FFF788FB0346012B04D04C
:101518007B681B691846FFF70FFC00BF0837BD46FC
:1015280080BD000090B589B002AFF860084611464A
:101538001A4603467B810B463B811346FB800023FA
:101548007B61FB681B693C4A934201D13B4B7B6141
:101558007B69002B6BD0FB681A697B691A617B6910
:101568000022DA71FB88012B61D03B89002B47D020
:101578007B695B7ADBB2082B42D0FB68DA687B694F
:10158800DA60FB681A687B691A60FB685A697B69CC
:101598005A61FB689A797B699A71FB681A797B6949
:1015A8001A717B691B69B96A1846FFF710FB7B89BA
:1015B800012B21D07B89042B16D17B691B69032160
:1015C8001846FFF717FB7B6918697B6959697B69BE
:1015D8009B791C467B69DA687B691B680093134614
:1015E8002246FFF77EFE07E07B89022B04D17B6948
:1015F8001B691846FFF7E7FB7B6908225A7216E059
:101608003B89002B13D17B699B7ADBB2082B0ED068
:10161800FB685A797B695A717B89022B04D17B69F3
:101628001B691846FFF7DFFB7B6908229A727B6902
:1016380018461C37BD4690BD0001045068050020BF
:1016480080B582B000AF78607B681B691846FFF7E9
:101658001FFB0346002B04D17B681B691846FFF764
:10166800EFFA00BF0837BD4680BD80B586B000AF31
:10167800F8600B467A607B810123FB82FB681B695B
:10168800002B46D07B89012B05D1F868FFF7E6FDD2
:101698000346FB823DE07B89042B1FD1FB681B6955
:1016A8001846FFF781FA0346002B32D0FB68012267
:1016B8005A72FB681B691846FFF72AFB00BFFB68D4
:1016C8005B7ADBB2042BFAD17968F868FFF75AFE27
:1016D800FB6808225A720023FB821AE07B89022BDE
:1016E80017D1FB685B7ADBB2202B09D0FB685B7AE9
:1016F800DBB2042B04D0FB685B7ADBB2102B08D179
:10170800FB6808225A727968F868FFF73BFE0023E5
:10171800FB82FB8A18461837BD4680BD80B582B06B
:1017280000AF78600B467B8013463B807B681B6963
:101738001846FFF7ADFA0346002B04D07B681B69F7
:101748001846FFF791FA7B681B691846FFF7AEFB4E
:101758000346002B04D07B681B691846FFF783FB00
:101768007B681B691846FFF78EFB0346002B04D0E5
:101778007B681B691846FFF756FB3B88002B35D062
:101788007B680022DA607B6800221A607B6800228E
:101798005A617B6800229A717B6800221A717B6803
:1017A8001A697B681B7919461046FFF710FA7B887F
:1017B800012B26D07B88022B05D17B681B69184634
:1017C800FFF721FB1DE07B88042B1AD17B68186981
:1017D8007B6859697B689B791A46FFF7B4FD7B687B
:1017E8001B6900211846FFF705FA0AE07B6800220A
:1017F8005A717B88022B04D17B681B691846FFF756
:1018080022FB00BF0837BD4680BD000080B584B00C
:1018180000AF78600B46FB707B681B691846FFF7C2
:1018280037FA0346FB7397F90F30012B04D17B6815
:101838001B691846FFF718FAFB78002B0FD17B6855
:101848001B697F211846FFF736FA00BF7B681B69C2
:101858001846FFF749FA0346012BF7D040E0FB781A
:10186800012B0FD17B681B692C491846FFF723FA17
:1018780000BF7B681B691846FFF736FA0346012B41
:10188800F7D02DE07B681B697F211846FFF713FA14
:1018980000BF7B681B691846FFF726FA0346012B31
:1018A800F7D00023BB8107E000BFBB891BB29BB206
:1018B80001339BB21BB2BB81BB891BB29BB2032B0A
:1018C800F2D97B681B6915491846FFF7F4F900BF80
:1018D8007B681B691846FFF707FA0346012BF7D008
:1018E8000023BB8107E000BFBB891BB29BB2013359
:1018F8009BB21BB2BB81BB891BB29BB2032BF2D933
:1019080097F90F30012B04D17B681B691846FFF744
:1019180097F900BF1037BD4680BD00BF00007F406B
:1019280080B483B000AF78607B681B6918460C37B9
:10193800BD465DF8047B704780B483B000AF786023
:1019480039607B683A689A6100BF0C37BD465DF81C
:10195800047B704780B483B000AF786039607B68DF
:101968003A689A6200BF0C37BD465DF8047B704741
:1019780080B400AF084B5A790132D2B25A71064B83
:101988005B79022B02D9044B00225A7100BFBD4675
:101998005DF8047B704700BF0C03002080B485B05D
:1019A80000AF78607B6800221A707B68012283F898
:1019B80040217B6801225A607B680122DA627B68D9
:1019C80000229A637B6803F138027B681A637B689C
:1019D8001B6BBB60BB6800221A71BB6801221A60CE
:1019E800BB6801221A717B6801221A727B681B6B23
:1019F800BB60BB681B68012B2ED10023FB600DE088
:101A0800BA68FB680133DB00D1184FF000024FF0D1
:101A18000003C1E90023FB680133FB60FB68132B5B
:101A2800EEDD0023FB6008E0BB68FA682A3200217B
:101A380043F82210FB680133FB60FB68132BF3DDCE
:101A4800BB680022C3F8F820BB680122C3F8FC2059
:101A5800BB680122C3F8002100BF1437BD465DF8FA
:101A6800047B704780B590B000AF87ED020B7860BB
:101A780039603B681B6B7B617B691B68012B37D026
:101A88007B6900221A717B6901221A607B69012235
:101A98001A7100233B630DE07A693B6B0133DB006D
:101AA800D1184FF000024FF00003C1E900233B6B4F
:101AB80001333B633B6B132BEEDD00233B6308E0F4
:101AC8007B693A6B2A32002143F822103B6B0133C1
:101AD8003B633B6B132BF3DD7B690022C3F8F820D3
:101AE8007B690122C3F8FC207B690122C3F800212D
:101AF80000233B630FE07A693B6B0133DB0013443F
:101B0800D3E900237868396BC9000144C1E900238F
:101B18003B6B01333B633B6B132BECDD00233B63D7
:101B28000CE07B693A6B2A3253F822107B683A6BD7
:101B3800283243F822103B6B01333B633B6B132B7A
:101B4800EFDD7B69D3F8F8303B637B69D3F8FC3071
:101B58007B637B69D3F80031FB613B6B002B3CDD79
:101B6800FB695A1E7B68283253F82230FB637B6B73
:101B7800002B0ADB7B6B03F100430133FA6B9A42BB
:101B880003DA6FF00043BB6310E07B6B002B09DACC
:101B98007B6B03F10043FA6B9A4203DD4FF000437D
:101BA800BB6303E07A6BFB6BD31ABB63BB6B142B71
:101BB80013D1FB696FF00042934203D16FF00043E9
:101BC800FB6102E0FB690133FB61FB69142B01DD5A
:101BD8000123FB613B6B013B3B633B6B002B09DA49
:101BE8003B6BC3F10043FA699A4203DA4FF00043B2
:101BF8007B6211E03B6B002B0ADD3A6B6FF0004310
:101C08009B1AFA699A4203DD6FF000437B6203E096
:101C18003A6BFB6913447B627B6AB3F1004F03D1D3
:101C28004FF00043BB6202E07B6A013BBB62BB6AC8
:101C3800132B02DDBB6A143BBB627B68F033502276
:101C4800002118460FF074FA3B6BFB633B6B002BCB
:101C580079DD3B6B013B7B62FB69B3F1004F03D13C
:101C68004FF000433B6202E0FB69013B3B627B6A49
:101C7800BB6331E03B6A002B09DA3B6AC3F10043DE
:101C8800BA6B9A4203DA4FF00043FB6211E03B6AF9
:101C9800002B0ADD3A6A6FF000439B1ABA6B9A422E
:101CA80003DD6FF00043FB6203E03A6ABB6B134449
:101CB800FB62FB6A132B02DDFB6A143BFB623A6B87
:101CC800BB6BD31A5A1EFB6A591C7B683C3243F81B
:101CD8002210BB6B013BBB63BB6B002BCADA012331
:101CE8007B620023FB7627E07B6A5A1E7B683C32C6
:101CF80053F82230013BBB637A68BB6BDB001344AB
:101D0800D3E90023D7E90201FEF788FE0346002B3A
:101D180002D00123FB760FE0BB6BBB62FB6BB3F118
:101D2800004F03D14FF00043FB6302E0FB6B013B24
:101D3800FB637B6A01337B62FB7E002B03D17A6AEB
:101D48003B6B9A42D0DD7A68BB6ADB00D118D7E9D1
:101D58000223C1E900237B68BA6A2832796B43F809
:101D680022107B6B6FF00042934203D16FF0004367
:101D78007B6302E07B6B01337B637B6B3E4A934260
:101D88002ADD7B6BA3F57423A3F510737B63002313
:101D9800BB631EE07B68BA6B283253F822303B6382
:101DA8003B6B364A934207DA7B68BA6B28324FF0AE
:101DB800004143F8221009E03B6BA3F57423A3F517
:101DC80010737A68B96B283142F82130BB6B013344
:101DD800BB63BB6B132BDDDD00233B630FE07A682D
:101DE8003B6BDB001344D3E900237869396B01317D
:101DF800C9000144C1E900233B6B01333B633B6BE2
:101E0800132BECDD00233B630CE07B683A6B283234
:101E180053F822107B693A6B2A3243F822103B6B45
:101E280001333B633B6B132BEFDDFB6B6FF0004221
:101E3800934205D17B696FF00042C3F8F82004E0B3
:101E4800FB6B5A1C7B69C3F8F8207B697A6BC3F873
:101E5800FC207B69FA69C3F80021FB69013B7A68B9
:101E6800DB001344D3E900237968C1E9502300BF9C
:101E78004037BD4680BD00BF40420F0040420F8042
:101E880080B485B000AF78607B681B78002B18D1D0
:101E98007B6801221A707B685B68012B11D17B6813
:101EA8001B7A002B0DD07B684FF0FF32DA627B681B
:101EB8001B6BFB60FB681B68012B02D1FB680222CD
:101EC8001A6000BF1437BD465DF8047B704780B4C4
:101ED80085B000AF78607B6800221A707B680122A9
:101EE80083F840217B6801225A607B680122DA620C
:101EF8007B6800229A637B6803F138027B681A6367
:101F08007B681B6BBB60BB6800221A71BB6801222F
:101F18001A60BB6801221A717B6801221A727B68F9
:101F28001B6BBB60BB681B68012B2ED10023FB60B9
:101F38000DE0BA68FB680133DB00D1184FF00002EE
:101F48004FF00003C1E90023FB680133FB60FB6825
:101F5800132BEEDD0023FB6008E0BB68FA682A3229
:101F6800002143F82210FB680133FB60FB68132B48
:101F7800F3DDBB680022C3F8F820BB680122C3F870
:101F8800FC20BB680122C3F8002100BF1437BD46FE
:101F98005DF8047B7047000080B590B000AF87ED16
:101FA800020B786039603B681B6B7B617B691B683F
:101FB800012B37D07B6900221A717B6901221A60D4
:101FC8007B6901221A7100233B630DE07A693B6B40
:101FD8000133DB00D1184FF000024FF00003C1E9D4
:101FE80000233B6B01333B633B6B132BEEDD00237C
:101FF8003B6308E07B693A6B2A32002143F82210E0
:102008003B6B01333B633B6B132BF3DD7B69002296
:10201800C3F8F8207B690122C3F8FC207B69012200
:10202800C3F8002100233B630FE07A693B6B01335F
:10203800DB001344D3E900237868396BC9000144F5
:10204800C1E900233B6B01333B633B6B132BECDD96
:1020580000233B630CE07B693A6B2A3253F8221069
:102068007B683A6B283243F822103B6B01333B63A1
:102078003B6B132BEFDD7B69D3F8F8303B637B694F
:10208800D3F8FC307B637B69D3F80031FB613B6B91
:10209800002B3CDDFB695A1E7B68283253F822303E
:1020A800FB637B6B002B0ADB7B6B03F10043013383
:1020B800FA6B9A4203DA6FF00043BB6310E07B6B64
:1020C800002B09DA7B6B03F10043FA6B9A4203DDBC
:1020D8004FF00043BB6303E07A6BFB6BD31ABB631F
:1020E800BB6B142B13D1FB696FF00042934203D1F1
:1020F8006FF00043FB6102E0FB690133FB61FB69A0
:10210800142B01DD0123FB613B6B013B3B633B6B04
:10211800002B09DA3B6BC3F10043FA699A4203DAF0
:102128004FF000437B6211E03B6B002B0ADD3A6BFA
:102138006FF000439B1AFA699A4203DD6FF000437F
:102148007B6203E03A6BFB6913447B627B6AB3F101
:10215800004F03D14FF00043BB6202E07B6A013BB2
:10216800BB62BB6A132B02DDBB6A143BBB627B6894
:10217800F0335022002118460EF0DAFF3B6BFB6368
:102188003B6B002B79DD3B6B013B7B62FB69B3F159
:10219800004F03D14FF000433B6202E0FB69013B73
:1021A8003B627B6ABB6331E03B6A002B09DA3B6A1E
:1021B800C3F10043BA6B9A4203DA4FF00043FB6263
:1021C80011E03B6A002B0ADD3A6A6FF000439B1A64
:1021D800BA6B9A4203DD6FF00043FB6203E03A6A90
:1021E800BB6B1344FB62FB6A132B02DDFB6A143BD7
:1021F800FB623A6BBB6BD31A5A1EFB6A591C7B688D
:102208003C3243F82210BB6B013BBB63BB6B002B1A
:10221800CADA01237B620023FB7627E07B6A5A1E19
:102228007B683C3253F82230013BBB637A68BB6B56
:10223800DB001344D3E90023D7E90201FEF70CFCC5
:102248000346002B02D00123FB760FE0BB6BBB6279
:10225800FB6BB3F1004F03D14FF00043FB6302E087
:10226800FB6B013BFB637B6A01337B62FB7E002BCC
:1022780003D17A6A3B6B9A42D0DD7A68BB6ADB008D
:10228800D118D7E90223C1E900237B68BA6A28324A
:10229800796B43F822107B6B6FF00042934203D1B5
:1022A8006FF000437B6302E07B6B01337B637B6BE6
:1022B8003E4A93422ADD7B6BA3F57423A3F5107382
:1022C8007B630023BB631EE07B68BA6B283253F83C
:1022D80022303B633B6B364A934207DA7B68BA6B22
:1022E80028324FF0004143F8221009E03B6BA3F578
:1022F8007423A3F510737A68B96B283142F821303A
:10230800BB6B0133BB63BB6B132BDDDD00233B636E
:102318000FE07A683B6BDB001344D3E9002378694C
:10232800396B0131C9000144C1E900233B6B01331A
:102338003B633B6B132BECDD00233B630CE07B68BA
:102348003A6B283253F822107B693A6B2A3243F8E9
:1023580022103B6B01333B633B6B132BEFDDFB6BB5
:102368006FF00042934205D17B696FF00042C3F8D9
:10237800F82004E0FB6B5A1C7B69C3F8F8207B69E2
:102388007A6BC3F8FC207B69FA69C3F80021FB6902
:10239800013B7A68DB001344D3E900237968C1E97B
:1023A800502300BF4037BD4680BD00BF40420F00EC
:1023B80040420F8080B485B000AF78607B681B789E
:1023C800002B18D17B6801221A707B685B68012B8F
:1023D80011D17B681B7A002B0DD07B684FF0FF3240
:1023E800DA627B681B6BFB60FB681B68012B02D100
:1023F800FB6802221A6000BF1437BD465DF8047BF3
:10240800704780B485B000AF78607B6800221A708E
:102418007B68012283F888207B6801225A607B68E8
:102428000122DA627B6800229A637B6803F1380232
:102438007B681A637B681B6BBB60BB6800221A71E0
:10244800BB6801221A60BB6801221A717B680122ED
:102458001A727B681B6BBB60BB681B68012B2BD196
:102468000023FB600DE0BA68FB680133DB00D1187C
:102478004FF000024FF00003C1E90023FB6801336D
:10248800FB60FB68042BEEDD0023FB6008E0BB6803
:10249800FA680C32002143F82210FB680133FB6014
:1024A800FB68042BF3DDBB6800225A64BB68012279
:1024B8009A64BB680122DA6400BF1437BD465DF830
:1024C800047B704780B594B000AF87ED020B78604D
:1024D80039603B681B6B7B627B6A1B68012B34D0BD
:1024E8007B6A00221A717B6A01221A607B6A0122C8
:1024F8001A7100233B640DE07A6A3B6C0133DB0000
:10250800D1184FF000024FF00003C1E900233B6CE3
:1025180001333B643B6C042BEEDD00233B6408E095
:102528007B6A3A6C0C32002143F822103B6C013371
:102538003B643B6C042BF3DD7B6A00225A647B6AA4
:1025480001229A647B6A0122DA6400233B640FE06B
:102558007A6A3B6C0133DB001344D3E900237868C3
:10256800396CC9000144C1E900233B6C01333B6469
:102578003B6C042BECDD00233B640CE07B6A3A6C7B
:102588000C3253F822107B683A6C0A3243F8221056
:102598003B6C01333B643B6C042BEFDD7B6A5B6C6B
:1025A8003B647B6A9B6C7B647B6ADB6CFB623B6C89
:1025B800002B3CDDFB6A5A1E7B680A3253F8223036
:1025C800FB647B6C002B0ADB7B6C03F1004301335B
:1025D800FA6C9A4203DA6FF00043BB6410E07B6C3C
:1025E800002B09DA7B6C03F10043FA6C9A4203DD95
:1025F8004FF00043BB6403E07A6CFB6CD31ABB64F6
:10260800BB6C052B13D1FB6A6FF00042934203D1D8
:102618006FF00043FB6202E0FB6A0133FB62FB6A76
:10262800052B01DD0123FB623B6C013B3B643B6CEA
:10263800002B09DA3B6CC3F10043FA6A9A4203DAC9
:102648004FF000437B6311E03B6C002B0ADD3A6CD2
:102658006FF000439B1AFA6A9A4203DD6FF0004359
:102668007B6303E03A6CFB6A13447B637B6BB3F1D7
:10267800004F03D14FF00043BB6302E07B6B013B8B
:10268800BB63BB6B042B02DDBB6B053BBB63002349
:10269800BB640AE0BB6C9B0007F1500213440022A4
:1026A80043F8402CBB6C0133BB64BB6C042BF1DDDD
:1026B8003B6CFB643B6C002B40F381803B6C013B23
:1026C8007B63FB6AB3F1004F03D14FF000433B63D8
:1026D80002E0FB6A013B3B637B6BBB6433E03B6B13
:1026E800002B09DA3B6BC3F10043BA6C9A4203DA58
:1026F8004FF00043FB6311E03B6B002B0ADD3A6BA4
:102708006FF000439B1ABA6C9A4203DD6FF00043E6
:10271800FB6303E03A6BBB6C1344FB63FB6B042B5A
:1027280002DDFB6B053BFB633A6CBB6CD31A013BC8
:10273800FA6B01329B0007F150010B4443F8402C1F
:10274800BB6C013BBB64BB6C002BC8DA01237B6309
:10275800002387F82B302AE07B6B013B9B0007F1B5
:102768005002134453F8403C013BBB647A68BB6C8D
:10277800DB001344D3E90023D7E90201FEF74EF941
:102788000346002B03D0012387F82B300FE0BB6CE6
:10279800BB63FB6CB3F1004F03D14FF00043FB6404
:1027A80002E0FB6C013BFB647B6B01337B6397F8B6
:1027B8002B30002B03D17A6B3B6C9A42CCDD7A68C4
:1027C800BB6BDB00D118D7E90223C1E900237B6882
:1027D800BA6B0A32796C43F822107B6C6FF00042B6
:1027E800934203D16FF000437B6402E07B6C0133BA
:1027F8007B647B6C3C4A93422ADD7B6CA3F5742393
:10280800A3F510737B640023BB641EE07B68BA6C7D
:102818000A3253F822303B643B6C344A934207DA5D
:102828007B68BA6C0A324FF0004143F8221009E085
:102838003B6CA3F57423A3F510737A68B96C0A315D
:1028480042F82130BB6C0133BB64BB6C042BDDDD6B
:1028580000233B640FE07A683B6CDB001344D3E948
:102868000023786A396C0131C9000144C1E90023A9
:102878003B6C01333B643B6C042BECDD00233B6475
:102888000CE07B683A6C0A3253F822107B6A3A6C87
:102898000C3243F822103B6C01333B643B6C042B35
:1028A800EFDDFB6C6FF00042934204D17B6A6FF05E
:1028B80000425A6403E0FB6C5A1C7B6A5A647B6AC8
:1028C8007A6C9A647B6AFA6ADA64FB6A013B7A6812
:1028D800DB001344D3E900237968C1E9102300BF62
:1028E8005037BD4680BD00BF40420F0040420F80B8
:1028F80080B485B000AF78607B681B78002B18D156
:102908007B6801221A707B685B68012B11D17B6898
:102918001B7A002B0DD07B684FF0FF32DA627B68A0
:102928001B6BFB60FB681B68012B02D1FB68022252
:102938001A6000BF1437BD465DF8047B704780B449
:1029480085B000AF78607B6800221A707B6801222E
:1029580083F800217B6801225A607B680122DA62D1
:102968007B6800229A637B6803F138027B681A63EC
:102978007B681B6BBB60BB6800221A71BB680122B5
:102988001A60BB6801221A717B6801221A727B687F
:102998001B6BBB60BB681B68012B2ED10023FB603F
:1029A8000DE0BA68FB680133DB00D1184FF0000274
:1029B8004FF00003C1E90023FB680133FB60FB68AB
:1029C8000E2BEEDD0023FB6008E0BB68FA682032BE
:1029D800002143F82210FB680133FB60FB680E2BD3
:1029E800F3DDBB680022C3F8BC20BB680122C3F832
:1029F800C020BB680122C3F8C42000BF1437BD46FD
:102A08005DF8047B7047000080B590B000AF87ED9B
:102A1800020B786039603B681B6B7B617B691B68C4
:102A2800012B37D07B6900221A717B6901221A6059
:102A38007B6901221A7100233B630DE07A693B6BC5
:102A48000133DB00D1184FF000024FF00003C1E959
:102A580000233B6B01333B633B6B0E2BEEDD002306
:102A68003B6308E07B693A6B2032002143F822106F
:102A78003B6B01333B633B6B0E2BF3DD7B69002221
:102A8800C3F8BC207B690122C3F8C0207B690122FE
:102A9800C3F8C42000233B630FE07A693B6B013322
:102AA800DB001344D3E900237868396BC90001447B
:102AB800C1E900233B6B01333B633B6B0E2BECDD21
:102AC80000233B630CE07B693A6B203253F82210F9
:102AD8007B683A6B1E3243F822103B6B01333B6331
:102AE8003B6B0E2BEFDD7B69D3F8BC303B637B6916
:102AF800D3F8C0307B637B69D3F8C430FB613B6B90
:102B0800002B3CDDFB695A1E7B681E3253F82230CD
:102B1800FB637B6B002B0ADB7B6B03F10043013308
:102B2800FA6B9A4203DA6FF00043BB6310E07B6BE9
:102B3800002B09DA7B6B03F10043FA6B9A4203DD41
:102B48004FF00043BB6303E07A6BFB6BD31ABB63A4
:102B5800BB6B0F2B13D1FB696FF00042934203D17B
:102B68006FF00043FB6102E0FB690133FB61FB6925
:102B78000F2B01DD0123FB613B6B013B3B633B6B8F
:102B8800002B09DA3B6BC3F10043FA699A4203DA76
:102B98004FF000437B6211E03B6B002B0ADD3A6B80
:102BA8006FF000439B1AFA699A4203DD6FF0004305
:102BB8007B6203E03A6BFB6913447B627B6AB3F187
:102BC800004F03D14FF00043BB6202E07B6A013B38
:102BD800BB62BB6A0E2B02DDBB6A0F3BBB620023E4
:102BE800BB6309E07A68BB6B2C339B00134400225B
:102BF8005A60BB6B0133BB63BB6B0E2BF2DD3B6BC7
:102C0800FB633B6B002B7BDD3B6B013B7B62FB6912
:102C1800B3F1004F03D14FF000433B6202E0FB6980
:102C2800013B3B627B6ABB6332E03B6A002B09DAFB
:102C38003B6AC3F10043BA6B9A4203DA4FF0004390
:102C4800FB6211E03B6A002B0ADD3A6A6FF0004331
:102C58009B1ABA6B9A4203DD6FF00043FB6203E0F4
:102C68003A6ABB6B1344FB62FB6A0E2B02DDFB6AFC
:102C78000F3BFB623A6BBB6BD31A013BFA6A01321A
:102C880079682C339B000B445A60BB6B013BBB63D8
:102C9800BB6B002BC9DA01237B620023FB7628E09B
:102CA8007B6A013B7A682C339B0013445B68013BC9
:102CB800BB637A68BB6BDB001344D3E90023D7E915
:102CC8000201FDF7C9FE0346002B02D00123FB7663
:102CD8000FE0BB6BBB62FB6BB3F1004F03D14FF04E
:102CE8000043FB6302E0FB6B013BFB637B6A013340
:102CF8007B62FB7E002B03D17A6A3B6B9A42CFDD65
:102D08007A68BB6ADB00D118D7E90223C1E900233E
:102D18007B68BA6A1E32796B43F822107B6B6FF0BE
:102D28000042934203D16FF000437B6302E07B6B68
:102D380001337B637B6B3E4A93422ADD7B6BA3F5B1
:102D48007423A3F510737B630023BB631EE07B68C9
:102D5800BA6B1E3253F822303B633B6B354A9342C1
:102D680007DA7B68BA6B1E324FF0004143F8221035
:102D780009E03B6BA3F57423A3F510737A68B96B6C
:102D88001E3142F82130BB6B0133BB63BB6B0E2B8A
:102D9800DDDD00233B630FE07A683B6BDB00134407
:102DA800D3E900237869396B0131C9000144C1E9CD
:102DB80000233B6B01333B633B6B0E2BECDD0023A5
:102DC8003B630CE07B683A6B1E3253F822107B6938
:102DD8003A6B203243F822103B6B01333B633B6B69
:102DE8000E2BEFDDFB6B6FF00042934205D17B6940
:102DF8006FF00042C3F8BC2004E0FB6B5A1C7B69EF
:102E0800C3F8BC207B697A6BC3F8C0207B69FA6978
:102E1800C3F8C420FB69013B7A68DB001344D3E99B
:102E280000237968C1E93C2300BF4037BD4680BD17
:102E380040420F0040420F8080B485B000AF7860F8
:102E48007B681B78002B18D17B6801221A707B687D
:102E58005B68012B11D17B681B7A002B0DD07B6836
:102E68004FF0FF32DA627B681B6BFB60FB681B6804
:102E7800012B02D1FB6802221A6000BF1437BD463D
:102E88005DF8047B704780B485B000AF78607B68DC
:102E980000221A707B68012283F800217B680122D6
:102EA8005A607B680122DA627B6800229A637B6839
:102EB80003F138027B681A637B681B6BBB60BB68D5
:102EC80000221A71BB6801221A60BB6801221A71BC
:102ED8007B6801221A727B681B6BBB60BB681B682E
:102EE800012B2ED10023FB600DE0BA68FB6801338B
:102EF800DB00D1184FF000024FF00003C1E90023B6
:102F0800FB680133FB60FB680E2BEEDD0023FB60E2
:102F180008E0BB68FA682032002143F82210FB68F9
:102F28000133FB60FB680E2BF3DDBB680022C3F89E
:102F3800BC20BB680122C3F8C020BB680122C3F8CB
:102F4800C42000BF1437BD465DF8047B70470000FD
:102F580080B590B000AF87ED020B786039603B68B0
:102F68001B6B7B617B691B68012B37D07B69002257
:102F78001A717B6901221A607B6901221A71002388
:102F88003B630DE07A693B6B0133DB00D1184FF0EE
:102F980000024FF00003C1E900233B6B01333B63A0
:102FA8003B6B0E2BEEDD00233B6308E07B693A6B3D
:102FB8002032002143F822103B6B01333B633B6B0B
:102FC8000E2BF3DD7B690022C3F8BC207B6901224C
:102FD800C3F8C0207B690122C3F8C42000233B63E7
:102FE8000FE07A693B6B0133DB001344D3E900231C
:102FF8007868396BC9000144C1E900233B6B013390
:103008003B633B6B0E2BECDD00233B630CE07B69E1
:103018003A6B203253F822107B683A6B1E3243F821
:1030280022103B6B01333B633B6B0E2BEFDD7B695F
:10303800D3F8BC303B637B69D3F8C0307B637B69D2
:10304800D3F8C430FB613B6B002B3CDDFB695A1E97
:103058007B681E3253F82230FB637B6B002B0ADB44
:103068007B6B03F100430133FA6B9A4203DA6FF08A
:103078000043BB6310E07B6B002B09DA7B6B03F129
:103088000043FA6B9A4203DD4FF00043BB6303E051
:103098007A6BFB6BD31ABB63BB6B0F2B13D1FB692A
:1030A8006FF00042934203D16FF00043FB6102E0EE
:1030B800FB690133FB61FB690F2B01DD0123FB6118
:1030C8003B6B013B3B633B6B002B09DA3B6BC3F16A
:1030D8000043FA699A4203DA4FF000437B6211E039
:1030E8003B6B002B0ADD3A6B6FF000439B1AFA69C1
:1030F8009A4203DD6FF000437B6203E03A6BFB69A1
:1031080013447B627B6AB3F1004F03D14FF0004355
:10311800BB6202E07B6A013BBB62BB6A0E2B02DD2D
:10312800BB6A0F3BBB620023BB6309E07A68BB6BD9
:103138002C339B00134400225A60BB6B0133BB63E2
:10314800BB6B0E2BF2DD3B6BFB633B6B002B7BDD1C
:103158003B6B013B7B62FB69B3F1004F03D14FF03E
:1031680000433B6202E0FB69013B3B627B6ABB6355
:1031780032E03B6A002B09DA3B6AC3F10043BA6BC1
:103188009A4203DA4FF00043FB6211E03B6A002BDE
:103198000ADD3A6A6FF000439B1ABA6B9A4203DD64
:1031A8006FF00043FB6203E03A6ABB6B1344FB62B7
:1031B800FB6A0E2B02DDFB6A0F3BFB623A6BBB6BB3
:1031C800D31A013BFA6A013279682C339B000B440D
:1031D8005A60BB6B013BBB63BB6B002BC9DA012395
:1031E8007B620023FB7628E07B6A013B7A682C33FC
:1031F8009B0013445B68013BBB637A68BB6BDB00D5
:103208001344D3E90023D7E90201FDF707FC03467D
:10321800002B02D00123FB760FE0BB6BBB62FB6B7C
:10322800B3F1004F03D14FF00043FB6302E0FB6BA7
:10323800013BFB637B6A01337B62FB7E002B03D17E
:103248007A6A3B6B9A42CFDD7A68BB6ADB00D11899
:10325800D7E90223C1E900237B68BA6A1E32796B79
:1032680043F822107B6B6FF00042934203D16FF05A
:1032780000437B6302E07B6B01337B637B6B3E4ADD
:1032880093422ADD7B6BA3F57423A3F510737B634C
:103298000023BB631EE07B68BA6B1E3253F82230F2
:1032A8003B633B6B354A934207DA7B68BA6B1E3245
:1032B8004FF0004143F8221009E03B6BA3F574235B
:1032C800A3F510737A68B96B1E3142F82130BB6BD5
:1032D8000133BB63BB6B0E2BDDDD00233B630FE0CB
:1032E8007A683B6BDB001344D3E900237869396BB8
:1032F8000131C9000144C1E900233B6B01333B6341
:103308003B6B0E2BECDD00233B630CE07B683A6BD8
:103318001E3253F822107B693A6B203243F8221090
:103328003B6B01333B633B6B0E2BEFDDFB6B6FF0AD
:103338000042934205D17B696FF00042C3F8BC207C
:1033480004E0FB6B5A1C7B69C3F8BC207B697A6B71
:10335800C3F8C0207B69FA69C3F8C420FB69013B44
:103368007A68DB001344D3E900237968C1E93C2378
:1033780000BF4037BD4680BD40420F0040420F802D
:1033880080B485B000AF78607B681B78002B18D1BB
:103398007B6801221A707B685B68012B11D17B68FE
:1033A8001B7A002B0DD07B684FF0FF32DA627B6806
:1033B8001B6BFB60FB681B68012B02D1FB680222B8
:1033C8001A6000BF1437BD465DF8047B704780B4AF
:1033D80085B000AF78607B6800221A707B68012294
:1033E80083F800217B6801225A607B680122DA6237
:1033F8007B6800229A637B6803F138027B681A6352
:103408007B681B6BBB60BB6800221A71BB6801221A
:103418001A60BB6801221A717B6801221A727B68E4
:103428001B6BBB60BB681B68012B2ED10023FB60A4
:103438000DE0BA68FB680133DB00D1184FF00002D9
:103448004FF00003C1E90023FB680133FB60FB6810
:103458000E2BEEDD0023FB6008E0BB68FA68203223
:10346800002143F82210FB680133FB60FB680E2B38
:10347800F3DDBB680022C3F8BC20BB680122C3F897
:10348800C020BB680122C3F8C42000BF1437BD4662
:103498005DF8047B7047000080B590B000AF87ED01
:1034A800020B786039603B681B6B7B617B691B682A
:1034B800012B37D07B6900221A717B6901221A60BF
:1034C8007B6901221A7100233B630DE07A693B6B2B
:1034D8000133DB00D1184FF000024FF00003C1E9BF
:1034E80000233B6B01333B633B6B0E2BEEDD00236C
:1034F8003B6308E07B693A6B2032002143F82210D5
:103508003B6B01333B633B6B0E2BF3DD7B69002286
:10351800C3F8BC207B690122C3F8C0207B69012263
:10352800C3F8C42000233B630FE07A693B6B013387
:10353800DB001344D3E900237868396BC9000144E0
:10354800C1E900233B6B01333B633B6B0E2BECDD86
:1035580000233B630CE07B693A6B203253F822105E
:103568007B683A6B1E3243F822103B6B01333B6396
:103578003B6B0E2BEFDD7B69D3F8BC303B637B697B
:10358800D3F8C0307B637B69D3F8C430FB613B6BF5
:10359800002B3CDDFB695A1E7B681E3253F8223033
:1035A800FB637B6B002B0ADB7B6B03F1004301336E
:1035B800FA6B9A4203DA6FF00043BB6310E07B6B4F
:1035C800002B09DA7B6B03F10043FA6B9A4203DDA7
:1035D8004FF00043BB6303E07A6BFB6BD31ABB630A
:1035E800BB6B0F2B13D1FB696FF00042934203D1E1
:1035F8006FF00043FB6102E0FB690133FB61FB698B
:103608000F2B01DD0123FB613B6B013B3B633B6BF4
:10361800002B09DA3B6BC3F10043FA699A4203DADB
:103628004FF000437B6211E03B6B002B0ADD3A6BE5
:103638006FF000439B1AFA699A4203DD6FF000436A
:103648007B6203E03A6BFB6913447B627B6AB3F1EC
:10365800004F03D14FF00043BB6202E07B6A013B9D
:10366800BB62BB6A0E2B02DDBB6A0F3BBB62002349
:10367800BB6309E07A68BB6B2C339B0013440022C0
:103688005A60BB6B0133BB63BB6B0E2BF2DD3B6B2C
:10369800FB633B6B002B7BDD3B6B013B7B62FB6978
:1036A800B3F1004F03D14FF000433B6202E0FB69E6
:1036B800013B3B627B6ABB6332E03B6A002B09DA61
:1036C8003B6AC3F10043BA6B9A4203DA4FF00043F6
:1036D800FB6211E03B6A002B0ADD3A6A6FF0004397
:1036E8009B1ABA6B9A4203DD6FF00043FB6203E05A
:1036F8003A6ABB6B1344FB62FB6A0E2B02DDFB6A62
:103708000F3BFB623A6BBB6BD31A013BFA6A01327F
:1037180079682C339B000B445A60BB6B013BBB633D
:10372800BB6B002BC9DA01237B620023FB7628E000
:103738007B6A013B7A682C339B0013445B68013B2E
:10374800BB637A68BB6BDB001344D3E90023D7E97A
:103758000201FDF781F90346002B02D00123FB7615
:103768000FE0BB6BBB62FB6BB3F1004F03D14FF0B3
:103778000043FB6302E0FB6B013BFB637B6A0133A5
:103788007B62FB7E002B03D17A6A3B6B9A42CFDDCA
:103798007A68BB6ADB00D118D7E90223C1E90023A4
:1037A8007B68BA6A1E32796B43F822107B6B6FF024
:1037B8000042934203D16FF000437B6302E07B6BCE
:1037C80001337B637B6B3E4A93422ADD7B6BA3F517
:1037D8007423A3F510737B630023BB631EE07B682F
:1037E800BA6B1E3253F822303B633B6B354A934227
:1037F80007DA7B68BA6B1E324FF0004143F822109B
:1038080009E03B6BA3F57423A3F510737A68B96BD1
:103818001E3142F82130BB6B0133BB63BB6B0E2BEF
:10382800DDDD00233B630FE07A683B6BDB0013446C
:10383800D3E900237869396B0131C9000144C1E932
:1038480000233B6B01333B633B6B0E2BECDD00230A
:103858003B630CE07B683A6B1E3253F822107B699D
:103868003A6B203243F822103B6B01333B633B6BCE
:103878000E2BEFDDFB6B6FF00042934205D17B69A5
:103888006FF00042C3F8BC2004E0FB6B5A1C7B6954
:10389800C3F8BC207B697A6BC3F8C0207B69FA69DE
:1038A800C3F8C420FB69013B7A68DB001344D3E901
:1038B80000237968C1E93C2300BF4037BD4680BD7D
:1038C80040420F0040420F8080B485B000AF78605E
:1038D8007B681B78002B18D17B6801221A707B68E3
:1038E8005B68012B11D17B681B7A002B0DD07B689C
:1038F8004FF0FF32DA627B681B6BFB60FB681B686A
:10390800012B02D1FB6802221A6000BF1437BD46A2
:103918005DF8047B704780B485B000AF78607B6841
:1039280000221A707B68012283F888207B680122B4
:103938005A607B680122DA627B6800229A637B689E
:1039480003F138027B681A637B681B6BBB60BB683A
:1039580000221A71BB6801221A60BB6801221A7121
:103968007B6801221A727B681B6BBB60BB681B6893
:10397800012B2BD10023FB600DE0BA68FB680133F3
:10398800DB00D1184FF000024FF00003C1E900231B
:10399800FB680133FB60FB68042BEEDD0023FB6052
:1039A80008E0BB68FA680C32002143F82210FB6873
:1039B8000133FB60FB68042BF3DDBB6800225A640B
:1039C800BB6801229A64BB680122DA6400BF14371D
:1039D800BD465DF8047B704780B594B000AF87EDB5
:1039E800020B786039603B681B6B7B627B6A1B68E3
:1039F800012B34D07B6A00221A717B6A01221A607B
:103A08007B6A01221A7100233B640DE07A6A3B6CE1
:103A18000133DB00D1184FF000024FF00003C1E979
:103A280000233B6C01333B643B6C042BEEDD00232D
:103A38003B6408E07B6A3A6C0C32002143F82210A0
:103A48003B6C01333B643B6C042BF3DD7B6A002247
:103A58005A647B6A01229A647B6A0122DA64002331
:103A68003B640FE07A6A3B6C0133DB001344D3E913
:103A780000237868396CC9000144C1E900233B6C14
:103A880001333B643B6C042BECDD00233B640CE00E
:103A98007B6A3A6C0C3253F822107B683A6C0A3213
:103AA80043F822103B6C01333B643B6C042BEFDD85
:103AB8007B6A5B6C3B647B6A9B6C7B647B6ADB6CBC
:103AC800FB623B6C002B3CDDFB6A5A1E7B680A32AA
:103AD80053F82230FB647B6C002B0ADB7B6C03F110
:103AE80000430133FA6C9A4203DA6FF00043BB6477
:103AF80010E07B6C002B09DA7B6C03F10043FA6C55
:103B08009A4203DD4FF00043BB6403E07A6CFB6C20
:103B1800D31ABB64BB6C052B13D1FB6A6FF0004250
:103B2800934203D16FF00043FB6202E0FB6A01336A
:103B3800FB62FB6A052B01DD0123FB623B6C013B49
:103B48003B643B6C002B09DA3B6CC3F10043FA6A17
:103B58009A4203DA4FF000437B6311E03B6C002B81
:103B68000ADD3A6C6FF000439B1AFA6A9A4203DD49
:103B78006FF000437B6303E03A6CFB6A13447B639A
:103B88007B6BB3F1004F03D14FF00043BB6302E0FE
:103B98007B6B013BBB63BB6B042B02DDBB6B053B43
:103BA800BB630023BB640AE0BB6C9B0007F15002B7
:103BB8001344002243F8402CBB6C0133BB64BB6C3C
:103BC800042BF1DD3B6CFB643B6C002B40F38180E4
:103BD8003B6C013B7B63FB6AB3F1004F03D14FF0B1
:103BE80000433B6302E0FB6A013B3B637B6BBB64C6
:103BF80033E03B6B002B09DA3B6BC3F10043BA6C33
:103C08009A4203DA4FF00043FB6311E03B6B002B51
:103C18000ADD3A6B6FF000439B1ABA6C9A4203DDD7
:103C28006FF00043FB6303E03A6BBB6C1344FB6328
:103C3800FB6B042B02DDFB6B053BFB633A6CBB6C37
:103C4800D31A013BFA6B01329B0007F150010B4478
:103C580043F8402CBB6C013BBB64BB6C002BC8DA3F
:103C680001237B63002387F82B302AE07B6B013B21
:103C78009B0007F15002134453F8403C013BBB64DE
:103C88007A68BB6CDB001344D3E90023D7E902014F
:103C9800FCF7C4FE0346002B03D0012387F82B3022
:103CA8000FE0BB6CBB63FB6CB3F1004F03D14FF06B
:103CB8000043FB6402E0FB6C013BFB647B6B01335C
:103CC8007B6397F82B30002B03D17A6B3B6C9A42BD
:103CD800CCDD7A68BB6BDB00D118D7E90223C1E9D8
:103CE80000237B68BA6B0A32796C43F822107B6C2C
:103CF8006FF00042934203D16FF000437B6402E00F
:103D08007B6C01337B647B6C3C4A93422ADD7B6C81
:103D1800A3F57423A3F510737B640023BB641EE032
:103D28007B68BA6C0A3253F822303B643B6C344AE5
:103D3800934207DA7B68BA6C0A324FF0004143F8C5
:103D4800221009E03B6CA3F57423A3F510737A687D
:103D5800B96C0A3142F82130BB6C0133BB64BB6CCF
:103D6800042BDDDD00233B640FE07A683B6CDB004D
:103D78001344D3E90023786A396C0131C90001443E
:103D8800C1E900233B6C01333B643B6C042BECDD45
:103D980000233B640CE07B683A6C0A3253F822102B
:103DA8007B6A3A6C0C3243F822103B6C01333B645B
:103DB8003B6C042BEFDDFB6C6FF00042934204D1A7
:103DC8007B6A6FF000425A6403E0FB6C5A1C7B6A02
:103DD8005A647B6A7A6C9A647B6AFA6ADA64FB6A68
:103DE800013B7A68DB001344D3E900237968C1E911
:103DF800102300BF5037BD4680BD00BF40420F00B2
:103E080040420F8080B485B000AF78607B681B7833
:103E1800002B18D17B6801221A707B685B68012B24
:103E280011D17B681B7A002B0DD07B684FF0FF32D5
:103E3800DA627B681B6BFB60FB681B68012B02D195
:103E4800FB6802221A6000BF1437BD465DF8047B88
:103E58007047000080B58CB002AF78607B680022A4
:103E68001A727B6801225A600123BB731B4BFB61EA
:103E78007B6810337B611A4BBB6100237B7309237A
:103E8800BB600423FB840423BB8408233B6209230F
:103E98003B73BA8CF98C07F108003B6A0093134610
:103EA8000122FDF73FFB02467B68DA607B68DB682E
:103EB80002211846FDF7AAFC7B68DB681846FDF767
:103EC800BFFB7B68DB6801211846FDF702FB7B68B6
:103ED80001221A7200BF2837BD4680BD000002408B
:103EE80000010450000000002DE9F04F2DED028B79
:103EF800ADB000AFB84A0423A2F80031B74BD86878
:103F0800B54BB3F80031B64A1946FDF7AEFBB24AD5
:103F1800B44BC2F80431B04BD3F804311846FDF75E
:103F2800FFFC0246AC4BC3F82C21AB4AAE4BC2F89F
:103F38000431A94BD3F804311846FDF7F1FC0246C9
:103F4800A54BC3F83021A44A0023C2F828314AE01F
:103F5800A64BB3F85E3119469F4BD3F82821A44BE2
:103F680033F8123003FB01F31846FCF76BFA9A4B4F
:103F7800D3F828414FF000029E4BFCF7DDFA0246C9
:103F88000B4610461946944A04F10803DB00134413
:103F9800C3E90001954BB3F8603119468E4BD3F84D
:103FA8002821954B33F8123003FB01F31846FCF730
:103FB80049FA894BD3F828414FF000028D4BFCF7A2
:103FC800BBFA02460B4610461946834A04F1100311
:103FD800DB001344C3E900017F4BD3F828315A1C96
:103FE8007D4BC3F828217C4BD3F82831072BAFDD54
:103FF800824B5B79002B42D1784BD3F8B830184606
:10400800FCF730FA794BD3E92A23FCF707FD03467E
:10401800002B08D0714BD3F8B830002B03DB734B5F
:10402800D3E9260103E04FF000004FF000016A4B8E
:10403800C3E94201694BD3F8B8301846FCF712FAC5
:1040480004460D46694BD3E928014FF000026C4B3A
:10405800FCF7BAF802460B4620462946FCF7F2FC64
:104068000346002B04D05D4A0023C2F8B83006E0AE
:104078005A4BD3F8B8305A1C584BC3F8B820574B92
:10408800D3F8BC301846FCF7EDF9584BD3E9322386
:10409800FCF7C4FC0346002B08D0504BD3F8BC30C7
:1040A800002B03DB514BD3E92E0103E04FF0000056
:1040B8004FF00001484BC3E94401484BD3F8BC30EA
:1040C8001846FCF7CFF904460D46484BD3E93001B2
:1040D8004FF000024A4BFCF777F802460B462046A1
:1040E8002946FCF7AFFC0346002B04D03B4A0023CB
:1040F800C2F8BC3006E0394BD3F8BC305A1C374BF9
:10410800C3F8BC20354B93F8C3307E2B07D8334B0C
:1041180093F8C3300133DBB2304A82F8C3302F4BF7
:1041280093F8C030002B26D12C4A012382F8C030E6
:104138002A4A012382F8C130284A012382F8C23072
:10414800254A0023C2F828310EE0234BD3F8282152
:10415800214B1A44002382F837311F4BD3F82831FA
:104168005A1C1D4BC3F828211B4BD3F82831072BA9
:10417800EBDD00F0E0BC194B93F8C130012B40F0A7
:10418800C581164B93F8C230032B00F04281032BF4
:1041980000F39A81012B03D0022B00F0898093E170
:1041A8000D4BD3F82C3103F04003002B5DD10A4AA4
:1041B800002382F83431084A002382F83531064A50
:1041C800002382F83631054A022382F8C230024AB7
:1041D8000023C2F8283141E030060020102C0020CE
:1041E800A0530020001000480004004800000020F0
:1041F8001C0300200000503E300300200C03002068
:104208000000F03FBE4BD3F82831BD4A0833DB002D
:104218001344D3E90045BA4BD3F82831B84A1033D0
:10422800DB001344D3E90001B54BD3F828610246FB
:104238000B4620462946FBF7C7FF02460B461046A9
:104248001946B04AF31DDB001344C3E90001AC4B27
:10425800D3F828315A1CAA4BC3F82821A84BD3F805
:104268002831072BCEDD00F066BCA54B93F834311E
:10427800002B0CBF01230023DBB2A14A82F83431A2
:104288009F4B93F83531002B0CBF01230023DBB281
:104298009B4A82F835319A4B93F83631002B0CBF84
:1042A80001230023DBB2964A82F8363100F043BC82
:1042B800934BD3F8303103F00403002B40F03684DD
:1042C800904A032382F8C2308E4A002382F8C33012
:1042D8008B4BD3E9420101231C464FF000024FF0FB
:1042E8000003FCF791FB0346002B01D000231C467A
:1042F800E3B2834A82F83731814BD3E94401012381
:104308001C464FF000024FF00003FCF77DFB03460C
:10431800002B01D000231C46E3B2794A82F83831D9
:10432800774BD3E9420101231C464FF000024FF0BE
:104338000003FCF769FB0346002B01D000231C4651
:10434800E3B26F4A82F839316F4BD3E93601012362
:104358001C464FF000024FF00003FCF755FB0346E4
:10436800002B01D000231C46E3B2654A82F83A319B
:10437800654BD3E9360101231C464FF000024FF08C
:104388000003FCF741FB0346002B01D000231C4629
:10439800E3B25B4A82F83B31594BD3E9420101232E
:1043A8001C464FF000024FF00003FCF72DFB0346BC
:1043B800002B01D000231C46E3B2514A82F83C315D
:1043C8004F4BD3E9440101231C464FF000024FF044
:1043D8000003FCF719FB0346002B01D000231C4601
:1043E800E3B2474A82F83D31454BD3E94201012304
:1043F8001C464FF000024FF00003FCF705FB034694
:10440800002B01D000231C46E3B23D4A82F83E311E
:104418008CE33C4B93F8C3304F2B40F28983394AE5
:10442800042382F8C230374A002382F8C330344A62
:104438000023C2F8283141E0314BD3F82831304A03
:104448000833DB001344D3E900012D4BD3F828319E
:104458002B4A1033DB001344D3E90023FBF7B4FEE7
:1044680002460B4610461946254BD3F82831254AF3
:104478000733DB001344D3E90023FBF7A7FE02460A
:104488000B46104619461E4BD3F828414FF0000240
:104498004FF08043FCF77AF902460B46104619465E
:1044A800184A04F10F03DB001344C3E90001144B5D
:1044B800D3F828315A1C124BC3F82821104BD3F8D3
:1044C8002831072BB8DD33E30E4B93F8C3304F2B5D
:1044D80040F230830A4A012382F83431084A012322
:1044E80082F83531064A012382F83631054A00231D
:1044F80082F8C230034A022382F8C1301AE300BFAF
:1045080030060020102C002000000020624A002302
:10451800C2F8283126E0614BB3F85C3119465E4B8E
:10452800D3F828215E4B33F8123003FB01F3184609
:10453800FBF788FF584BD3F828414FF00002594B3E
:10454800FBF7FAFF02460B4610461946524AE300AB
:104558001344C3E90001504BD3F828315A1C4E4B81
:10456800C3F828214C4BD3F82831072BD3DD4A4B0D
:1045780093ED007B4C494D48B0EE470AF0EE670AD0
:10458800FEF7E6FC444B93ED007B49494948B0EE01
:10459800470AF0EE670AFEF77FFF474BD3E91E2371
:1045A80010461946FCF798FA02463C4BC3F83021EE
:1045B800394B93ED027B41494148B0EE470AF0EE92
:1045C800670AFFF709FA344B03F6383393ED007B9B
:1045D8003C493D48B0EE470AF0EE670AFEF75CFF3B
:1045E8002D4B93ED027B39493948B0EE470AF0EE7E
:1045F800670AFEF751FF304BD3E9202310461946CE
:10460800FCF76AFA0246254BC3F83421224B93ED96
:10461800047B30493048B0EE470AF0EE670AFEF7EF
:1046280097FC1D4B93ED047B2C492D48B0EE470AAF
:10463800F0EE670AFEF730FF1F4BD3E9222310463E
:104648001946FCF749FA0246144BC3F83821124BB5
:10465800D3E90601114BD3E92223FCF7FDF9034600
:10466800002B06D00D4BD3E922230B49C1E948237F
:104678003EE0094BD3E90601084BD3E92423FCF7B4
:10468800CDF90346002B2DD0044BD3E9242302494E
:10469800C1E948232CE000BF3006002000000020BC
:1046A800A05300200000503EF02F0020600A002098
:1046B800E82E002068090020102C00202837002050
:1046C8002811002018350020380F0020203600203F
:1046D80030100020603B0020A0140020583A002031
:1046E800A81300209C4BD3E906239B49C1E9482322
:1046F800994B93ED487B99499948B0EE470AF0EEFB
:10470800670AFEF725FC944B93ED487B954996483C
:10471800B0EE470AF0EE670AFEF7BEFE934BD3E908
:10472800242310461946FCF7D7F90246904BC3F8E4
:104738003C21894B93ED087B8E498F48B0EE470AA0
:10474800F0EE670AFEF704FC834B93ED087B8B4978
:104758008B48B0EE470AF0EE670AFEF79DFE834BE2
:10476800D3E9262310461946FCF7B6F90246804BD2
:10477800C3F84021784B93ED0A7B82498248B0EE1A
:10478800470AF0EE670AFEF7E3FB734B93ED0A7BEB
:104798007E497F48B0EE470AF0EE670AFEF77CFED6
:1047A800724BD3E9282310461946FCF795F90246BF
:1047B8006F4BC3F84421684B93ED0C7B75497648E1
:1047C800B0EE470AF0EE670AFFF706F9624B03F509
:1047D800576393ED007B71497148B0EE470AF0EEDC
:1047E800670AFEF759FE5C4B93ED0C7B6D496E48EA
:1047F800B0EE470AF0EE670AFEF74EFE5B4BD3E9D0
:104808002A2310461946FCF767F90246584BC3F8A5
:104818004821514B93ED0E7B64496548B0EE470A39
:10482800F0EE670AFEF794FB4B4B93ED0E7B614964
:104838006148B0EE470AF0EE670AFEF72DFE4B4BD3
:10484800D3E92C2310461946FCF746F90246484B93
:10485800C3F84C21404B03F51063D3E900231046FD
:104868001946FCF739F908EE100A3B4B03F6080322
:10487800D3E9002310461946FCF72EF907EE900AF3
:1048880078EE677AB0EEE77A394BD3ED507AB4EE2A
:10489800E77AF1EE10FA14DD354BD3E91201012362
:1048A8001C464FF000024FF00003FCF7ADF803463A
:1048B800002B01D000231C46E3B2274A82F834318A
:1048C80013E02B4BD3E9140101231C464FF00002DF
:1048D8004FF00003FCF798F80346002B01D00023A3
:1048E8001C46E3B21C4A82F834311B4B03F6F8131A
:1048F800D3E9002310461946FCF7EEF808EE100A33
:10490800154B03F52F63D3E9002310461946FCF72E
:10491800E3F807EE900A78EE677AB0EEE77A144B80
:10492800D3ED4D7AB4EEE77AF1EE10FA46DD104B8E
:10493800D3E90E0101231C464FF000024FF000039B
:10494800FCF762F80346002B01D000231C46E3B2B3
:10495800014A82F83F3145E030060020E02D002072
:1049680070080020D82C002078070020102C002088
:104978000000002010340020400E002008330020E2
:10498800480D0020703D002090160020683C002053
:1049980098150020C839002060130020B83700207F
:1049A80070110020C038002068120020003200205A
:1049B800500C0020F8300020580B0020B34BD3E9EE
:1049C800100101231C464FF000024FF00003FCF7D2
:1049D8001BF80346002B01D000231C46E3B2AC4A67
:1049E80082F83F31AA4B03F54363D3E9002310460D
:1049F8001946FCF771F808EE100AA54B03F6285380
:104A0800D3E9002310461946FCF766F807EE900A2A
:104A180078EE677AB0EEE77A9C4BD3ED527AB4EE33
:104A2800E77AF1EE10FA14DD984BD3E90A01012375
:104A38001C464FF000024FF00003FBF7E5FF03466A
:104A4800002B01D000231C46E3B2914A82F8403182
:104A580013E08E4BD3E90C0101231C464FF00002F2
:104A68004FF00003FBF7D0FF0346002B01D00023D3
:104A78001C46E3B2864A82F84031854B93F83F31B1
:104A8800002B06D0824B93F84031002B01D0012334
:104A980000E00023DBB27E4A82F835317C4BD3E953
:104AA800CC2310461946FCF717F808EE100A784B85
:104AB800D3E98E2310461946FCF70EF807EE900A44
:104AC80078EE677AB0EEE77A704BD3ED4F7AB4EEB2
:104AD800E77AF1EE10FA14DD6C4BD3E91E010123DD
:104AE8001C464FF000024FF00003FBF78DFF034612
:104AF800002B01D000231C46E3B2654A82F8363108
:104B080019E0624BD3E9200101231C464FF0000253
:104B18004FF00003FBF778FF0346002B01D000237A
:104B28001C46E3B25A4A82F8363104E000BF02E07C
:104B380000BF00E000BF564A0023C2F8283112E047
:104B4800534BD3F82821524BD3F82811504B134418
:104B580093F837314F4A53544D4BD3F828315A1CE8
:104B68004B4BC3F828214A4BD3F82831072BE7DDF4
:104B7800474A494BC2F80431454B93F83A31002B68
:104B880005D0434A4FF40073C2F8283103E0404A85
:104B98000023C2F828313E4BD3F804213C4BD3F80C
:104BA800283119461046FCF7C7FE394BD3F80421C3
:104BB800374BD3F82831DB4303F40073194610460A
:104BC800FCF7C8FE324A344BC2F80431304B93F834
:104BD8003B31002B05D02E4A4FF48043C2F82831D0
:104BE80003E02B4A0023C2F82831294BD3F80421CB
:104BF800274BD3F8283119461046FCF79DFE244B65
:104C0800D3F80421224BD3F82831DB4303F4804343
:104C180019461046FCF79EFE1D4A1F4BC2F8043188
:104C28001B4B93F83831002B05D0194A4FF4807389
:104C3800C2F8283103E0164A0023C2F82831144B81
:104C4800D3F80421124BD3F8283119461046FCF743
:104C580073FE0F4BD3F804210D4BD3F82831DB43F7
:104C680003F4807319461046FCF774FE084A0A4B91
:104C7800C2F80431064B93F83D31002B0ED0044A9C
:104C88004FF40043C2F828310CE000BF00000020B8
:104C9800300600209853002000100048C64A002320
:104CA800C2F82831C44BD3F80421C34BD3F82831B8
:104CB80019461046FCF740FEBF4BD3F80421BE4B03
:104CC800D3F82831DB4303F4004319461046FCF7B8
:104CD80041FEB94AB94BC2F80431B74B93F83931A0
:104CE800002B05D0B44A4FF48053C2F8283103E0B2
:104CF800B14A0023C2F82831AF4BD3F80421AE4B98
:104D0800D3F8283119461046FCF716FEAA4BD3F8FB
:104D18000421A94BD3F82831DB4303F48053194607
:104D28001046FCF717FEA44AA54BC2F80431A24B63
:104D380093F83731002B05D09F4A4FF48053C2F8BF
:104D4800283103E09C4A0023C2F828319A4BD3F853
:104D58000421994BD3F8283119461046FCF7ECFD8D
:104D6800954BD3F80421944BD3F82831DB4303F453
:104D7800805319461046FCF7EDFD8F4A8F4BC2F859
:104D880004318D4B93F83E31002B05D08A4A4FF4FD
:104D98000053C2F8283103E0874A0023C2F82831BB
:104DA800854BD3F80421844BD3F828311946104693
:104DB800FCF7C2FD804BD3F804217F4BD3F8283190
:104DC800DB4303F4005319461046FCF7C3FD7A4A47
:104DD8007A4BC2F80431784B93F83C31002B05D05C
:104DE800754A4FF40063C2F8283103E0724A002381
:104DF800C2F82831704BD3F804216F4BD3F828310F
:104E080019461046FCF798FD6B4BD3F804216A4B02
:104E1800D3F82831DB4303F4006319461046FCF746
:104E280099FD654A0023C2F8283119E0624BD3F88E
:104E38002821644B33F812205F4BD3F828411046E1
:104E4800FBF700FB5C4A04F11803DB001344C3E9D9
:104E58000001594BD3F828315A1C574BC3F8282165
:104E6800554BD3F82831072BE0DD534B93ED307BBE
:104E780055495648B0EE470AF0EE670AFCF7F2FDCE
:104E88004D4B93ED327B52495248B0EE470AF0EE53
:104E9800670AFDF717FB484B03F50C53303393EDC6
:104EA800007B4D494D48B0EE470AF0EE670AFDF722
:104EB800ABFD414B93ED347B49494A48B0EE470A74
:104EC800F0EE670AFCF7CEFD3B4B93ED367B464987
:104ED8004648B0EE470AF0EE670AFCF7C3FD364BCA
:104EE80093ED387B42494348B0EE470AF0EE670A33
:104EF800FCF7B8FD304B93ED3A7B3F493F48B0EEA5
:104F0800470AF0EE670AFCF7ADFD2B4B93ED3C7BAF
:104F18003B493C48B0EE470AF0EE670AFDF7D2FA83
:104F2800254B03F5B353083393ED007B36493748D7
:104F3800B0EE470AF0EE670AFDF766FD1E4B93EDEB
:104F48003E7B33493348B0EE470AF0EE670AFCF778
:104F580089FD194B03F5175393ED007BB0EE470A13
:104F6800F0EE670A0BF0A4FEB0EE407AF0EE607A3D
:104F7800114B83ED447B104B93ED447BB0EE470A15
:104F8800F0EE670A01F08AFF0346002B0BD10A4BAB
:104F980093ED447BB0EE470AF0EE670A01F05AFF42
:104FA8000346002B38D004494FF000024FF00003AD
:104FB800C1E9442342E000BF300600200010004849
:104FC80000040048A053002050520020B02A0020BE
:104FD8007850002020290020284E0020E0260020BC
:104FE800E04C002098250020504A0020082300208B
:104FF800C04700207820002030450020E81D002010
:1050080058430020581C002008410020181A00208E
:10501800C03F0020D0180020BB4B93ED447B9FED90
:10502800B81BB0EE470AF0EE670A0BF0C5FEB0EE0B
:10503800407AF0EE607AB44B83ED447BB24BD3E90F
:1050480044014FF000024FF00003FBF7E7FC034672
:10505800002B0ED0AC4BD3E94423904683F0004993
:1050680040464946FBF718FD03469BB25B429BB29C
:1050780008E0A54BD3E9442310461946FBF70CFD7D
:1050880003469BB2A14A13809F4B03F50653203376
:1050980093ED007BB0EE470AF0EE670A0BF008FECE
:1050A800B0EE407AF0EE607A974B83ED447B964BF6
:1050B80093ED447BB0EE470AF0EE670A01F0EEFE8E
:1050C8000346002B0BD1904B93ED447BB0EE470A7F
:1050D800F0EE670A01F0BEFE0346002B07D08A49AE
:1050E8004FF000024FF00003C1E9442311E0864B62
:1050F80093ED447B9FED821BB0EE470AF0EE670A02
:105108000BF05AFEB0EE407AF0EE607A7E4B83EDFB
:10511800447B7D4BD3E944014FF000024FF000037C
:10512800FBF77CFC0346002B0ED0774BD3E94423D6
:10513800924683F0004B50465946FBF7ADFC0346B8
:105148009BB25B429BB208E06F4BD3E94423104605
:105158001946FBF7A1FC03469BB26C4A53806A4B85
:1051680003F50253283393ED007BB0EE470AF0EEC7
:10517800670A0BF09DFDB0EE407AF0EE607A624B64
:1051880083ED447B604B93ED447BB0EE470AF0EE31
:10519800670A01F083FE0346002B0BD15A4B93EDAF
:1051A800447BB0EE470AF0EE670A01F053FE03466F
:1051B800002B07D054494FF000024FF00003C1E91B
:1051C800442311E0504B93ED447B9FED4D1BB0EE13
:1051D800470AF0EE670A0BF0EFFDB0EE407AF0EE0A
:1051E800607A494B83ED447B474BD3E944014FF048
:1051F80000024FF00003FBF711FC0346002B11D00F
:10520800414BD3E94423C7F8A82083F00043C7F8EB
:10521800AC30D7E92A01FBF73FFC03469BB25B425F
:105228009BB208E0384BD3E9442310461946FBF7F4
:1052380033FC03469BB2354A9380334B03F5F05356
:10524800183393ED007BB0EE470AF0EE670A0BF0D7
:105258002FFDB0EE407AF0EE607A2B4B83ED447B65
:10526800294B93ED447BB0EE470AF0EE670A01F054
:1052780015FE0346002B0BD1234B93ED447BB0EE78
:10528800470AF0EE670A01F0E5FD0346002B07D058
:105298001D494FF000024FF00003C1E9442311E01B
:1052A800194B93ED447B9FED161BB0EE470AF0EEC9
:1052B800670A0BF081FDB0EE407AF0EE607A124B8F
:1052C80083ED447B104BD3E944014FF000024FF0CB
:1052D8000003FBF7A3FB0346002B19D00A4BD3E9C5
:1052E8004423C7F8A02083F00043C7F8A430D7E9C7
:1052F8002801FBF7D1FB03469BB25B429BB210E04F
:10530800000000000000F040300600201C030020D0
:10531800C54BD3E9442310461946FBF7BDFB0346AA
:105328009BB2C24AD380C04B03F5DC53083393EDDC
:10533800007BB0EE470AF0EE670A0BF0B9FCB0EE5E
:10534800407AF0EE607AB84B83ED447BB64B93ED30
:10535800447BB0EE470AF0EE670A01F09FFD034672
:10536800002B0BD1B04B93ED447BB0EE470AF0EE27
:10537800670A01F06FFD0346002B07D0AA494FF0DA
:1053880000024FF00003C1E9442311E0A64B93ED5E
:10539800447B9FEDA31BB0EE470AF0EE670A0BF0C3
:1053A8000BFDB0EE407AF0EE607A9F4B83ED447BC4
:1053B8009D4BD3E944014FF000024FF00003FBF787
:1053C8002DFB0346002B11D0974BD3E94423C7F894
:1053D800982083F00043C7F89C30D7E92601FBF7F3
:1053E8005BFB03469BB25B429BB208E08E4BD3E962
:1053F800442310461946FBF74FFB03469BB28B4AE2
:105408001381894B03F5C753183393ED007BB0EE36
:10541800470AF0EE670A0BF04BFCB0EE407AF0EE6C
:10542800607A814B83ED447B7F4B93ED447BB0EEF8
:10543800470AF0EE670A01F031FD0346002B0BD155
:10544800794B93ED447BB0EE470AF0EE670A01F022
:1054580001FD0346002B07D073494FF000024FF0BF
:105468000003C1E9442311E06F4B93ED447B9FEDAA
:105478006C1BB0EE470AF0EE670A0BF09DFCB0EE2D
:10548800407AF0EE607A684B83ED447B664BD3E953
:1054980044014FF000024FF00003FBF7BFFA034648
:1054A800002B11D0604BD3E94423C7F8902083F038
:1054B8000043C7F89430D7E92401FBF7EDFA034617
:1054C8009BB25B429BB208E0574BD3E9442310469A
:1054D8001946FBF7E1FA03469BB2544A5381524BF3
:1054E80003F5A653183393ED007BB0EE470AF0EEB0
:1054F800670A0BF0DDFBB0EE407AF0EE607A4A4BBB
:1055080083ED447B484B93ED447BB0EE470AF0EEC5
:10551800670A01F0C3FC0346002B0BD1424B93ED05
:10552800447BB0EE470AF0EE670A01F093FC0346AD
:10553800002B07D03C494FF000024FF00003C1E9AF
:10554800442311E0384B93ED447B9FED351BB0EEBF
:10555800470AF0EE670A0BF02FFCB0EE407AF0EE47
:10556800607A314B83ED447B2F4BD3E944014FF0F4
:1055780000024FF00003FBF751FA0346002B11D04D
:10558800294BD3E94423C7F8882083F00043C7F8A0
:105598008C30D7E92201FBF77FFA03469BB25B42C6
:1055A8009BB208E0204BD3E9442310461946FBF789
:1055B80073FA03469BB21D4A93811B4B03F59F5315
:1055C80093ED007BB0EE470AF0EE670A0BF070FB34
:1055D800B0EE407AF0EE607A134B83ED447B124BC9
:1055E80093ED447BB0EE470AF0EE670A01F056FCF3
:1055F8000346002B0BD10C4B93ED447BB0EE470ACE
:10560800F0EE670A01F026FC0346002B10D006498D
:105618004FF000024FF00003C1E944231AE000BF35
:10562800000000000000F040300600201C030020AD
:10563800B14B93ED447B9FEDAE1BB0EE470AF0EE05
:10564800670A0BF0B9FBB0EE407AF0EE607AAA4B2D
:1056580083ED447BA84BD3E944014FF000024FF09F
:105668000003FBF7DBF90346002B11D0A24BD3E96B
:105678004423C7F8802083F00043C7F88430D7E973
:105688002001FBF709FA03469BB25B429BB208E094
:10569800994BD3E9442310461946FBF7FDF9034615
:1056A8009BB2964AD381964B93ED387BB0EE470A6E
:1056B800F0EE670A0BF0FCFAB0EE407AF0EE607A92
:1056C8008D4B83ED447B8C4B93ED447BB0EE470AC6
:1056D800F0EE670A01F0E2FB0346002B0BD1864B84
:1056E80093ED447BB0EE470AF0EE670A01F0B2FB97
:1056F8000346002B07D080494FF000024FF000030B
:10570800C1E9442311E07C4B93ED447B9FED781B6A
:10571800B0EE470AF0EE670A0BF04EFBB0EE407AA7
:10572800F0EE607A744B83ED447B734BD3E944010C
:105738004FF000024FF00003FBF770F90346002B0F
:105748000FD06D4BD3E94423BA6783F00043FB675E
:10575800D7E91E01FBF7A0F903469BB25B429BB257
:1057680008E0654BD3E9442310461946FBF794F942
:1057780003469BB2614A13825F4B93ED307B6149CC
:105788006148B0EE470AF0EE670AFCF705FC5A4B91
:1057980093ED327B5D495E48B0EE470AF0EE670A4A
:1057A800FCF7FAFB544B93ED347B5A495A48B0EE58
:1057B800470AF0EE670AFCF7EFFB4F4B93ED367B99
:1057C80056495748B0EE470AF0EE670AFCF7E4FB83
:1057D800494B93ED387B53495348B0EE470AF0EEF6
:1057E800670AFCF7D9FB444B93ED3A7B4F49504885
:1057F800B0EE470AF0EE670AFCF7CEFB3E4B93ED9E
:105808003C7B4C494C48B0EE470AF0EE670AFCF77F
:10581800C3FB394B93ED3E7B48494948B0EE470AF4
:10582800F0EE670AFCF7B8FB334B03F51153383336
:1058380093ED007BB0EE470AF0EE670A0BF038FAFA
:10584800B0EE407AF0EE607A2B4B83ED447B2A4B26
:1058580093ED447BB0EE470AF0EE670A01F01EFBB9
:105868000346002B0BD1244B93ED447BB0EE470A43
:10587800F0EE670A01F0EEFA0346002B07D01E4946
:105888004FF000024FF00003C1E9442311E01A4B26
:1058980093ED447B9FED161BB0EE470AF0EE670AC6
:1058A8000BF08AFAB0EE407AF0EE607A124B83ED94
:1058B800447B114BD3E944014FF000024FF0000341
:1058C800FBF7ACF80346002B3CD00B4BD3E9442341
:1058D8003A6783F000437B67D7E91C01FBF7DCF8E4
:1058E80003469BB25B429BB235E000BFAFF300803A
:1058F800000000000000F040300600201C030020DB
:10590800000000200851002068290020304F0020A6
:10591800D8270020984B0020502400200849002058
:10592800C021002078460020301F0020E8430020D6
:10593800A01C002010420020101B0020783E0020F0
:1059480088170020C24BD3E9442310461946FBF7B9
:10595800A3F803469BB2BF4A1380BD4B03F50B5314
:10596800283393ED007BB0EE470AF0EE670A0BF0A0
:105978009FF9B0EE407AF0EE607AB54B83ED447B48
:10598800B34B93ED447BB0EE470AF0EE670A01F0A3
:1059980085FA0346002B0BD1AD4B93ED447BB0EE5B
:1059A800470AF0EE670A01F055FA0346002B07D0C4
:1059B800A7494FF000024FF00003C1E9442311E06A
:1059C800A34B93ED447B9FEDA01BB0EE470AF0EE8E
:1059D800670A0BF0F1F9B0EE407AF0EE607A9C4B72
:1059E80083ED447B9A4BD3E944014FF000024FF01A
:1059F8000003FBF713F80346002B0FD0944BD3E9B1
:105A08004423BA6683F00043FB66D7E91A01FBF723
:105A180043F803469BB25B429BB208E08C4BD3E948
:105A2800442310461946FBF737F803469BB2894AC8
:105A38005380874B03F5FB5393ED007BB0EE470A89
:105A4800F0EE670A0BF034F9B0EE407AF0EE607AC7
:105A58007F4B83ED447B7E4B93ED447BB0EE470A4E
:105A6800F0EE670A01F01AFA0346002B0BD1784BC7
:105A780093ED447BB0EE470AF0EE670A01F0EAF9CD
:105A88000346002B07D072494FF000024FF0000385
:105A9800C1E9442311E06E4B93ED447B9FED6A1BF3
:105AA800B0EE470AF0EE670A0BF086F9B0EE407ADE
:105AB800F0EE607A664B83ED447B654BD3E9440195
:105AC8004FF000024FF00003FAF7A8FF0346002B3F
