:020000040800F2
:100000000080012069C00008A74D0008B34D00081A
:10001000BB4D0008C34D0008CB4D00080000000098
:100020000000000000000000000000001543000870
:10003000D34D000800000000D14200080142000832
:10004000B9C00008B9C00008B9C00008B9C00008AC
:10005000B9C00008B9C00008B9C00008B9C000089C
:10006000B9C00008B9C00008B9C00008E14D0008D7
:10007000B9C00008B9C00008F54D0008094E0008D5
:10008000B9C00008B9C000081D4E0008B9C000087A
:10009000B9C00008B9C00008B9C00008B9C000085C
:1000A000B9C00008B9C00008B9C00008B9C000084C
:1000B000314E0008B9C00008454E0008B9C000081C
:1000C000B9C00008B9C00008B9C00008B9C000082C
:1000D000B9C00008B9C00008B9C00008B9C000081C
:1000E000B9C00008B9C00008B9C00008B9C000080C
:1000F000B9C00008B9C00008B9C00008B9C00008FC
:10010000B9C00008B9C00008594E0008B9C00008BD
:10011000B9C00008B9C000086D4E0008B9C0000899
:10012000B9C00008B9C00008B9C00008B9C00008CB
:10013000B9C00008B9C00008B9C00008B9C00008BB
:10014000B9C00008B9C00008B9C00008B9C00008AB
:10015000894E00089D4E0008B9C00008B9C00008CB
:10016000B9C00008B9C00008B9C00008B9C000088B
:10017000B9C00008B9C00008B9C0000800000000FC
:08018000B9C00008B9C0000875
:1001C00081F0004102E000BF83F0004330B54FEA08
:1001D00041044FEA430594EA050F08BF90EA020F75
:1001E0001FBF54EA000C55EA020C7FEA645C7FEA08
:1001F000655C00F0E2804FEA5454D4EB5555B8BF2B
:100200006D420CDD2C4480EA020281EA030382EA9B
:10021000000083EA010180EA020281EA0303362D2D
:1002200088BF30BD11F0004F4FEA01314FF4801C00
:100230004CEA113102D0404261EB410113F0004F12
:100240004FEA03334CEA133302D0524263EB4303C9
:1002500094EA050F00F0A780A4F10104D5F1200E67
:100260000DDB02FA0EFC22FA05F2801841F10001C2
:1002700003FA0EF2801843FA05F359410EE0A5F196
:1002800020050EF1200E012A03FA0EFC28BF4CF0C7
:10029000020C43FA05F3C01851EBE37101F000457D
:1002A00007D54FF0000EDCF1000C7EEB00006EEB8A
:1002B0000101B1F5801F1BD3B1F5001F0CD3490814
:1002C0005FEA30004FEA3C0C04F101044FEA44526B
:1002D00012F5800F80F09A80BCF1004F08BF5FEAF2
:1002E000500C50F1000041EB045141EA050130BDD2
:1002F0005FEA4C0C404141EB0101013C28BFB1F5E4
:10030000801FE9D291F0000F04BF01460020B1FA2E
:1003100081F308BF2033A3F10B03B3F120020CDA01
:100320000C3208DD02F1140CC2F10C0201FA0CF0DF
:1003300021FA02F10CE002F11402D8BFC2F1200C44
:1003400001FA02F120FA0CFCDCBF41EA0C019040FA
:10035000E41AA2BF01EB0451294330BD6FEA040443
:100360001F3C1CDA0C340EDC04F11404C4F120022E
:1003700020FA04F001FA02F340EA030021FA04F340
:1003800045EA030130BDC4F10C04C4F1200220FA97
:1003900002F001FA04F340EA0300294630BD21FAD5
:1003A00004F0294630BD94F0000F83F4801306BF9B
:1003B00081F480110134013D4EE77FEA645C18BF8F
:1003C0007FEA655C29D094EA050F08BF90EA020F26
:1003D00005D054EA000C04BF1946104630BD91EA1E
:1003E000030F1EBF0021002030BD5FEA545C05D121
:1003F0004000494128BF41F0004130BD14F5800460
:100400003CBF01F5801130BD01F0004545F0FE41D3
:1004100041F470014FF0000030BD7FEA645C1ABF08
:10042000194610467FEA655C1CBF0B46024650EA3F
:10043000013406BF52EA033591EA030F41F400216B
:1004400030BD00BF90F0000F04BF0021704730B5F1
:100450004FF4806404F132044FF000054FF00001C6
:1004600050E700BF90F0000F04BF0021704730B587
:100470004FF4806404F1320410F0004548BF40425C
:100480004FF000013EE700BF42004FEAE2014FEAB1
:1004900031014FEA02701FBF12F07F4393F07F4F8C
:1004A00081F06051704732F07F4208BF704793F08F
:1004B0007F4F04BF41F40021704730B54FF46074A2
:1004C00001F0004521F000411CE700BF50EA0102A5
:1004D00008BF704730B54FF000050AE050EA01024E
:1004E00008BF704730B511F0004502D5404261EBBE
:1004F00041014FF4806404F132045FEA915C3FF4FF
:10050000D8AE4FF003025FEADC0C18BF03325FEA9B
:10051000DC0C18BF033202EBDC02C2F1200300FA4C
:1005200003FC20FA02F001FA03FE40EA0E0021FA71
:1005300002F11444BDE600BF70B54FF0FF0C4CF45F
:10054000E06C1CEA11541DBF1CEA135594EA0C0F11
:1005500095EA0C0F00F0DEF82C4481EA030621EA4C
:100560004C5123EA4C5350EA013518BF52EA033587
:1005700041F4801143F4801338D0A0FB02CE4FF039
:100580000005E1FB02E506F00042E0FB03E54FF069
:100590000006E1FB03569CF0000F18BF4EF0010E61
:1005A000A4F1FF04B6F5007F64F5407404D25FEA5D
:1005B0004E0E6D4146EB060642EAC62141EA555110
:1005C0004FEAC52040EA5E504FEACE2EB4F1FD0C52
:1005D00088BFBCF5E06F1ED8BEF1004F08BF5FEAD0
:1005E000500E50F1000041EB045170BD06F0004682
:1005F00046EA010140EA020081EA0301B4EB5C042F
:10060000C2BFD4EB0C0541EA045170BD41F4801126
:100610004FF0000E013C00F3AB8014F1360FDEBF4B
:10062000002001F0004170BDC4F10004203C35DA27
:100630000C341BDC04F11404C4F1200500FA05F3AA
:1006400020FA04F001FA05F240EA020001F000424B
:1006500021F0004110EBD37021FA04F642EB0601C1
:100660005EEA430E08BF20EAD37070BDC4F10C04EB
:10067000C4F1200500FA04F320FA05F001FA04F2AF
:1006800040EA020001F0004110EBD37041F100019B
:100690005EEA430E08BF20EAD37070BDC4F12005A6
:1006A00000FA05F24EEA020E20FA04F301FA05F20E
:1006B00043EA020321FA04F001F0004121FA04F2B6
:1006C00020EA020000EBD3705EEA430E08BF20EA86
:1006D000D37070BD94F0000F0FD101F000464000C0
:1006E00041EB010111F4801F08BF013CF7D041EA42
:1006F000060195F0000F18BF704703F00046520046
:1007000043EB030313F4801F08BF013DF7D043EA16
:100710000603704794EA0C0F0CEA135518BF95EACC
:100720000C0F0CD050EA410618BF52EA4306D1D153
:1007300081EA030101F000414FF0000070BD50EA72
:10074000410606BF1046194652EA430619D094EAFC
:100750000C0F02D150EA013613D195EA0C0F05D1E6
:1007600052EA03361CBF104619460AD181EA03013A
:1007700001F0004141F0FE4141F470014FF00000F2
:1007800070BD41F0FE4141F4780170BD70B54FF08D
:10079000FF0C4CF4E06C1CEA11541DBF1CEA13550D
:1007A00094EA0C0F95EA0C0F00F0A7F8A4EB0504EF
:1007B00081EA030E52EA03354FEA013100F08880E6
:1007C0004FEA03334FF0805545EA131343EA1263AF
:1007D0004FEA022245EA111545EA10654FEA002664
:1007E0000EF000419D4208BF964244F1FD0404F51D
:1007F000407402D25B084FEA3202B61A65EB030579
:100800005B084FEA32024FF480104FF4002CB6EB35
:10081000020E75EB030E22BFB61A754640EA0C00B5
:100820005B084FEA3202B6EB020E75EB030E22BFF5
:10083000B61A754640EA5C005B084FEA3202B6EB36
:10084000020E75EB030E22BFB61A754640EA9C00F5
:100850005B084FEA3202B6EB020E75EB030E22BFC5
:10086000B61A754640EADC0055EA060E18D04FEA83
:10087000051545EA16754FEA06164FEAC30343EA23
:1008800052734FEAC2025FEA1C1CC0D111F4801FF0
:100890000BD141EA00014FF000004FF0004CB6E7E9
:1008A00011F4801F04BF01430020B4F1FD0C88BF88
:1008B000BCF5E06F3FF6AFAEB5EB030C04BFB6EB93
:1008C000020C5FEA500C50F1000041EB045170BD86
:1008D0000EF0004E4EEA113114EB5C04C2BFD4EBB3
:1008E0000C0541EA045170BD41F480114FF0000E37
:1008F000013C90E645EA060E8DE60CEA135594EAB3
:100900000C0F08BF95EA0C0F3FF43BAF94EA0C0FB5
:100910000AD150EA01347FF434AF95EA0C0F7FF42A
:1009200025AF104619462CE795EA0C0F06D152EA7E
:1009300003353FF4FDAE1046194622E750EA410662
:1009400018BF52EA43067FF4C5AE50EA41047FF473
:100950000DAF52EA43057FF4EBAE12E74FF0FF3CD8
:1009600006E000BF4FF0010C02E000BF4FF0010CA9
:100970004DF804CD4FEA410C7FEA6C5C4FEA430C22
:1009800018BF7FEA6C5C1BD001B050EA410C0CBF71
:1009900052EA430C91EA030F02BF90EA020F0020D3
:1009A000704710F1000F91EA030F58BF994208BF3A
:1009B00090422CBFD8176FEAE37040F001007047F7
:1009C0004FEA410C7FEA6C5C02D150EA013C07D14E
:1009D0004FEA430C7FEA6C5CD6D152EA033CD3D099
:1009E0005DF8040B704700BF8446104662468C4693
:1009F0001946634600E000BF01B5FFF7B7FF0028C6
:100A000048BF10F1000F01BD4DF808EDFFF7F4FFEE
:100A10000CBF012000205DF808FB00BF4DF808ED79
:100A2000FFF7EAFF34BF012000205DF808FB00BF9C
:100A30004DF808EDFFF7E0FF94BF012000205DF8BE
:100A400008FB00BF4DF808EDFFF7CEFF94BF012073
:100A500000205DF808FB00BF4DF808EDFFF7C4FF6C
:100A600034BF012000205DF808FB00BF4FEA410CB5
:100A70007FEA6C5C02D150EA013C0AD14FEA430C98
:100A80007FEA6C5C02D152EA033C02D14FF00000D5
:100A900070474FF0010070474A0011D212F5001262
:100AA00011D20DD56FF47873B3EB62520ED44FEAC6
:100AB000C12343F0004343EA505323FA02F0704746
:100AC0004FF00000704750EA013002D14FF0FF3084
:100AD00070474FF00000704753B94AB9002908BF6A
:100AE00000281CBF4FF0FF314FF0FF3000F00CB872
:100AF000ADF1080C6DE904CE0BF048FDDDF804E023
:100B0000DDE9022304B07047704700BF844641EA24
:100B1000000313F003036DD1403A41D351F8043B75
:100B200040F8043B51F8043B40F8043B51F8043BC7
:100B300040F8043B51F8043B40F8043B51F8043BB7
:100B400040F8043B51F8043B40F8043B51F8043BA7
:100B500040F8043B51F8043B40F8043B51F8043B97
:100B600040F8043B51F8043B40F8043B51F8043B87
:100B700040F8043B51F8043B40F8043B51F8043B77
:100B800040F8043B51F8043B40F8043B51F8043B67
:100B900040F8043B51F8043B40F8043B403ABDD2D6
:100BA000303211D351F8043B40F8043B51F8043B78
:100BB00040F8043B51F8043B40F8043B51F8043B37
:100BC00040F8043B103AEDD20C3205D351F8043B07
:100BD00040F8043B043AF9D2043208D0D2071CBFD3
:100BE00011F8013B00F8013B01D30B8803806046FC
:100BF000704700BF082A13D38B078DD010F0030372
:100C00008AD0C3F10403D21ADB071CBF11F8013BE1
:100C100000F8013B80D331F8023B20F8023B7BE730
:100C2000043AD9D3013A11F8013B00F8013BF9D25B
:100C30000B7803704B7843708B78837060467047F5
:100C400030B490F800F020F007016FF0000C10F0C5
:100C5000070491F820F040F048804FF000046FF056
:100C60000700D1E9002391F840F000F1080082FA72
:100C70004CF2A4FA8CF283FA4CF3A2FA8CF34BBB3D
:100C8000D1E9022382FA4CF200F10800A4FA8CF2B6
:100C900083FA4CF3A2FA8CF3E3B9D1E9042382FA84
:100CA0004CF200F10800A4FA8CF283FA4CF3A2FA99
:100CB0008CF37BB9D1E9062301F1200182FA4CF2D1
:100CC00000F10800A4FA8CF283FA4CF3A2FA8CF338
:100CD000002BC6D0002A04BF04301A4612BAB2FA5A
:100CE00082F200EBD20030BC7047D1E9002304F05F
:100CF0000305C4F100004FEAC50514F0040F91F894
:100D000040F00CFA05F562EA05021CBF63EA050330
:100D100062464FF00004AAE7000000000000000057
:100D200001F0FF01102A2BDB10F0070F08D010F89C
:100D3000013B013A8B422DD010F0070F42B3F6D1A0
:100D4000F0B441EA012141EA014122F007047FF0B9
:100D500000070023F0E80256083C85EA010586EA10
:100D6000010685FA47F5A3FA87F586FA47F6A5FA4C
:100D700087F68EB9EED1F0BC01F0FF0102F0070258
:100D800032B110F8013B013A83EA010313B1F8D103
:100D90000020704701387047002D06BF35460338E4
:100DA000073815F0010F07D1013015F4807F02BF1D
:100DB000013015F4C03F0130F0BC0138704700BF6E
:100DC0004FEA410212F5001215D211D56FF4787373
:100DD000B3EB625212D94FEAC12343F0004343EA16
:100DE000505311F0004F23FA02F018BF40427047F1
:100DF0004FF00000704750EA013005D111F000407B
:100E000008BF6FF0004070474FF00000704700BF10
:100E10000348044B834202D0034B03B11847704789
:100E2000E40A0020E40A0020000000000548064B08
:100E30001B1AD90F01EBA301491002D0034B03B1D8
:100E400018477047E40A0020E40A00200000000070
:100E500010B5064C237843B9FFF7DAFF044B13B102
:100E60000448AFF300800123237010BDE80A00207E
:100E700000000000D02B010808B5054B1BB1054947
:100E80000548AFF30080BDE80840FFF7CFBF00BFC3
:100E900000000000EC0A0020D02B010880B489B0CB
:100EA00000AFF860B9607A60FB68BB610023FB614A
:100EB000BB689B087B611B4B1B68B3F5C87F2AD0BE
:100EC0000023FB6122E0174B1B6817497A6841F841
:100ED0002320FB699B00BA691A44124B1B681268F5
:100EE000114903F5C87341F823200E4B1B680F4AC4
:100EF00012680D4903F5487341F82320094B1B681C
:100F00000133084A1360FB690133FB61FA697B69AD
:100F10009A42D8D300E000BF2437BD465DF8047B79
:100F2000704700BF040B00200C0B0020080B0020B2
:100F300080B584B000AF786072B600BF03F0D2F81D
:100F40000346FB6007F10C037A6804211846FFF79B
:100F5000A5FF62B600BF00BF1037BD4680BD0000D0
:100F600080B500AF124B1B785A1CD1B2104A1170D9
:100F7000002B09D00F4B01221A600D4B1B78013B4F
:100F8000DAB20B4B1A7011E062B600BF02200BF010
:100F90009FF800F035FA02200BF0A5F872B600BFFA
:100FA000034B1B78013BDAB2014B1A7080BD00BFC6
:100FB000D01D0020CC1D002080B584B000AF78602B
:100FC00039603E4BFB603E4BBB603E4B00221A70CB
:100FD0003D4B00221A7001DF07F056FA03F0C6F904
:100FE00003F078F803F0EEFD03F0A2FD03F0E8FB58
:100FF00003F0D2FA03F066FC03F06AFD03F00CFB89
:1010000003F0E2FC03F02EFD03F002FA2F4B1B6805
:1010100000221A6001200BF05BF800F0B5FC012003
:101020000BF061F872B600BF97ED030A03F0F8F811
:10103000264B1B681B68002B07D1244B1B6893F8B9
:10104000C931002B01D1012300E00023DAB21E4B8D
:101050001A7062B600BF62B600BF1BE01B4B1B6874
:101060001B68002B05D1194B1B6893F8C931002B65
:1010700001D0012300E00023DAB2124B1A70114BA9
:101080001B78DBB2002B05D0114B1B68104A23F0F4
:10109000010313600C4B1B78DBB2002BDED1032065
:1010A0000BF016F800F028FE03200BF01CF872B6C7
:1010B00000BF002318461037BD4680BD0AD7233C29
:1010C0000000A042D11D0020D21D00202C2C0108C0
:1010D00010E000E02DE9F04399B000AF78607B6844
:1010E000DB6F1B68D3E90023C7E914237B68D3E9CE
:1010F0000623C7E912237B681B6AD3E90023C7E9EB
:1011000010237B68D3F884301B68FB637B689B6883
:10111000BB63BB6B1B687B63BB6B5B683B63BB6B7D
:101120009B68FB62BB6BDB68BB6203237B627B68F3
:101130005B6800221A707B6ADB001A46F96B786BD9
:10114000FFF7E4FC7B689B6F3A6B1A6000F0F6FBDC
:10115000A84BD3E90001D7E91023FFF7EDF90246C8
:101160000B46C7E902230023FB6524E0FB6DDB008F
:101170007A6B1344D3E90045FB6DDB003A6B1344F3
:10118000D3E90001D7E90223FFF7D6F902460B465F
:1011900010461946FB6DDB00FA6BD61802460B466B
:1011A00020462946FFF712F802460B46C6E90023FF
:1011B000FB6D0133FB65FA6D7B6A9A42D6DB8E4B81
:1011C000D3E90001D7E91023FFF7B6F902460B4631
:1011D000104619467B68DB6F1C68D7E91423FEF7BD
:1011E000F5FF02460B46C4E900237B689B6FFA6A51
:1011F0001A6000F005F900F0A1FB0023FB6516E082
:101200007C4AFB6D0333DB001344D3E90001D7E9CB
:101210001023FFF791F902460B46F96DC9006031C2
:1012200039445839C1E90023FB6D0133FB65FB6D7F
:10123000012BE5DD0023FB6538E0FB6DDB007A6BFD
:101240001344D3E90045FB6DDB003A6B1344D3E94B
:101250000001D7E90223FFF76FF902460B469046DB
:101260009946FB6DDB00FA6A1344D3E90001D7E924
:101270000423FFF761F902460B4640464946FEF754
:10128000A5FF02460B4610461946FB6DDB00FA6BC4
:10129000D61802460B4620462946FEF797FF02461F
:1012A0000B46C6E90023FB6D0133FB65FA6D7B6AD3
:1012B0009A42C2DB504BD3E90201D7E91023FFF772
:1012C0003BF902460B46104619467B68DB6F1C68EB
:1012D000D7E91423FEF77AFF02460B46C4E9002340
:1012E0007B689B6FBA6A1A6000F08AF800F026FBF0
:1012F0000023FB6516E03F4AFB6D0633DB00134419
:10130000D3E90001D7E91023FFF716F902460B468F
:10131000F96DC900603139445839C1E90023FB6DCA
:101320000133FB65FB6D022BE5DD0023FB654CE023
:10133000FB6DDB007A6B1344D3E90045FB6DDB00EA
:101340003A6B1344D3E90001D7E90223FFF7F4F81D
:1013500002460B4690469946FB6DDB00FA6A134441
:10136000D3E90001D7E90423FFF7E6F802460B466C
:1013700040464946FEF72AFF02460B4690469946EC
:10138000FB6DDB00BA6A1344D3E90001D7E90623F9
:10139000FFF7D2F802460B4640464946FEF716FFD5
:1013A00002460B4610461946FB6DDB00FA6BD61859
:1013B00002460B4620462946FEF708FF02460B462A
:1013C000C6E90023FB6D0133FB65FA6D7B6A9A4227
:1013D000AEDB7B68DB6F1968D7E91223C1E9002314
:1013E0007B685B6801221A7000BF6437BD46BDE8A8
:1013F000F08300BF302C0108782C010800000000A9
:10140000F0B5ADF5597D06AF8F4B93F8C831012B80
:1014100010D18D4BD3F8A83101331846FFF712F8DD
:10142000894BD3E96C23884CFFF786F802460B46BC
:10143000C4E90823844B93F8C831002B0AD1824BAE
:10144000D3F884301B68804AD2F8CC11D3E900234A
:10145000C1E900237D4BD3E902017D4BD3E9002391
:10146000FFF76AF802460B46C7E9CC23774BD3E96E
:101470000201774BD3E90223FFF75EF802460B46E1
:10148000C7E9CA23D7E9CA23D7E9CC01FEF79CFEF6
:1014900002460B46104619466C4BD3E90823FFF76A
:1014A0004BF802460B46C7E9C823684BD3E9000155
:1014B000D7E9C823FEF788FE02460B46C7E9CE23CC
:1014C000624BD3E90A23D7E9CE01FFF7C5FA0346F9
:1014D000002B05D05D4BD3E90A23C7E9CE230EE0EC
:1014E0005A4BD3E90C23D7E9CE01FFF797FA03460D
:1014F000002B04D0554BD3E90C23C7E9CE2397ED3D
:10150000CE0B0AF039FEB0EE407AF0EE607A9FED35
:101510004C1BB0EE470AF0EE670A0AF0F5FD87EDC6
:10152000C60B4FF000024FF00003D7E9C601FFF7EA
:1015300075FA0346002B11D0D7F818333B61D7F862
:101540001C3383F000437B61D7E90401FFF7A4FA61
:101550000346DBB25B42DBB25BB206E0D7E9C60111
:10156000FFF79AFA0346DBB25BB23A4A1370374B85
:10157000D3E90E23D7E9C801FEF728FE02460B4641
:10158000C7E9D023314BD3E91023D7E9D001FFF7C6
:1015900063FA0346002B05D02C4BD3E91023C7E98F
:1015A000D0230EE0294BD3E91223D7E9D001FFF76E
:1015B00035FA0346002B04D0244BD3E91223C7E9A4
:1015C000D023224BD3E91401D7E9D023FEF7B4FF8F
:1015D00002460B4643EC172BB0EE470AF0EE670AC3
:1015E0000AF0CAFDB0EE407AF0EE607A9FED141B6F
:1015F000B0EE470AF0EE670A0AF086FD87EDC60BEB
:101600004FF000024FF00003D7E9C601FFF706FADA
:101610000346002B20D0D7F81833BB60D7F81C3313
:1016200083F00043FB60D7E90201FFF735FA034678
:10163000DBB25B42DBB25BB215E000BFAFF3008010
:101640000000000000007040101E0020000000207C
:10165000F01D002010200020D7E9C601FFF71CFA7A
:101660000346DBB25BB2A34A1370A34BD3E902017A
:10167000A24BD3E90423FEF75FFF02460B46C7E9FE
:10168000C6239F4B93F8C831012B7ED107F58C7090
:101690009C4B9D4A4FF480710BF0C6F907F58C7393
:1016A0001222194699480BF09DFA07F58C70984B59
:1016B000954A4FF480710BF0B7F907F58C7312223D
:1016C000194694480BF08EFA07F58C70924B8E4AAF
:1016D0004FF480710BF0A8F907F58C7312221946AC
:1016E0008E480BF07FFA07F11800D7E9CA23CDE93D
:1016F0000423D7E9C623CDE90223D7E9CC23CDE9DA
:101700000023874A4FF480710BF08EF907F118031C
:1017100007F58C707C4A4FF480710BF085F907F562
:101720008C73122219467F480BF05CFAD7F84053AD
:10173000D7F8443323F00046D7F838333B60D7F866
:101740003C3323F000437B6007F5067097ED007B88
:101750008DED047BD7E9C823CDE90223CDE90056FE
:10176000714A4FF480710BF05FF907F5067307F5C6
:101770008C70654A4FF480710BF056F907F58C7345
:101780001222194669480BF02DFA5B4BD3E9182356
:1017900001210C46D7E9CC01FFF74AF90346002B9B
:1017A00001D100231C46E3B21A46614B1A70524B1A
:1017B000D3E9182301210C46D7E9C601FFF738F910
:1017C0000346002B01D100231C46E3B21A46584BB6
:1017D0005A70494BD3E9182301210C46D7E9CA01B5
:1017E000FFF726F90346002B01D100231C46E3B284
:1017F0001A464F4B9A70404B93EDDA7A4D4B1B686B
:1018000007EE903AF8EE677A67EE277A17EE900ABD
:10181000FEF73AFED7E9CC23FEF7D6FC02460B468C
:101820004549C1E90023344B93EDDA7A414B5B68BB
:1018300007EE903AF8EE677A67EE277A17EE900A8D
:10184000FEF722FED7E9C623FEF7BEFC02460B4692
:101850003949C1E90223284B93EDDA7A354B9B686D
:1018600007EE903AF8EE677A67EE277A17EE900A5D
:10187000FEF70AFED7E9CA23FEF7A6FC02460B468E
:101880002D49C1E904231E4B93F8C831012B0DD11A
:1018900001F050FD02F092FB02F0D4FB00F076FA6A
:1018A00002F05CFB01F016F800F004FD144B93F815
:1018B000C831012B18D1124B08331846FFF70AFC28
:1018C0000F4BD3F8A8210132C3F8A8210C4B0C4AC6
:1018D000D2F8CC11D3E90823C1E90023084BD3F88F
:1018E000B8210132C3F8B82100BF07F55377BD46D0
:1018F000F0BD00BF0F20002000000020F01D0020E0
:10190000101E002068000020E82B0108A003002022
:1019100068010020B403002068020020C8030020F2
:10192000F02B0108DC030020042C0108F003002048
:10193000182500201C240020D81D002080B483B06E
:1019400000AF0E4BD3F81C317B600D4BD3E9002365
:101950007968C1E900230A4BD3E904237968C1E916
:101960000223074BD3E902237968C1E9042300BFAE
:101970000C37BD465DF8047B704700BF101E002089
:10198000D81D00200000000080B59AB000AF4C4B7D
:101990004B4A03F5E473D360494B494A03F5E673B8
:1019A000C2F88430464B464A03F5D8739362444BE1
:1019B000434A03F58E73C2F88030414B404A03F529
:1019C0008873C2F88C303E4B3D4A03F5CC73C2F8A5
:1019D00088303B4B3A4A03F5CE73C2F89030384B0F
:1019E000374A03F58A73C2F89430354B344A03F50D
:1019F0008C73C2F89830324B314A03F59073C2F8B9
:101A000008312F4A2E4BC3F8D0202D4B2C4A9A6018
:101A10002B4BDB6801221A70294B002283F8FC2033
:101A2000274B002283F80C21254B254A03F594739C
:101A3000C2F88831224B224A03F5A073C2F88C31D8
:101A40001F4B1F4A03F5AC73C2F890311C4B1C4A64
:101A500003F5B873C2F89431194B1A4AC3F8102130
:101A6000174B194AC3F8202115494FF000024FF0D7
:101A70000003C1E97023124B114A03F5C4731361CB
:101A80000F4B124A5A610E4B0D4A03F5E873C2F828
:101A9000CC310B4908A3D3E90023C1E96C230C4BDB
:101AA00093F98E230B4B1A70094B93F98F230A4B32
:101AB0001A7000237B663CE07B14AE47E17A843FDA
:101AC000101E0020F01D0020081E0020182C010808
:101AD000000000200F20002010200020714B93F800
:101AE0009013714A7B6E13440A461A706D4B93F83B
:101AF00091136E4A7B6E13440A461A70694B93F831
:101B000092136B4A7B6E13440A461A70654B93F826
:101B10009313684A7B6E13440A461A70614B93F81C
:101B20009413654A7B6E13440A461A707B6E013328
:101B30007B667B6E112BD1DD5A4BB3F884235F4B50
:101B40001A80584BB3F886235D4B1A80554BB3F877
:101B500088235C4B1A80534BB3F88A235A4B1A8064
:101B6000504BB3F88C23594B1A804E4B93F8952366
:101B7000574B1A704B4BD3F86C33564A1360494B92
:101B8000D3F87033544A1360464B93F89523504B67
:101B90005A70444BD3F86C334E4A5360414BD3F8E0
:101BA00070334D4A53603F4B93F89523484B9A70DE
:101BB0003C4BD3F86C33474A93603A4BD3F87033BD
:101BC000454A9360374BD3F87433444A1360354B1E
:101BD00093F89623424B1A70324B93F89623404B5E
:101BE0005A70304BD3F878333E4A13602D4BB3F91B
:101BF00080233D4B1A802B4BB3F982233B4B1A8039
:101C0000284BD3F87C333A4A1360264BD3F8783309
:101C1000344A5360234BB3F98023334B5A80214B12
:101C2000B3F98223314B5A801E4BD3F87C33304AB0
:101C300053601C4BD3F878332A4A9360194BB3F99D
:101C40008023294B9A80174BB3F98223274B9A8024
:101C5000144BD3F87C33264A9360012001F0B6FB85
:101C600002F0A4F902F0CEF900F054F900F02CFED5
:101C700000F000FB02F064F90A4BD3E904231D498C
:101C8000C1E90023074BD3E906231A49C1E902231E
:101C9000044BD3E916231749C1E9042300BF683771
:101CA000BD4680BD00000020A0030020B40300203A
:101CB000C8030020DC030020F0030020FE240020E5
:101CC00000250020022500200425002006250020F4
:101CD00018250020F01F0020FC1F002008200020F5
:101CE000142500201C24002028240020302400205B
:101CF00038240020F01D002080B400AF00BFBD4696
:101D00005DF8047B704780B485B000AF0346FB806C
:101D1000B7F90630002B02DBFB88FB8101E0FB8872
:101D2000FB81B7F90E3018461437BD465DF8047BC9
:101D30007047000080B588B004AF03460A46FB71C7
:101D40001346BB71FB799BB25B009BB2013399B226
:101D5000BB799AB24FF0FF3302930223019307F14C
:101D60000C0300930123084808F052FB3B7B1BB295
:101D70001B021AB27B7B1BB213431BB29BB21846E9
:101D80001037BD4680BD00BFD425002080B500AF10
:101D90003B216920FFF7CEFF03461846FFF7B3FF4C
:101DA000034607EE903AF8EEE77A9FED517A67EE38
:101DB000876A504B93ED007AC6EE877A4E4BC3ED9F
:101DC000007A3D216920FFF7B5FF03461846FFF76B
:101DD0009AFF034607EE903AF8EEE77A9FED447AD1
:101DE00067EE876A434B93ED007AC6EE877A424BE3
:101DF000C3ED017A3F216920FFF79CFF0346184697
:101E0000FFF781FF034607EE903AF8EEE77A9FED81
:101E1000387A67EE876A374B93ED007AC6EE877A99
:101E2000354BC3ED027A43216920FFF783FF034658
:101E30001846FFF768FF034607EE903AF8EEE77A98
:101E40009FED2E7A67EE876A2D4B93ED007AC6EEF2
:101E5000877A2C4BC3ED007A45216920FFF76AFF92
:101E600003461846FFF74FFF034607EE903AF8EE99
:101E7000E77A9FED227A67EE876A214B93ED007A2D
:101E8000C6EE877A1F4BC3ED017A47216920FFF721
:101E900051FF03461846FFF736FF034607EE903A18
:101EA000F8EEE77A9FED157A67EE876A144B93EDAB
:101EB000007AC6EE877A134BC3ED027A412169207E
:101EC000FFF738FF03461BB207EE903AB8EEE77A09
:101ED000DFED0D6AC7EE267A9FED0C7A77EE877AF2
:101EE0000B4BC3ED007A00F069F800BF80BD00BF66
:101EF0000AE81C4198030020F01F002035FA8E3CB0
:101F00009C030020FC1F00200000AA43B81E1242C0
:101F10000820002080B586B004AF0023FB714FF08D
:101F2000FF33029301230193FB1D009301236B22D6
:101F3000D221204808F058F90723BB714FF0FF3336
:101F4000029301230193BB1D009301231922D22187
:101F5000184808F049F900237B714FF0FF330293D2
:101F6000012301937B1D009301231C22D2211148E0
:101F700008F03AF900233B714FF0FF33029301233D
:101F800001933B1D009301231B22D221094808F035
:101F90002BF94FF0FF33029301230193064B00937B
:101FA00001237522D321034808F032FA00BF083715
:101FB000BD4680BDD42500200C20002080B58CB00B
:101FC00004AF9C4B1B78FB719B4B1B78BB714FF094
:101FD0000003FB610023BB611DE0984ABB699B00C5
:101FE000134493ED007ADFED966AC7EE267AF0EEA1
:101FF000E77AC7ED027A97ED027AD7ED077AB4EE69
:10200000E77AF1EE10FA01DDBB6800E0FB69FB61E5
:10201000BB690133BB61BB69022BDEDD0023FB71B1
:10202000884B4FF08D421A60D7ED077AB7EE0C7AE5
:10203000F4EEC77AF1EE10FA0EDBD7ED077AB0EEC8
:102040000E7AF4EEC77AF1EE10FA05D50823FB718B
:102050007C4B4FF08C421A60D7ED077AB0EE0E7AC7
:10206000F4EEC77AF1EE10FA0EDBD7ED077AB1EE97
:102070000F7AF4EEC77AF1EE10FA05D51023FB7152
:10208000704B4FF08B421A60D7ED077AB1EE0F7AA2
:10209000F4EEC77AF1EE10FA05DB1823FB71694BF9
:1020A0004FF08A421A604FF000037B6100233B61CE
:1020B00019E0654A3B699B001344D3ED007AF0EECA
:1020C000E77AC7ED037A97ED037AD7ED057AB4EE98
:1020D000E77AF1EE10FA01DDFB6800E07B697B61D5
:1020E0003B6901333B613B69022BE2DDD7ED057AA9
:1020F0009FED567AF4EEC77AF1EE10FA0EDBD7EDCB
:10210000057A9FED537AF4EEC77AF1EE10FA05D511
:102110000823BB714F4B504A1A6034E0D7ED057A63
:102120009FED4B7AF4EEC77AF1EE10FA0EDBD7EDA5
:10213000057A9FED4A7AF4EEC77AF1EE10FA05D5EA
:102140001023BB71434B464A1A601CE0D7ED057A59
:102150009FED427AF4EEC77AF1EE10FA0EDBD7ED7E
:10216000057A9FED407AF4EEC77AF1EE10FA05D5C4
:102170001823BB71374B3C4A1A6004E00023BB7143
:10218000344B3A4A1A602B4B1A78FB799A420FD09B
:102190004FF0FF33029301230193FB1D00930123B2
:1021A0001C22D221324808F01FF8FA79214B1A700C
:1021B000214B1A78BB799A420FD04FF0FF3302932C
:1021C00001230193BB1D009301231B22D221284828
:1021D00008F00AF8BA79184B1A70FB79182B0ED050
:1021E000FB79102B08D0FB79082B02D14FF08C43E0
:1021F00007E04FF08D4304E04FF08B4301E04FF0D8
:102200008A43104A1360BB79182B0BD0BB79102B73
:1022100006D0BB79082B01D10F4B04E0134B02E031
:102220000F4B00E0104B0B4A136000BF2037BD4638
:1022300080BD00BF0D2000200E200020F01F0020D8
:102240000AE81C4198030020FC1F002027A08B40B7
:1022500027A00B419C030020000083425CA08B411F
:10226000333303425CA00B4233338341000003430A
:10227000D425002080B500AF012280210A4807F054
:1022800017FE0021094803F023FB0421074803F04F
:102290001FFB0821064803F01BFB0C21044803F038
:1022A00017FB00BF80BD00BF000C00485027002076
:1022B0000427002080B400AF204B93F90030002B9E
:1022C0000CDB1E4B93F90030002BB8BF5B42DAB237
:1022D0001B4BDA631A4B00221A640BE0184B0022E6
:1022E000DA63164B93F90030002BB8BF5B42DAB2C9
:1022F000134B1A64134B93F90030002B0CDB114B7A
:1023000093F90030002BB8BF5B42DAB20E4B5A6330
:102310000D4B00229A630BE00B4B00225A63094BD2
:1023200093F90030002BB8BF5B42DAB2064B9A63D8
:1023300000BFBD465DF8047B704700BF0F20002042
:1023400000040040102000200008004080B582B04A
:1023500000AF00F01FFA44F62063012278215B48A9
:1023600008F070F90346002B01D00023A9E040F6E5
:10237000C4137B6002E07B68013B7B607B68002BC1
:10238000F9D1AE220021782000F080FA202200212D
:10239000782000F07BFA10220021782000F076FAF5
:1023A000B0220021782000F071FAC82200217820A4
:1023B00000F06CFA00220021782000F067FA102269
:1023C0000021782000F062FA40220021782000F0FD
:1023D0005DFA81220021782000F058FAFF220021C6
:1023E000782000F053FAA1220021782000F04EFA64
:1023F000A6220021782000F049FAA82200217820A6
:1024000000F044FA3F220021782000F03FFAA42295
:102410000021782000F03AFAD3220021782000F041
:1024200035FA00220021782000F030FAD522002170
:10243000782000F02BFAF0220021782000F026FA14
:10244000D9220021782000F021FA222200217820D0
:1024500000F01CFADA220021782000F017FA12228C
:102460000021782000F012FADB220021782000F011
:102470000DFA20220021782000F008FA8D22002198
:10248000782000F003FA14220021782000F0FEF9F1
:10249000AF220021782000F0F9F92E2200217820C7
:1024A00000F0F4F9002000F043F800F013F8084BB6
:1024B00000221A80064B00225A80054B01225A71D5
:1024C000012318460837BD4680BD00BFD425002033
:1024D0001424002080B582B000AF0023FB711DE002
:1024E000FB79503BDBB21A460021782000F0CEF990
:1024F00000220021782000F0C9F910220021782064
:1025000000F0C4F9FB79DB01084A1A44802340211A
:10251000782000F055F9FB790133FB71FB79072B2B
:10252000DED900BF00BF0837BD4680BD14200020A3
:1025300080B582B000AF0346FB71FB79002B01D15F
:10254000002300E0FF234FF48062194603480AF09D
:10255000F7FA00BF0837BD4680BD00BF1420002039
:1025600080B483B000AF0346FB800B46BB801346AC
:10257000FB70FB887F2B48D8BB883F2B45D8264B68
:102580001B79002B06D0FB78002B0CBF0123002306
:10259000DBB2FB70FB78012B1AD1FA88BB88DB0811
:1025A00098B20346DB0113441C4AD35C5AB2BB8881
:1025B00003F00703012101FA03F35BB2134359B29D
:1025C000FA880346DB011344C9B2144AD1541DE012
:1025D000FA88BB88DB0898B20346DB0113440F4A34
:1025E000D35C5AB2BB8803F00703012101FA03F35D
:1025F0005BB2DB435BB2134059B2FA880346DB019E
:102600001344C9B2054AD15400E000BF0C37BD469F
:102610005DF8047B704700BF1424002014200020C4
:1026200080B483B000AF03460A46FB801346BB80EC
:10263000054AFB881380044ABB88538000BF0C37CF
:10264000BD465DF8047B70471424002080B586B039
:1026500000AF03463960FB711346BB71394B1B88D1
:102660001A463B681B7813447F2B07DC354B5B888D
:102670001A463B685B7813443F2B01DD00235DE085
:1026800000237B614BE03B685A68FB79203B39684B
:10269000497801FB03F319467B690B445B00134443
:1026A0001B88FB6000233B6130E0FA683B6902FA5B
:1026B00003F303F40043002B10D0224B1A883B692C
:1026C0009BB2134498B21F4B5A887B699BB2134448
:1026D0009BB2BA791946FFF743FF14E0194B1A88E9
:1026E0003B699BB2134498B2164B5A887B699BB2E4
:1026F000134499B2BB79002B0CBF01230023DBB23A
:102700001A46FFF72DFF3B6901333B613B681B789D
:102710001A463B699342C8D37B6901337B613B68AE
:102720005B781A467B699342ADD3064B1B883A68A7
:10273000127813449AB2034B1A80FB791846183763
:10274000BD4680BD1424002080B584B000AFF86081
:10275000B9601346FB7112E0FB681B78FA79B9681F
:102760001846FFF773FF03461A46FB681B789A4228
:1027700002D0FB681B7808E0FB680133FB60FB6854
:102780001B78002BE8D1FB681B7818461037BD4634
:1027900080BD000080B483B000AF084B7B6002E0D6
:1027A0007B68013B7B607B68002BF9D100BF00BFD9
:1027B0000C37BD465DF8047B704700BF90D0030026
:1027C00090B5C7B002AF0446084607F58871A1F579
:1027D00088710A60194607F58873A3F20913224627
:1027E0001A7007F58873A3F5857302461A7007F50A
:1027F0008873A3F586730A461A8007F58873A3F5D4
:10280000827307F58872A2F5857212781A70002318
:1028100087F80F3115E097F80F3107F58872A2F5A8
:10282000887212681A4497F80F310133117807F54E
:102830008872A2F58272D15497F80F31013387F86C
:102840000F3197F80F319BB207F58872A2F58672A7
:1028500012889A42DFD807F58873A3F209131B7810
:1028600099B207F58873A3F586731B8801339BB271
:1028700007F10C020A200090034807F0C1FB00BFDB
:1028800007F58A77BD4690BDD425002080B586B077
:1028900002AF0346FB710B46BB7113467B71BB79DC
:1028A0003B737B797B73FB7999B207F10C020A23A6
:1028B00000930223034807F0A3FB00BF1037BD4677
:1028C00080BD00BFD425002080B500AFFFF73EFDDE
:1028D00000BF80BD80B588B000AF0023FB8380239C
:1028E0007B8240233B823B8ABB83FB8B19460020C3
:1028F000FFF796FE012243494348FFF725FF414B6E
:102900005B781A46FB8B1344FB833E4B5B781A467D
:10291000BB8B9B1ABB8310210020FFF781FE012295
:1029200038493A48FFF710FF364B5B781A46BB8BA5
:102930009B1ABB83364A3B4607CA83E8070003233A
:10294000FB73304B5B781033FB830023FB7649E04D
:10295000FB7E9B0020333B4453F8203C1846FEF797
:102960006FF90346BB81BB89062B08D8294B5B78DE
:102970001A46BB8B934202D3264B7B6113E0BB8983
:102980000B2B08D8244B5B781A46BB8B934202D39F
:10299000214B7B6107E01B4B5B781A46BB8B934254
:1029A00028D3184B7B61FB8B19460020FFF738FEBC
:1029B000FB7E9B0020333B4453F8203C0122796985
:1029C0001846FFF7C1FE7B695B781A46FB8B134400
:1029D000FB837B695B781A46BB8B9B1ABB83FB7EB0
:1029E0000133FB76FA7EFB7B9A4204D2FB7E022BFC
:1029F000AED900E000BFFFF76DFD00BF2037BD4638
:102A000080BD00BF04040020A0030020B403002008
:102A1000202C0108140400200C04002080B586B08E
:102A200004AF03460A46FB711346BB710C4ABB79DF
:102A300013700C4B1B781946FB799AB20A23029348
:102A400001230193064B00930123074807F0CCFBB9
:102A500003461A46054B1A7000BF0837BD4680BDB5
:102A6000F82400201C040020A4240020FC240020C2
:102A700080B586B004AF03460A46FB711346BB809F
:102A8000BA880C4B1A800C4B1B781946FB799AB20A
:102A90000A23029302230193064B00930123074864
:102AA00007F0A2FB03461A46054B1A7000BF083711
:102AB000BD4680BDF82400201C040020A424002072
:102AC000FC24002080B586B004AF03463960FB715A
:102AD0003B680C4A13600C4B1B781946FB799AB281
:102AE0000A23029304230193064B00930123074812
:102AF00007F07AFB03461A46054B1A7000BF0837E9
:102B0000BD4680BDF82400201C040020A424002021
:102B1000FC24002080B588B004AF0346FB710F4B46
:102B20001B7843F00103DBB21946FB799AB20A2302
:102B30000293012301930A4B00930123094807F0F4
:102B400067FC03461A46084B1A70054B1B78FB734B
:102B5000FB7B18461037BD4680BD00BF1C0400201B
:102B6000F8240020A4240020FC24002080B588B094
:102B700004AF0346FB710F4B1B7843F00103DBB23C
:102B80001946FB799AB20A230293022301930A4B56
:102B900000930123094807F03BFC03461A46084B03
:102BA0001A70054B1B88FB81FB8918461037BD4600
:102BB00080BD00BF1C040020F8240020A4240020B5
:102BC000FC24002080B586B004AF03463960FB7159
:102BD0001346BB713B681B681A460D4B1A600D4BC0
:102BE0001B781846FB799AB2BB799BB20A210291F5
:102BF0000193074B009301230146074807F0F4FABD
:102C000003461A46054B1A7000BF0837BD4680BD03
:102C1000F82400201C040020A4240020FC24002010
:102C200080B586B004AF03463960FB711346BB71B3
:102C30000D4B1B7843F00103DBB21846FB799AB2C7
:102C4000BB799BB20A21029101933B680093012357
:102C50000146064807F0DCFB03461A46044B1A708F
:102C600000BF0837BD4680BD1C040020A4240020FE
:102C7000FC24002080B582B000AF0346FB71FB79D5
:102C80005B08DBB219468A20FFF7C8FE00BF083791
:102C9000BD4680BD80B586B000AF03463960FB718C
:102CA000542239685448FDF731FF544B00221A7002
:102CB000524B00225A70514B00229A704F4B002207
:102CC000DA70FB79002B0AD08920FFF723FF034637
:102CD00043F00103DBB219468920FFF79FFE022172
:102CE0008820FFF79BFE01218020FFF797FE01213E
:102CF000FF20FFF793FE00210020FFF78FFE9120B9
:102D0000FFF708FF03461A463D4B1A7001210020C9
:102D1000FFF784FE0021FF20FFF780FE00218020C6
:102D2000FFF77CFE6020FFF7F5FE034643F0120339
:102D3000DBB219466020FFF771FE002000F008FAB0
:102D4000FF210120FFF76AFE07F1130207F11403C8
:102D50001146184600F0FCFE0346002B01D100236B
:102D6000EFE107F10C0306221946B020FFF758FFE8
:102D70000121FF20FFF752FE00214F20FFF74EFEFA
:102D80002C214E20FFF74AFE0021FF20FFF746FED0
:102D9000B421B620FFF742FEFB7C002B01D00C23B0
:102DA00000E000237B750023FB750023BB7540E02A
:102DB000BA7D7B7D9A4203D33B7DFA7D9A4221D135
:102DC000BB7DDB08D8B2034618333B4413F80C3CF8
:102DD0005AB2BB7D03F00703012101FA03F35BB292
:102DE000DB435BB213405AB20346D2B218333B44C2
:102DF00003F80C2C1AE000BFA4240020F8240020C3
:102E00004A240020BB7DDB08DBB218333B4413F8B7
:102E10000C3C1A46BB7D03F0070342FA03F303F0B0
:102E20000103002B02D0FB7D0133FB75BB7D013319
:102E3000BB75BB7D2F2BBBD907F10C0306221946AE
:102E4000B020FFF7BFFE0121FF20FFF7E7FD0021C3
:102E50000020FFF7E3FD0021FF20FFF7DFFD002149
:102E60000920FFF7DBFD00211020FFF7D7FD00212F
:102E70001120FFF7D3FD01212420FFF7CFFDFF2113
:102E80002520FFF7CBFD00217520FFF7C7FD0121AD
:102E9000FF20FFF7C3FD2C214E20FFF7BFFD0021CF
:102EA0004820FFF7BBFD20213020FFF7B7FD0021B0
:102EB000FF20FFF7B3FD09213020FFF7AFFD002110
:102EC0005420FFF7ABFD04213120FFF7A7FD0321BC
:102ED0003220FFF7A3FD83214020FFF79FFD25212E
:102EE0004620FFF79BFD00216020FFF797FD0021A2
:102EF0002720FFF793FD06215020FFF78FFD0021CB
:102F00005120FFF78BFD96215220FFF787FD082106
:102F10005620FFF783FD30215720FFF77FFD00216A
:102F20006120FFF77BFD00216220FFF777FD002184
:102F30006420FFF773FD00216520FFF76FFDA021DE
:102F40006620FFF76BFD0121FF20FFF767FD3221AF
:102F50002220FFF763FD14214720FFF75FFDFF21CB
:102F60004920FFF75BFD00214A20FFF757FD0021B4
:102F7000FF20FFF753FD0A217A20FFF74FFD0021C4
:102F80007B20FFF74BFD21217820FFF747FD012132
:102F9000FF20FFF743FD34212320FFF73FFD0021F1
:102FA0004220FFF73BFDFF214420FFF737FD26219C
:102FB0004520FFF733FD05214620FFF72FFD402177
:102FC0004020FFF72BFD06210E20FFF727FD1A21D9
:102FD0002020FFF723FD40214320FFF71FFD0021A4
:102FE000FF20FFF71BFD03213420FFF717FD4421CD
:102FF0003520FFF713FD0121FF20FFF70FFD04210E
:103000003120FFF70BFD09214B20FFF707FD0521BC
:103010004C20FFF703FD04214D20FFF7FFFC0021AA
:10302000FF20FFF7FBFC00214420FFF7F7FC2021E5
:103030004520FFF7F3FC08214720FFF7EFFC28218C
:103040004820FFF7EBFC00216720FFF7E7FC042195
:103050007020FFF7E3FC01217120FFF7DFFCFE2168
:103060007220FFF7DBFC00217620FFF7D7FC002160
:103070007720FFF7D3FC0121FF20FFF7CFFC0121D0
:103080000D20FFF7CBFC0021FF20FFF7C7FC01213B
:103090008020FFF7C3FCF8210120FFF7BFFC0121CE
:1030A000FF20FFF7BBFC01218E20FFF7B7FC0121B9
:1030B0000020FFF7B3FC0021FF20FFF7AFFC002149
:1030C0008020FFF7ABFC04210A20FFF7A7FC842037
:1030D000FFF720FD034623F01003DBB219468420DE
:1030E000FFF79CFC01210B20FFF798FC00F072FA1F
:1030F0000346164A1360E8210120FFF78FFC134BAB
:103100001B68184600F0CEF901210120FFF786FC6C
:10311000402000F0D5FE0346002B01D1002310E033
:1031200002210120FFF77AFC002000F0C9FE0346CF
:10313000002B01D1002304E0E8210120FFF76EFC01
:10314000012318461837BD4680BD00BF4C2400201F
:1031500080B584B000AF0346FB80FB88B3F5484FD1
:1031600001D300230EE0FB88DB01084A82FB031237
:103170009211DB17D31AFB81FB8919464420FFF714
:1031800077FC012318461037BD4680BDD34D621031
:1031900080B584B000AF03460A46FB711346BB807E
:1031A0000023FB7323490120FFF774FD0346FB73E3
:1031B000FB7B002B01D101F0F0FD1223BB730E232A
:1031C0007B73BB881846FFF7C3FF0346002B01D172
:1031D00001F0E3FDBB7B1946002000F05DFA0346D9
:1031E000002B01D101F0D9FD7B7B1946012000F0B5
:1031F00053FA0346002B01D101F0CFFD7A7BBB7B54
:10320000D31A1A464CF2503302FB03F3184600F06F
:1032100049F90346002B01D101F0BFFD002000F069
:10322000ABFBFB791846FFF725FD00BF1037BD4605
:1032300080BD00BFD425002080B586B000AF786087
:103240000B467B807B68DB89FB810C23FB750823A5
:10325000BB7548F2E8033B617B88B3F5FA7F06D97A
:103260001223FB750E23BB75184B3B6105E00C2345
:10327000FB750823BB75154B3B617B689B693A69FD
:103280009A421ED07B683A699A6100F0BBFB3869AC
:1032900000F008F9FB7D1946002000F0FDF9034617
:1032A000002B01D101F079FDBB7D1946012000F012
:1032B000F3F90346002B01D101F06FFD002000F06F
:1032C0005BFB00BF1837BD4680BD00BFA086010074
:1032D00080B58AB000AF78607B681A78144B1A709A
:1032E00007F10803184600F0A9FB0346FB843B7F67
:1032F0000B2B02D03B7F002B10D1FB8CB3F5FA5F78
:103300000CD2FA8C7B685A603B7F1A467B689A60C5
:10331000BA8A7B689A81FA8A7B68DA81FB8C1946C3
:103320007868FFF789FF00BF2837BD4680BD00BF22
:103330001C04002080B500AF1D48FFF7C9FF1D48E1
:10334000FFF7C6FF1C48FFF7C3FF194B5B681B4A1A
:103350001360184B5B68194A5360174B5B68174A38
:103360009360134B9A89164B1A80124B9A89144B0F
:103370005A80114B9A89124B9A800D4BDA89114B66
:103380001A800C4BDA890F4B5A800B4BDA890D4BA4
:103390009A80074B9B680C4A1360064B9B680A4A4D
:1033A0005360054B9B68084A936000BF80BD00BF17
:1033B000502400206C240020882400201C2400209D
:1033C00028240020302400203824002080B582B03A
:1033D00000AF0346FB802C4B1A782C4B1A702C4BF9
:1033E0001A782C4B1A702C4B1A782C4B1A70C82058
:1033F00000F09EFB00224FF48061294806F058FD42
:1034000000224FF40041264806F052FD0022082118
:10341000234806F04DFDC82000F044FE01224FF481
:1034200080611F4806F044FDC82000F03BFE164BAB
:103430001B78FA8811461846FFF7AAFE01224FF4BE
:103440000041174806F034FDC82000F02BFE104B59
:103450001B78FA8811461846FFF79AFE01220821C8
:103460000F4806F025FDC82000F01CFE0A4B1B7813
:10347000FA8811461846FFF78BFE052000F058FB2E
:1034800000BF0837BD4680BD1D0400205024002029
:103490001E0400206C2400201F040020882400202B
:1034A0000010004880B592B000AF78604FF4A5637B
:1034B000A7F840304FF47073FB874FF42573BB8738
:1034C00040F24E237B8740F2B2233B874FF42573B3
:1034D000FB8640F22623BB8644F620633B637A6872
:1034E0003B6B9A4201D200236EE0B7F84020FB8F7D
:1034F00013447B6407F12403184600F0BDFB07F179
:103500000C0207F124031146184600F0E7FB97F878
:103510002430002B05D0BA697B8F13447A6C134496
:103520007B6497F82630002B07D0BA693B8F134491
:103530005B007A6C13447B6409E097F82530002B1C
:1035400005D0BA69BB8F13447A6C13447B6497F837
:103550002730002B05D0FA69FB8E13447A6C134494
:103560007B6497F82830002B2DD0BB8E7A6C1344E7
:103570007B647A6C7B689A4201D9002324E07A68E4
:103580007B6CD31AFB62FB89DBB21946F86A00F048
:1035900071FC0346A7F8423097F82730002B05D07E
:1035A0007A8AB7F842301344A7F84230B7F842306D
:1035B000184600F00CFC034619467120FFF758FA34
:1035C000034A7B681360012318464837BD4680BD17
:1035D0004C24002080B58CB000AF40F276737B8520
:1035E0004FF470733B854FF42573FB8440F24E23F8
:1035F000BB8440F2B2237B844FF425733B8440F2BA
:103600002623FB837A8D3B8D1344FB6207F118035D
:10361000184600F031FB3A4607F1180311461846E8
:1036200000F05CFB3B7E002B05D0FA68BB8C13449A
:10363000FA6A1344FB62BB7E002B07D0FA687B8CCE
:1036400013445B00FA6A1344FB6208E07B7E002BA4
:1036500005D0FA68FB8C1344FA6A1344FB62FB7EC4
:10366000002B05D03A693B8C1344FA6A1344FB6281
:103670003B7F002B05D07A69FB8B1344FA6A134415
:10368000FB62044AFB6A1360FB6A18463037BD468A
:1036900080BD00BF4C24002080B58CB000AF034635
:1036A0000A46FB711346BB71BB795B08DBB2013B79
:1036B00087F82D3007F12003184600F0DDFA07F1F6
:1036C000080207F120031146184600F007FBFB79BA
:1036D000002B5DD1BB790C3B062B25D801A252F8FB
:1036E00023F000BF01370008293700080B37000816
:1036F0002937000815370008293700081F37000848
:1037000018215720FFF78AF910E030215720FFF7E2
:1037100085F90BE040215720FFF780F906E05021A2
:103720005720FFF77BF901E00023FCE00821562039
:10373000FFF774F997F82D3019465020FFF76EF90E
:10374000BB69BA791146184600F094FB03467B85A5
:103750007B8D184600F03BFB034619465120FFF7CE
:1037600087F97B69BA791146184600F083FB034656
:103770003B853B8DB3F5807F04D83B8DDBB2013BAD
:10378000DBB200E0FF2319464620FFF747F9B1E01E
:10379000FB79012B40F0AC80BB79083B062B00F293
:1037A000858001A252F823F0C5370008AD38000823
:1037B000FF370008AD38000839380008AD38000878
:1037C0007338000810214820FFF728F90821472006
:1037D000FFF724F902213220FFF720F90C213020D5
:1037E000FFF71CF90121FF20FFF718F930213020E5
:1037F000FFF714F90021FF20FFF710F958E0282106
:103800004820FFF70BF908214720FFF707F90321AC
:103810003220FFF703F909213020FFF7FFF80121DB
:10382000FF20FFF7FBF820213020FFF7F7F80021F9
:10383000FF20FFF7F3F83BE038214820FFF7EEF8D0
:1038400008214720FFF7EAF803213220FFF7E6F8C6
:1038500008213020FFF7E2F80121FF20FFF7DEF812
:1038600020213020FFF7DAF80021FF20FFF7D6F8FB
:103870001EE048214820FFF7D1F808214720FFF734
:10388000CDF803213220FFF7C9F807213020FFF7D8
:10389000C5F80121FF20FFF7C1F820213020FFF7F4
:1038A000BDF80021FF20FFF7B9F801E000233AE05E
:1038B00097F82D3019467020FFF7B0F8FB69BA79F8
:1038C0001146184600F0D6FA0346FB8597F82330D8
:1038D000002B03D0FA89FB8D1344FB85FB8D184622
:1038E00000F075FA034619467120FFF7C1F801E0B0
:1038F000002318E00E4B1B681846FFF7D3FD01208C
:10390000FFF708F9034687F8273002210120FFF767
:1039100085F8002000F0D4FA97F8273019460120E6
:10392000FFF77CF8012318463037BD4680BD00BF45
:103930004C24002080B582B000AF0346FB71FB79B8
:10394000002B08D15020FFF7E5F803460133DBB226
:103950005B00DBB20CE0FB79012B08D17020FFF794
:10396000D9F803460133DBB25B00DBB200E0FF2392
:1039700018460837BD4680BD80B584B000AF78607A
:1039800001218020FFF74AF80121FF20FFF746F8C8
:1039900000210020FFF742F8194B1B7819469120AF
:1039A000FFF73CF801210020FFF738F80021FF2045
:1039B000FFF734F800218020FFF730F87B68002BF8
:1039C00015D0F820FFF7D2F80346FB81FB89002BC6
:1039D00004D0FA897B6802FB03F37B6079680420DA
:1039E000FFF770F804210020FFF718F803E0022128
:1039F0000020FFF713F800BF1037BD4680BD00BFA1
:103A00004A24002080B500AF01210020FFF706F80E
:103A10000121FF20FFF702F800210020FEF7FEFF42
:103A200000219120FEF7FAFF01210020FEF7F6FFAA
:103A30000021FF20FEF7F2FF00BF80BD80B586B0F9
:103A400000AF786004F04CFD03469AB2354B1A8003
:103A500015E0354B1B88002B11D004F041FD0346C7
:103A60009BB21A462F4B1B88D31A2F4A12889342B7
:103A700005DD2E4B01221A704FF6FF734EE0132026
:103A8000FFF748F8034603F00703002BE1D07B68FB
:103A9000002B05D11E20FFF769F80346FB8238E0B2
:103AA00007F108030C2219461420FFF7B9F83B7AF6
:103AB000DB08DAB27B681A75BB7A1BB21B021AB23A
:103AC000FB7A1BB213431BB29AB27B685A82BB7B50
:103AD0001BB21B021AB2FB7B1BB213431BB29AB27E
:103AE0007B68DA813B7C1BB21B021AB27B7C1BB267
:103AF00013431BB29AB27B689A81BB7C1BB21B0238
:103B00001AB2FB7C1BB213431BB2FB827B68FA8A9E
:103B10001A8201210B20FEF781FFFB8A1846183715
:103B2000BD4680BD482400204424002046240020B7
:103B300080B483B000AF0346FB80044AFB88138047
:103B400000BF0C37BD465DF8047B7047442400205D
:103B500080B584B000AF7860396001218020FEF725
:103B60005DFF0121FF20FEF759FF00210020FEF735
:103B700055FF0621FF20FEF751FF8320FEF7CAFF05
:103B8000034643F00403DBB219468320FEF746FFE9
:103B90000721FF20FEF742FF01218120FEF73EFFB3
:103BA00001218020FEF73AFF6B219420FEF736FFBB
:103BB00000218320FEF732FF04F092FC03469AB204
:103BC0002B4B1A8011E02B4B1B88002B0DD004F0DF
:103BD00087FC03469BB21A46254B1B88D31A254AFD
:103BE0001288934201DD00233DE08320FEF792FF1F
:103BF0000346002BE7D001218320FEF70FFF922020
:103C0000FEF788FF0346FB73FB7B03F07F03DAB20A
:103C10007B681A70FB7BDB09DAB23B681A70002103
:103C20008120FEF7FBFE0621FF20FEF7F7FE832032
:103C3000FEF770FF034623F00403DBB2194683202E
:103C4000FEF7ECFE0121FF20FEF7E8FE0121002037
:103C5000FEF7E4FE0021FF20FEF7E0FE00218020B9
:103C6000FEF7DCFE012318461037BD4680BD00BFBD
:103C7000482400204424002080B584B000AF786040
:103C80000120FEF747FF0346FB73FB7B1B09DBB2FA
:103C900003F00103DAB27B681A70FB7BDB08DBB24E
:103CA00003F00103DAB27B689A70FB7B9B08DBB2FE
:103CB00003F00103DAB27B685A70FB7B9B09DBB22D
:103CC00003F00103DAB27B68DA70FB7BDB09DAB25E
:103CD0007B681A7100BF1037BD4680BD80B582B0C9
:103CE00000AF786039600020FFF724FE03461A46D3
:103CF0003B681A804620FEF70DFF034601339AB257
:103D00003B689A803B689A883B681B88DBB21946FF
:103D1000104600F087F802463B68DA605120FEF753
:103D200025FF0346184600F03EF803461A463B6856
:103D3000DA803B68DA883B681B88DBB2194610469C
:103D400000F070F802463B681A610120FFF7F2FDAF
:103D500003461A463B685A807120FEF707FF034668
:103D6000184600F020F803461A463B681A817B6823
:103D7000DB78002B07D03B681A893B68DB88D31AB5
:103D80009AB23B681A813B681A893B685B88DBB250
:103D90001946104600F046F802463B685A6100BFDB
:103DA0000837BD4680BD80B483B000AF0346FB80BA
:103DB000FB88DBB2FA88120A92B293409BB20133BD
:103DC0009BB218460C37BD465DF8047B704780B443
:103DD00085B000AF0346FB800023FB6000237B819E
:103DE000FB88002B16D0FB88013BFB6005E0FB68DD
:103DF0005B08FB607B8901337B81FB68FF2BF6D876
:103E00007B891B029AB2FB689BB2DBB29BB2134365
:103E10009BB200E0002318461437BD465DF8047BD2
:103E20007047000080B485B000AF03460A46FB80AF
:103E300013467B717B790D4A02FB03F303F5FA739A
:103E40000B4AA2FB03239B09FB60FB88FA6803FB78
:103E500002F2FB685B081344054AA2FB03239B099B
:103E600018461437BD465DF8047B7047002F3A00B2
:103E7000D34D621080B485B000AF78600B46FB7004
:103E8000FB780D4A02FB03F303F5FA730B4AA2FB1E
:103E900003239B09FB607B684FF47A7203FB02F2F9
:103EA000FB685B081A44FB68B2FBF3F3184614374F
:103EB000BD465DF8047B7047002F3A00D34D621079
:103EC00080B582B000AF0346FB71FB7943F001037C
:103ED000DBB219460020FEF7A1FD04F001FB03460A
:103EE0009AB2154B1A8011E0144B1B88002B0DD091
:103EF00004F0F6FA03469BB21A460F4B1B88D31AFE
:103F00000E4A1288934201DD002310E01320FEF7D1
:103F100001FE034603F00703002BE5D001210B202F
:103F2000FEF77CFD00210020FEF778FD01231846F6
:103F30000837BD4680BD00BF48240020442400202F
:103F400080B500AF05220349034803F08DF900BF97
:103F500080BD00BF082500202825002080B400AFC8
:103F60000C4B1A880C4B1A800A4B5A880B4B1A8040
:103F7000084B9A880A4B1A80064BDA88094B1A803C
:103F8000044B1A89084B1A8000BFBD465DF8047BBC
:103F9000704700BF08250020FE24002006250020D1
:103FA00002250020002500200425002080B400AF59
:103FB00000BFBD465DF8047B7047000080B500AFD0
:103FC00040210D4805F05CFF0346002B0CBF012388
:103FD0000023DBB21A46094B1A700421084805F089
:103FE0004FFF0346002B0CBF01230023DBB21A4610
:103FF000024B5A7000BF80BD0010004814250020FD
:104000000004004880B500AF012208210B4805F0EC
:104010004FFF00224FF40051094805F049FF0022EC
:104020004FF48041064805F043FF00224FF4004161
:10403000034805F03DFF00BF80BD00BF00040048FD
:104040000008004880B500AF144B1B78002B14BF4C
:1040500001230023DBB21A464FF40051104805F04B
:1040600027FF0E4B5B78002B14BF01230023DBB22C
:104070001A464FF480410A4805F01AFF074B9B7817
:10408000002B14BF01230023DBB21A464FF400417A
:10409000034805F00DFF00BF80BD00BF18250020BC
:1040A0000008004880B584B000AF786004F018FACA
:1040B000F8607B68BB6000BF04F012FA0246FB6840
:1040C000D31ABA689A42F7D800BF00BF1037BD466E
:1040D00080BD000080B400AF00BFBD465DF8047B2A
:1040E000704700BF10B54FF0804482B0636A0193FF
:1040F00004F0F6F90090626A019B9A4207D3009B94
:1041000001984FF47A7202FB030002B010BD04F074
:10411000E7F9636A4FF47A7202FB003002B010BD17
:1041200080B483B000AF03463960FB7197F9073064
:10413000002B0ADB3B68DAB20C4997F90730120111
:10414000D2B20B4483F800230AE03B68DAB2084994
:10415000FB7903F00F03043B1201D2B20B441A7631
:1041600000BF0C37BD465DF8047B704700E100E0FE
:1041700000ED00E080B582B000AF78607B68013B65
:10418000B3F1807F01D301230FE00A4A7B68013B32
:1041900053600F214FF0FF30FFF7C2FF054B0022A5
:1041A0009A60044B07221A60002318460837BD4660
:1041B00080BD00BF10E000E080B500AFBFF34F8FBF
:1041C00000BFBFF36F8F00BF0B4B1A680B4B1B6810
:1041D0009A4202D3084B00221A60074B1B685A1CF4
:1041E00005490A60002B05D172B600BFFCF7B8FE86
:1041F00062B600BF00BF80BD1C2500202025002026
:1042000080B400AF054B5B68044A43F080535360B1
:1042100000BFBD465DF8047B704700BF00ED00E0C5
:1042200080B584B000AF87ED010A234B1B6807EE11
:10423000903AB8EE677AD7ED017A67EE277AFCEE0E
:10424000E77A17EE903AFB60FB68B3F1807F18D3F2
:10425000FB6807EE903AB8EE677ADFED186AC7EEB2
:10426000267AFCEEE77A17EE903A0133144A13608F
:10427000134B1B68FA68B2FBF3F31846FFF77AFF9B
:1042800005E00F4B00221A60F868FFF773FF0D4B33
:1042900000221A600C4A0D4B1A600F216FF00400C7
:1042A000FFF73EFF0F216FF00100FFF739FF00BF5E
:1042B0001037BD4680BD00BF28040020FFFF7F4BA4
:1042C000202500201C250020B941000824250020BD
:1042D000EFF3008001B5EFF3118003B41EF0100F6F
:1042E00008BFB0EE400A0A48006803B488B004A0D2
:1042F00006904FF0807007906FF00600864670477A
:1043000003BC8047BFF36F8F00DFFEE700BF0000F4
:10431000242500201EF0100F08BFB0EE400A1EF04A
:10432000040F0CBFEFF30880EFF30980816911F8E7
:10433000020C10B101280DD00BE01EF0100F0CBFC5
:104340001AB008B003BC80F3118803BC80F3008866
:104350000847FEE74EF61451CEF200010A6842F01B
:1043600001020A607047F4E700BF00BF80B596B055
:1043700000AF07F1140344220021184608F0E0FBC7
:104380003B4600221A605A609A60DA601A614FF464
:10439000007006F0A3FF0346002B01D000F0FDFCE7
:1043A00001237B614FF48033BB610223FB63032352
:1043B0003B6401237B641423BB640723FB64022357
:1043C0003B6502237B6507F11403184604F094F85B
:1043D0000346002B01D000F0E0FC0F233B600323D9
:1043E0007B600023BB600023FB6000233B613B46F6
:1043F0000421184604F05CFC0346002B01D000F0B9
:10440000CCFC04F04BFE00BF5837BD4680BD000019
:1044100080B58AB000AF07F11C0300221A605A6011
:104420009A603B1D00221A605A609A60DA601A6135
:104430005A61524B524A1A60504B00225A604F4BFD
:1044400000229A604D4B0022DA604C4B01221A6127
:104450004A4B08225A61494B00221A76474B0122E7
:104460005A76464B0522DA61444B002283F820201D
:10447000424B00229A62414B0022DA623F4B0122FA
:1044800083F830203D4B00225A633C4B012283F8D5
:1044900038203A4B1C22DA63384B80221A64374B9F
:1044A00000225A64354B01229A64344802F086FD9A
:1044B0000346002B01D000F070FC0023FB6107F1E4
:1044C0001C0319462D4803F02FFF0346002B01D093
:1044D00000F063FC2B4B7B600623BB600723FB6073
:1044E0007F233B6104237B610023BB613B1D194695
:1044F000224803F0B7F90346002B01D000F04DFC31
:10450000214B7B600C23BB603B1D19461B4803F00D
:10451000A9F90346002B01D000F03FFC1B4B7B6048
:104520001223BB603B1D1946144803F09BF9034658
:10453000002B01D000F031FC154B7B601823BB60D1
:104540003B1D19460D4803F08DF90346002B01D0A1
:1045500000F023FC0F4B7B604FF48073BB603B1D6E
:104560001946064803F07EF90346002B01D000F0FF
:1045700014FC00BF2837BD4680BD00BF28250020A1
:1045800000000450000084CB000180210020903600
:104590000040C03A0080F03E80B500AF1B4B1C4A83
:1045A0001A601A4B1B4A5A60184B00229A60174B2C
:1045B0000122DA60154B00221A61144B00225A6165
:1045C000124B00229A61114B0022DA610F4B00223C
:1045D0001A620E4805F084FC0346002B01D000F05F
:1045E000DCFB0021094806F0DBFB0346002B01D071
:1045F00000F0D3FB0021054806F01DFC0346002B0C
:1046000001D000F0CAFB00BF80BD00BFD425002050
:10461000005800408129F10080B59AB000AF07F141
:10462000580300221A605A609A60DA6007F14C035E
:1046300000221A605A609A6007F1300300221A6063
:104640005A609A60DA601A615A619A613B1D2C22A5
:104650000021184608F074FA574B584A1A60564B16
:1046600040F21F325A60544B00229A60524B40F283
:10467000E732DA60504B00221A614F4B00225A6138
:104680004D4B00229A614C4800F0F8FF0346002B86
:1046900001D000F082FB4FF48053BB6507F1580353
:1046A0001946454801F04EFC0346002B01D000F0AE
:1046B00074FB414801F0AAF80346002B01D000F03A
:1046C0006CFB0023FB6400233B6500237B6507F143
:1046D0004C031946384802F057F90346002B01D025
:1046E00000F05BFB60233B6340F2F3137B6300232A
:1046F000BB630023FB6300233B6400237B64002334
:10470000BB6407F13003002219462B4801F006FB79
:104710000346002B01D000F040FB07F130030422D8
:104720001946254801F0FAFA0346002B01D000F0A3
:1047300034FB07F13003082219461F4801F0EEFA56
:104740000346002B01D000F028FB0223BB6307F1D6
:1047500030030C221946184801F0E0FA0346002BFA
:1047600001D000F01AFB00237B600023BB60002314
:10477000FB6000233B6100237B614FF40053BB616E
:104780000023FB6100233B624FF000737B62002338
:10479000BB620023FB623B1D1946074802F07CF90F
:1047A0000346002B01D000F0F8FA034800F0B0FDFA
:1047B00000BF6837BD4680BDB8260020002C0140F0
:1047C00080B58EB000AF07F1280300221A605A604E
:1047D0009A60DA6007F11C0300221A605A609A603E
:1047E0003B4600221A605A609A60DA601A615A6188
:1047F0009A61324B324A1A60304B41F63F725A602E
:104800002E4B00229A602D4B6322DA602B4B002244
:104810001A612A4B80229A61284800F02FFF034634
:10482000002B01D000F0B9FA4FF48053BB6207F1BE
:1048300028031946214801F085FB0346002B01D0CF
:1048400000F0ABFA1D4800F0E1FF0346002B01D059
:1048500000F0A3FA0023FB6100237B6207F11C0335
:104860001946164802F090F80346002B01D000F0DC
:1048700094FA60233B6000237B600023BB6000232D
:104880003B613B46082219460C4801F047FA0346B3
:10489000002B01D000F081FA3B460C221946074854
:1048A00001F03CFA0346002B01D000F076FA0348F1
:1048B00000F02EFD00BF3837BD4680BD0427002024
:1048C0000004004080B58EB000AF07F1280300223D
:1048D0001A605A609A60DA6007F11C0300221A60BD
:1048E0005A609A603B4600221A605A609A60DA6009
:1048F0001A615A619A61324B324A1A60304B41F662
:104900003F725A602E4B00229A602D4B6322DA6070
:104910002B4B00221A612A4B80229A61284800F012
:10492000ADFE0346002B01D000F037FA4FF4805360
:10493000BB6207F128031946214801F003FB034637
:10494000002B01D000F029FA1D4800F05FFF03465C
:10495000002B01D000F021FA0023FB6100237B62D1
:1049600007F11C031946164802F00EF80346002B07
:1049700001D000F012FA60233B6000237B6000232B
:10498000BB6000233B613B46002219460C4801F006
:10499000C5F90346002B01D000F0FFF93B46042285
:1049A0001946074801F0BAF90346002B01D000F080
:1049B000F4F9034800F0ACFC00BF3837BD4680BDB9
:1049C000502700200008004080B588B000AF07F1F4
:1049D000100300221A605A609A60DA603B1D0022C0
:1049E0001A605A609A601D4B1D4A1A601B4B0122C7
:1049F0005A601A4B00229A60184B0122DA60174B5A
:104A000000221A61154B80229A61144800F036FE8C
:104A10000346002B01D000F0C0F94FF480533B61F6
:104A200007F1100319460D4801F08CFA0346002BDC
:104A300001D000F0B2F900237B600023FB603B1D36
:104A40001946064801F0A0FF0346002B01D000F0F4
:104A5000A4F900BF2037BD4680BD00BF9C270020C1
:104A6000000C004080B584B000AF3B1D00221A60EE
:104A70005A609A60144B154A1A60134B00225A6010
:104A8000114B00229A60104B4FF6FF72DA600E4B0A
:104A900080229A610C4800F0F1FD0346002B01D002
:104AA00000F07BF900237B600023FB603B1D19466F
:104AB000054801F069FF0346002B01D000F06DF9B5
:104AC00000BF1037BD4680BDE82700200010004021
:104AD00080B500AF144B154A1A60134B4FF4E11226
:104AE0005A60114B00229A600F4B0022DA600E4B85
:104AF00000221A610C4B0C225A610B4B00229A6166
:104B0000094B0022DA61084B00221A62064B002290
:104B10005A62054806F01AFD0346002B01D000F04A
:104B20003CF900BF80BD00BF3428002000380140A0
:104B300080B582B000AF224B9B6C214A43F0020348
:104B400093641F4B9B6C03F002037B607B681C4BE0
:104B50009B6C1B4A43F001039364194B9B6C03F05D
:104B600001033B603B68002200210B2006F0C4FCDF
:104B70000B2006F0DDFC002200210E2006F0BCFC1C
:104B80000E2006F0D5FC002200210F2006F0B4FC18
:104B90000F2006F0CDFC00220021442006F0ACFCE2
:104BA000442006F0C5FC00220021452006F0A4FCAC
:104BB000452006F0BDFC00BF0837BD4680BD00BFE4
:104BC0000010024080B58CB000AF07F11C0300223A
:104BD0001A605A609A60DA601A61634BDB6C624A51
:104BE00043F01003D364604BDB6C03F01003BB6134
:104BF000BB695D4BDB6C5C4A43F00403D3645A4BE6
:104C0000DB6C03F004037B617B69574BDB6C564A1A
:104C100043F08003D364544BDB6C03F080033B61AF
:104C20003B69514BDB6C504A43F00103D3644E4B5C
:104C3000DB6C03F00103FB60FB684B4BDB6C4A4A07
:104C400043F00203D364484BDB6C03F00203BB6008
:104C5000BB68454BDB6C444A43F00803D364424BCA
:104C6000DB6C03F008037B607B68002248F208419C
:104C70003E4805F01DF901224FF400513C4805F073
:104C800017F900224FF44041394805F011F900228C
:104C90008021384805F00CF900220821364805F03B
:104CA00007F948F20843FB6101233B6201237B6261
:104CB0000323BB6207F11C0319462C4804F036FF9E
:104CC0004023FB6100233B6201237B6207F11C034D
:104CD0001946264804F02AFF4FF46043FB61012384
:104CE0003B6200237B620023BB6207F11C03194671
:104CF0001F4804F01BFF0423FB6100233B620123D8
:104D00007B6207F11C0319461B4804F00FFF802348
:104D1000FB6101233B6200237B620023BB6207F13E
:104D20001C031946134804F001FF0823FB6101230B
:104D30003B6200237B620023BB6207F11C03194620
:104D40000D4804F0F3FE2023FB6100233B620023A7
:104D50007B6207F11C031946074804F0E7FE00BF19
:104D60003037BD4680BD00BF001002400010004833
:104D700000080048000C00480004004880B582B0DC
:104D800000AF78607B681B68B3F1804F01D103F0FE
:104D900093FB00BF0837BD4680BD80B400AF72B63C
:104DA00000BF00BFFDE780B500AF04F087F900BF8A
:104DB000FDE780B400AF00BFFDE780B400AF00BFE7
:104DC000FDE780B400AF00BFFDE780B400AF00BFD7
:104DD000FDE780B400AF00BFBD465DF8047B7047BF
:104DE00080B500AF024806F08BF900BF80BD00BF60
:104DF0008C25002080B500AF024806F081F900BF85
:104E000080BD00BF7026002080B500AF024806F0CC
:104E100077F900BF80BD00BF2826002080B500AF15
:104E2000024802F0DDFA00BF80BD00BF2825002047
:104E300080B500AF024800F051FE00BF80BD00BF4A
:104E40004C29002080B500AF024800F047FE00BFAB
:104E500080BD00BF5027002080B500AF024800F0A1
:104E60003DFE00BF80BD00BF9C27002080B500AF85
:104E7000034B01221A70034800F030FE00BF80BDD2
:104E800048290020E827002080B500AF024806F03E
:104E900037F900BF80BD00BF0029002080B500AFFA
:104EA000024806F02DF900BF80BD00BFB8280020E1
:104EB00080B483B000AF0F4B1B6E0E4A43F001036A
:104EC00013660C4B1B6E03F001037B607B68094B80
:104ED0009B6D084A43F080539365064B9B6D03F02E
:104EE00080533B603B6800BF0C37BD465DF8047BD8
:104EF000704700BF0010024080B5AEB000AF7860D0
:104F000007F1A40300221A605A609A60DA601A61FD
:104F100007F11C0388220021184607F011FE7B6868
:104F20001B68554A934240F0A2804FF48043FB61D6
:104F30004FF04053C7F8943007F11C03184604F0B3
:104F400039F90346002B01D0FFF727FF4B4BDB6CF1
:104F50004A4A43F40053D364484BDB6C03F40053D8
:104F6000BB61BB69454BDB6C444A43F00103D3642E
:104F7000424BDB6C03F001037B617B693F4BDB6CD5
:104F80003E4A43F00403D3643C4BDB6C03F0040360
:104F90003B613B69394BDB6C384A43F00203D36415
:104FA000364BDB6C03F00203FB60FB680823C7F899
:104FB000A4300B23C7F8A8300023C7F8AC3007F1A2
:104FC000A40319464FF0904004F0B0FD3023C7F819
:104FD000A4300B23C7F8A8300023C7F8AC3007F182
:104FE000A4031946264804F0A1FD0123C7F8A43004
:104FF0000B23C7F8A8300023C7F8AC3007F1A4038F
:105000001946204804F092FD1F4B204A1A601E4B9F
:1050100000225A601C4B00229A601B4B0022DA606F
:10502000194B80221A61184B4FF480725A61164B4B
:105030004FF480629A61144B2022DA61124B0022F5
:105040001A62114805F044FF0346002B01D0FFF718
:10505000A4FE7B680C4ADA640B4A7B6893620022E8
:105060000021122006F048FA122006F061FA00BF73
:10507000B837BD4680BD00BF00000450001002409C
:1050800000080048000400488C2500200800024069
:1050900080B5ACB000AF786007F19C0300221A60C5
:1050A0005A609A60DA601A6107F1140388220021BD
:1050B000184607F045FD7B681B684B4A934240F059
:1050C0008F8080237B614FF48043BB6607F114031C
:1050D000184604F06FF80346002B01D0FFF75DFE81
:1050E000424BDB6C414A43F00203D3643F4BDB6C21
:1050F00003F002033B613B694FF44063C7F89C3007
:105100001223C7F8A0300023C7F8A4300323C7F840
:10511000A8300423C7F8AC3007F19C031946344883
:1051200004F004FD314B9B6D304A43F480039365DA
:105130002E4B9B6D03F48003FB60FB682D4B2E4AC6
:105140001A602C4B03225A602A4B00229A60294B8A
:105150000022DA60274B80221A61264B00225A6116
:10516000244B00229A61234B0022DA61214B00225A
:105170001A62204805F0ACFE0346002B01D0FFF771
:105180000CFE7B681B4ADA631A4A7B6893621B4BEE
:105190001B4A1A60194B03225A60184B10229A605E
:1051A000164B0022DA60154B80221A61134B002245
:1051B0005A61124B00229A61104B0022DA610F4BA8
:1051C00000221A620D4805F083FE0346002B01D031
:1051D000FFF7E3FD7B68094A9A63084A7B6893629C
:1051E00000BFB037BD4680BD0058004000100240EF
:1051F00000040048282600205800024070260020A5
:105200004400024080B588B000AF78607B681B68BE
:10521000394A93420CD1394B1B6E384A43F4006330
:105220001366364B1B6E03F40063FB61FB695EE0A3
:105230007B681B68324A93420CD1304B9B6D2F4ADE
:1052400043F0020393652D4B9B6D03F00203BB619A
:10525000BB694CE07B681B682A4A934214D1274BF8
:105260009B6D264A43F004039365244B9B6D03F02A
:1052700004037B617B69002200211E2006F03CF9BB
:105280001E2006F055F932E07B681B681E4A9342E7
:1052900014D11A4B9B6D194A43F008039365174BC1
:1052A0009B6D03F008033B613B6900220021322023
:1052B00006F022F9322006F03BF918E07B681B6803
:1052C000124A934213D10D4B9B6D0C4A43F01003CD
:1052D00093650A4B9B6D03F01003FB60FB68002293
:1052E0000021362006F008F9362006F021F900BF2B
:1052F0002037BD4680BD00BF002C01400010024099
:105300000004004000080040000C00400010004075
:1053100080B58AB000AF786007F1140300221A60EC
:105320005A609A60DA601A617B681B68344A93425B
:105330001DD1344BDB6C334A43F01003D364314B43
:10534000DB6C03F010033B613B694FF4D4437B619A
:105350000223BB610023FB6100233B6201237B62CC
:1053600007F114031946284804F0E0FB44E07B6889
:105370001B68264A93421DD1224BDB6C214A43F025
:105380000403D3641F4BDB6C03F00403FB60FB6876
:105390004FF440737B610223BB610023FB61002358
:1053A0003B6202237B6207F114031946184804F09C
:1053B000BDFB21E07B681B68164A93421CD1114B50
:1053C000DB6C104A43F00803D3640E4BDB6C03F034
:1053D0000803BB60BB684FF440537B610223BB6191
:1053E0000023FB6100233B6202237B6207F114036D
:1053F0001946094804F09AFB00BF2837BD4680BD16
:10540000002C014000100240001000480004004041
:105410000008004800080040000C004880B5ACB00F
:1054200000AF786007F19C0300221A605A609A600E
:10543000DA601A6107F1140388220021184607F088
:105440007FFB7B681B684A4A934240F08D800123B2
:105450007B610023FB6407F11403184603F0AAFEE6
:105460000346002B01D0FFF798FC424B1B6E414ACC
:1054700043F4804313663F4B1B6E03F480433B6150
:105480003B693C4BDB6C3B4A43F00203D364394B32
:10549000DB6C03F00203FB60FB68C023C7F89C30A1
:1054A0000223C7F8A0300023C7F8A4300323C7F8AD
:1054B000A8300723C7F8AC3007F19C0319462E48E3
:1054C00004F034FB2D4B2E4A1A602C4B02225A60FA
:1054D0002A4B00229A60294B0022DA60274B802257
:1054E0001A61264B00225A61244B00229A61234BF9
:1054F0002022DA61214B00221A62204805F0E8FCE4
:105500000346002B01D0FFF748FC7B681B4A1A6753
:105510001A4A7B6893621B4B1B4A1A60194B022282
:105520005A60184B10229A60164B0022DA60154B15
:1055300080221A61134B00225A61124B00229A6199
:10554000104B0022DA610F4B00221A620D4805F061
:10555000BFFC0346002B01D0FFF71FFC7B68094A04
:10556000DA66084A7B68936200BFB037BD4680BDEB
:10557000003801400010024000040048B828002014
:1055800080040240002900206C04024080B58EB0E7
:1055900000AF7860002387F83330344B9B6D334A7B
:1055A00043F001039365314B9B6D03F00103FB60F6
:1055B000FB6807F1100207F114031146184603F0C7
:1055C0003BFD3B6AFB62FB6A002B03D103F008FD45
:1055D000786304E003F004FD03465B007B637B6BB0
:1055E000234AA2FB03239B0C013BBB62214B4FF0E0
:1055F00080421A601F4B40F2E732DA601D4ABB6AF4
:1056000053601C4B00221A611A4B00229A60194BFE
:1056100000229A61174800F031F8034687F83330CA
:1056200097F83330002B1BD1124800F07FF8034667
:1056300087F8333097F83330002B11D11C2005F058
:1056400077FF7B680F2B08D8002279681C2005F0B3
:1056500053FF094A7B68136002E0012387F8333067
:1056600097F8333018463837BD4680BD00100240E9
:1056700083DE1B434C2900202004002080B582B02B
:1056800000AF78607B68002B01D1012349E07B6883
:1056900093F83D30DBB2002B06D17B68002283F803
:1056A0003C207868FFF7AEFD7B68022283F83D203E
:1056B0007B681A687B6804331946104600F034FD95
:1056C0007B68012283F848207B68012283F83E2012
:1056D0007B68012283F83F207B68012283F8402009
:1056E0007B68012283F841207B68012283F84220F5
:1056F0007B68012283F843207B68012283F84420E1
:105700007B68012283F845207B68012283F84620CC
:105710007B68012283F847207B68012283F83D20C3
:10572000002318460837BD4680BD000080B485B010
:1057300000AF78607B6893F83D30DBB2012B01D07D
:1057400001234FE07B68022283F83D207B681B68C1
:10575000DA687B681B6842F00102DA607B681B68CC
:10576000234A93421DD07B681B68B3F1804F18D049
:105770007B681B681F4A934213D07B681B681E4AD4
:1057800093420ED07B681B681C4A934209D07B6809
:105790001B681B4A934204D07B681B68194A9342DA
:1057A00015D17B681B689A68174B1340FB60FB6838
:1057B000062B15D0FB68B3F5803F11D07B681B68C2
:1057C0001A687B681B6842F001021A6008E07B6877
:1057D0001B681A687B681B6842F001021A6000E0CF
:1057E00000BF002318461437BD465DF8047B7047A0
:1057F000002C01400004004000080040000C004064
:1058000000340140004001400700010080B582B033
:1058100000AF78607B68002B01D1012349E07B68F1
:1058200093F83D30DBB2002B06D17B68002283F871
:105830003C20786800F041F87B68022283F83D2024
:105840007B681A687B6804331946104600F06CFCCC
:105850007B68012283F848207B68012283F83E2080
:105860007B68012283F83F207B68012283F8402077
:105870007B68012283F841207B68012283F8422063
:105880007B68012283F843207B68012283F844204F
:105890007B68012283F845207B68012283F846203B
:1058A0007B68012283F847207B68012283F83D2032
:1058B000002318460837BD4680BD80B483B000AFD2
:1058C000786000BF0C37BD465DF8047B7047000070
:1058D00080B584B000AF786039603B68002B09D197
:1058E0007B6893F83E30DBB2012B14BF0123002309
:1058F000DBB23CE03B68042B09D17B6893F83F3076
:10590000DBB2012B14BF01230023DBB22FE03B6885
:10591000082B09D17B6893F84030DBB2012B14BF10
:1059200001230023DBB222E03B680C2B09D17B680A
:1059300093F84130DBB2012B14BF01230023DBB20B
:1059400015E03B68102B09D17B6893F84230DBB23D
:10595000012B14BF01230023DBB208E07B6893F81E
:105960004330DBB2012B14BF01230023DBB2002B39
:1059700001D001239CE03B68002B04D17B6802220C
:1059800083F83E2023E03B68042B04D17B6802228D
:1059900083F83F201BE03B68082B04D17B68022280
:1059A00083F8402013E03B680C2B04D17B68022273
:1059B00083F841200BE03B68102B04D17B68022266
:1059C00083F8422003E07B68022283F843207B684F
:1059D0001B6801223968184600F0B0FF7B681B681D
:1059E000354A934213D07B681B68344A93420ED0E9
:1059F0007B681B68324A934209D07B681B68314A36
:105A0000934204D07B681B682F4A934201D1012343
:105A100000E00023002B07D07B681B685A6C7B6872
:105A20001B6842F400425A647B681B68224A934216
:105A30001DD07B681B68B3F1804F18D07B681B6852
:105A4000224A934213D07B681B68214A93420ED0AE
:105A50007B681B681F4A934209D07B681B68174A02
:105A6000934204D07B681B68154A934215D17B682A
:105A70001B689A68184B1340FB60FB68062B15D017
:105A8000FB68B3F5803F11D07B681B681A687B68A0
:105A90001B6842F001021A6008E07B681B681A6804
:105AA0007B681B6842F001021A6000E000BF00231F
:105AB00018461037BD4680BD002C0140003401401F
:105AC0000040014000440140004801400004004003
:105AD00000080040000C00400700010080B582B0C3
:105AE00000AF78607B681B681B6903F00203022B20
:105AF00022D17B681B68DB6803F00203022B1BD1F9
:105B00007B681B686FF002021A617B6801221A77BA
