:020000040800F2
:1000000000800120795C0008810F0008830F000840
:10001000850F0008870F0008890F00080000000006
:10002000000000000000000000000000C95C0008A3
:100030008B0F000800000000C95C0008C95C0008C4
:10004000C95C0008C95C0008C95C0008C95C0008FC
:10005000C95C0008C95C0008C95C0008C95C0008EC
:10006000C95C0008C95C0008C95C00088D0F000865
:100070009D0F0008C95C0008C95C0008C95C000845
:10008000C95C0008C95C0008C95C0008C95C0008BC
:10009000C95C0008C95C0008C95C0008C95C0008AC
:1000A000C95C0008AD0F0008C95C0008C95C000805
:1000B000C95C0008C95C0008C95C0008C95C00088C
:1000C000C95C0008C95C0008C95C0008C95C00087C
:1000D000C95C0008C95C0008C95C0008C95C00086C
:1000E000C95C0008C95C0008C95C0008C95C00085C
:1000F000BD0F0008CD0F0008C95C0008C95C0008EE
:10010000C95C0008C95C0008C95C0008C95C00083B
:10011000C95C0008C95C0008C95C0008C95C00082B
:10012000C95C0008C95C0008C95C0008C95C00081B
:10013000C95C0008C95C0008C95C0008C95C00080B
:10014000C95C0008C95C0008C95C0008DD0F000834
:10015000C95C0008C95C0008C95C0008C95C0008EB
:10016000C95C0008C95C0008C95C0008C95C0008DB
:10017000C95C0008C95C0008C95C000800000000F8
:08018000C95C0008C95C00081D
:1001880010B5054C237833B9044B13B10448AFF3C9
:1001980000800123237010BD08010020000000002A
:1001A800245D000808B5034B1BB103490348AFF3AE
:1001B800008008BD000000000C010020245D00083C
:1001C80008B509220449054801F05EFB09220449E3
:1001D800044801F059FB08BD380100202C03002019
:1001E80024010020C8020020194BDA6822F07302AB
:1001F80042F00302DA601A6922F4C00222F4FE42D5
:1002080042F440621A61DA6822F0730242F0030293
:10021800DA601A6922F0C06222F4FE4242F44062B7
:100228001A611A6942F480121A611A6942F08072DE
:100238001A611A6842F080621A6001E0012B06D048
:10024800034B1B6813F00063F8D00123F6E77047EF
:100258000010024000B583B00E4B9A6C42F00102C8
:100268009A649B6C03F001030193019B00221146E1
:100278000B2001F085FC0B2001F092FC00221146B6
:100288000C2001F07DFC0C2001F08AFC03B05DF825
:1002980004FB00BF001002402DE9F04F8DB0002490
:1002A80006940794089409940A940B94664BDA6CA4
:1002B80042F01002DA64DA6C02F010020592059A34
:1002C800DA6C42F00402DA64DA6C02F00402049296
:1002D800049ADA6C42F08002DA64DA6C02F0800286
:1002E8000392039ADA6C42F00102DA64DA6C02F0E3
:1002F80001020292029ADA6C42F00202DA64DA6CC3
:1003080002F002020192019ADA6C42F00802DA6401
:10031800DB6C03F008030093009BDFF834914FF483
:100328000053C9F818304FF44043C9F82830DFF8B3
:10033800248142F6026BC8F828B0444F41F2080302
:10034800BB62DFF814A18023CAF828304DF2BD1330
:1003580006930326079606A9404603F0E5FB4023CB
:100368000693079401250A9506A9404603F0DCFB8D
:100378004FF4604306930795089409940A9406A9D4
:10038800484603F0D1FB41F60F43069307960A94BB
:1003980006A9484603F0C8FB48F207730693079678
:1003A8000A9406A94FF0904003F0BEFB042306937D
:1003B80007940A9506A9384603F0B6FBCDF818B09D
:1003C8000795089609940A9406A9404603F0ACFBE1
:1003D8004FF4805306930795089609940A9406A942
:1003E800384603F0A1FB4EF2D033069307960A94E1
:1003F80006A9384603F098FB4FF67F7306930796D5
:100408000A9406A9504603F08FFB802306930795AC
:10041800089409940A9406A9504603F085FB08231A
:1004280006930795089409940A9406A9384603F098
:100438007BFB2023069307940A9406A9384603F009
:1004480073FB0DB0BDE8F08F0010024000040048B7
:100458000008004800100048000C004808B5026871
:10046800034B9A4200D008BD00F0D6FDFBE700BF61
:10047800002C014072B6FEE708B5344A136823F031
:10048800070343F001031360304B1A6802F00702B8
:10049800012AF9D12E490B6823F4C06343F4007391
:1004A8000B6000E033B12A4B5B6913F48063F9D029
:1004B8001346F7E727490B6843F480330B6001E0E4
:1004C800012B06D0234B1B6813F40033F8D01346D6
:1004D800F6E72049C868204A024042F4006242F028
:1004E8000302CA60CA6842F08072CA600A6842F0B1
:1004F80080720A6001E0012A06D0164A126812F0DA
:100508000072F8D01A46F6E7124A936843F00303DC
:100518009360104B9B6803F00C030C2BF9D10D4B27
:100528009A6822F0F0029A609A6822F4E0629A606F
:100538009A6822F460529A60084804F06BF80F2019
:1005480000F0D0FC00B908BDFFF794FF002002407E
:1005580000700040001002408C80FFF90048E8015C
:1005680000B58BB000230793089309930193029376
:1005780003930493059306935348544A02604360D7
:100588008360C360012202610821416103764376DA
:100598000921C16180F820304FF4C06181624FF4B5
:1005A8008061C16280F83020436380F8383000F001
:1005B80087FD002871D10023079307A9424801F05D
:1005C800EFF900286BD1424B0193062302930023D5
:1005D80003937F2204920422059206930DEB0201F5
:1005E800394800F0C3FE00285BD13A4B01930C2335
:1005F800029301A9344800F0B9FE002853D1364BC4
:100608000193122302930123039301A92E4800F0BA
:10061800ADFE002849D1314B0193182302930023E2
:10062800039301A9284800F0A1FE00283FD12C4BD4
:1006380001934FF48073029301A9234800F096FEBA
:10064800002836D1274B01934FF48373029301A9F5
:100658001D4800F08BFE70BB234B01934FF486734B
:10066800029301A9184800F081FE30BB1F4B01938B
:100678004FF48973029301A9134800F077FEF0B98B
:100688001B4B01934FF48C73029301A90E4800F0A1
:100698006DFEB0B90BB05DF804FBFFF7EBFEFFF79A
:1006A800E9FEFFF7E7FEFFF7E5FEFFF7E3FEFFF7DA
:1006B800E1FEFFF7DFFEFFF7DDFEFFF7DBFEFFF7EA
:1006C800D9FEFFF7D7FE00BF2C030020000004501E
:1006D800000180210002B0250004002A0008302E05
:1006E80000106032002090360040C03A0080F03E92
:1006F8000000214300B587B00023009301930293C3
:100708000393049305934C484C4A0260436083600A
:10071800C360012202610821416103764276092201
:10072800C26180F820304FF4C06282624FF40062E8
:10073800C26280F83030436380F8383000F0C0FC83
:10074800002864D13E4B00930623019300230293B3
:100758007F2203920422049205936946364800F0EA
:1007680005FE002855D1374B00930C2301936946A9
:10077800314800F0FBFD00284DD1334B0093122384
:10078800019369462C4800F0F1FD002845D12F4B14
:100798000093182301936946274800F0E7FD0028D5
:1007A8003DD12B4B00934FF4807301936946224847
:1007B80000F0DCFD002834D1264B00934FF48373FE
:1007C800019369461C4800F0D1FD60BB224B0093A1
:1007D8004FF4867301936946174800F0C7FD20BBA4
:1007E8001E4B00934FF4897301936946124800F039
:1007F800BDFDE0B91A4B00934FF48C730193694621
:100808000D4800F0B3FDA0B907B05DF804FBFFF791
:1008180031FEFFF72FFEFFF72DFEFFF72BFEFFF748
:1008280029FEFFF727FEFFF725FEFFF723FEFFF758
:1008380021FEFFF71FFE00BFC80200200001045080
:10084800000180210002B0250004002A0008302E93
:1008580000106032002090360040C03A0080F03E20
:100868000000214308B51148114B0360114B436048
:10087800002383600122C260036143618361C36115
:10088800036201F0D2FB50B90021084801F031FCA5
:1008980038B90021054801F05AFC20B908BDFFF716
:1008A800E9FDFFF7E7FDFFF7E5FD00BFE4010020E4
:1008B80000580040BB7C700000B58FB000230A933D
:1008C8000B930C930D93079308930993009301934B
:1008D800029303930493059306932B482B4A0260D3
:1008E800436083604FF4C862C26003618023836100
:1008F80002F058FD002836D14FF480530A930AA914
:10090800214802F09FFE80BB1F4802F07BFD70BBB0
:1009180000230793099307A91B4802F0D7FF40BBA0
:1009280060230093002201920292049269461648BD
:1009380002F0DEFDF8B904226946134802F0D8FD3A
:10094800D8B908226946104802F0D2FDB8B90C227D
:1009580069460D4802F0CCFD98B90B4800F098FAAA
:100968000FB05DF804FBFFF785FDFFF783FDFFF788
:1009780081FDFFF77FFDFFF77DFDFFF77BFDFFF7AB
:1009880079FDFFF777FD00BF9801002000040040C3
:1009980010B59AB0002416941794189419941394C7
:1009A800149415940C940D940E940F94109411941F
:1009B80012942C22214601A805F083F94248434BA2
:1009C800036044608460C46004614461802383617F
:1009D80002F0E8FC002860D14FF48053169316A962
:1009E800394802F02FFE002859D1374802F00AFD95
:1009F800002856D1002313934FF400121492159334
:100A080013A9314802F062FF00284CD170230C93DF
:100A180000220D920E920F921092119212920CA92E
:100A2800294802F065FD00283FD104220CA9264878
:100A380002F05EFD00283AD108220CA9224802F0F3
:100A480057FD002835D10C220CA91F4802F050FD93
:100A5800002830D110220CA91B4802F049FD60BBC8
:100A680014220CA9184802F043FD40BB002301934F
:100A780002930393049305934FF40052069207934D
:100A880008934FF0007209920A930B9301A90E483C
:100A980002F068FFA8B91AB010BDFFF7EBFCFFF72A
:100AA800E9FCFFF7E7FCFFF7E5FCFFF7E3FCFFF7DE
:100AB800E1FCFFF7DFFCFFF7DDFCFFF7DBFCFFF7EE
:100AC800D9FCFFF7D7FC00BF4C01002000340140DF
:100AD80008B500F091FAFFF7CFFCFFF785FBFFF7A9
:100AE800DBFBFFF7B7FBFFF73BFD04F0EDFDFFF77E
:100AF800E3FEFFF7B7FEFFF74BFFFFF7FBFDFFF73E
:100B08005FFB184C204602F07DFC0121204602F0D4
:100B180029FE154B32225A6301224FF480511348A3
:100B280001F07EFA124C01224FF48061204601F058
:100B380077FA01224FF40071204601F071FA012280
:100B48004FF40061204601F06BFA01224FF4005186
:100B5800204601F065FA01220221204601F060FAE0
:100B6800FEE700BF4C0100200034014000040048AB
:100B78000010004882B00A4B1A6E42F001021A6651
:100B88001A6E02F001020092009A9A6D42F08052A9
:100B98009A659B6D03F080530193019B02B07047E7
:100BA8000010024070B58EB00446002309930A93E2
:100BB8000B930C930D930368704A934204D0704AC8
:100BC80093426FD00EB070BD02F17042A2F5F832B8
:100BD800D2F8883023F0405343F08053C2F888306D
:100BE800684A136801331360012B4DD0664BDA6CE9
:100BF80042F00102DA64DA6C02F001020292029A0F
:100C0800DA6C42F00402DA64DA6C02F0040203924D
:100C1800039ADA6C42F00202DA64DB6C03F0020336
:100C28000493049BF82309930B260A9609A94FF00D
:100C3800904001F0F5F8302309930A9600250B95AA
:100C480009A9524801F0ECF8032309930A960B9579
:100C580009A94F4801F0E4F84E484F4B036045603E
:100C68008560C560802303614FF4807343614FF44E
:100C7800806383612023C361056200F0AFFF70B910
:100C8800444BE3649C629DE73F4BDA6C42F40052AC
:100C9800DA64DB6C03F400530193019BA6E7FFF7CA
:100CA800E9FBEDE7384AD2F8883023F0405343F0A7
:100CB8008053C2F88830334A136801331360012B1C
:100CC8004DD0314BDA6C42F00102DA64DA6C02F092
:100CD80001020692069ADA6C42F00402DA64DA6CCF
:100CE80002F004020792079ADA6C42F00202DA6410
:100CF800DB6C03F002030893089BF82309930B2687
:100D08000A9609A94FF0904001F08AF83023099318
:100D18000A9600250B9509A91C4801F081F80323C0
:100D280009930A960B9509A9194801F079F81B4807
:100D38001B4B036045608560C560802303614FF4E9
:100D4800807343614FF4806383612023C36105622C
:100D580000F044FF70B9114BE3649C6232E70A4B20
:100D6800DA6C42F40052DA64DB6C03F40053059346
:100D7800059BA6E7FFF77EFBEDE700BF00000450E8
:100D880000010450900300200010024000080048B1
:100D980000040048800200200800024038020020B9
:100DA8001C00024010B588B00023039304930593F8
:100DB800069307930268174B9A4201D008B010BDFA
:100DC800154CD4F8883023F44043C4F88830E36CD9
:100DD80043F00203E364E36C03F002030193019B15
:100DE8004FF44063039312230493002305930323D2
:100DF80006930423079303A9084801F011F8A36D8B
:100E080043F48003A365A36D03F480030293029B5C
:100E1800D4E700BF0058004000100240000400481A
:100E280000B583B00368174A934205D0164A934227
:100E38000DD003B05DF804FB144B9A6D42F002022A
:100E48009A659B6D03F002030093009BF1E70F4B3B
:100E58001A6E42F400521A661B6E03F40053019393
:100E6800019B002211462C2000F08AFE2C2000F065
:100E780097FE002211462D2000F082FE2D2000F062
:100E88008FFED6E700040040003401400010024005
:100E980000B587B00023019302930393049305934D
:100EA80002680E4B9A4202D007B05DF804FB03F5C6
:100EB8000333DA6C42F00402DA64DB6C03F00403F7
:100EC8000093009B4FF470730193022302930593E0
:100ED80001A9034800F0A4FFE6E700BF00040040B2
:100EE8000008004830B589B004461E4B1A6E42F41B
:100EF80000621A661B6E03F400630193019B02A94A
:100F080003A801F061FF01F04DFF174AA2FB00237F
:100F18009B0C013B1548164A026040F2E732C2605A
:100F28004360002303618360836102F03BFA054656
:100F380010B1284609B030BD0C4802F0C7F8054684
:100F48000028F6D1192000F02BFE0F2C01D901251D
:100F5800EFE700222146192000F012FE054B1C6025
:100F6800E7E700BF0010024083DE1B439403002024
:100F7800002C014008000020FEE7FEE7FEE7FEE740
:100F8800FEE7704708B5024800F0E7FE08BD00BF5D
:100F98008002002008B5024800F0DFFE08BD00BF4F
:100FA8003802002008B5024802F0DBF808BD00BF8F
:100FB8009403002008B5024802F0D3F808BD00BF2A
:100FC8004C01002008B5024802F0CBF808BD00BF6C
:100FD8004C01002008B5024801F0AFFB08BD00BF76
:100FE800E41A0020034AD2F8883043F47003C2F8A8
:100FF8008830704700ED00E010B5032000F0AEFD2A
:101008000F20FFF76FFF10B10124204610BD0446E2
:10101800FFF7B0FDF9E70000034B1B78034A11689E
:101028000B441360704700BF04000020E003002059
:10103800014B1868704700BFE003002038B504462C
:10104800FFF7F6FF0546B4F1FF3F02D0044B1B78CB
:101058001C44FFF7EDFF401BA042FAD338BD00BF88
:101068000400002010B430300B0A9B0003F00C037E
:10107800C45801F01F014FF01F0C0CFA01FC24EAC0
:101088000C0CC2F384628A404CEA0202C2505DF83A
:10109800044B704710B414304B0E9B0003F004034C
:1010A800C458C1F304514FF0070C0CFA01FC24EAB0
:1010B8000C0C8A404CEA0202C2505DF8044B70479F
:1010C80030B583B000230193002800F0E580044682
:1010D800436D13B323689A6812F0005F05D09A68CD
:1010E80022F0204222F03F029A602268936813F0AF
:1010F800805F1FD1936823F0104323F03F0343F030
:1011080080539360654B1B689B09654AA2FB0323C8
:101118009B0901335B00019309E0FFF743FD0023BE
:10112800A36584F85030D5E7019B013B0193019BEF
:10113800002BF9D12268936813F0805F40F0838018
:10114800636D43F010036365A36D43F00103A3656A
:101158000120936813F0040300D00123616D11F09E
:10116800100F40F09280002B40F08F80636D23F4C5
:10117800817343F002036365936813F0010F1BD179
:10118800484B9A6812F0010200D00122464B9B6836
:1011980013F0010300D001231343444A926812F06C
:1011A800010200D00122134306D1636840498A68CE
:1011B80022F47C1213438B60627E636B43EA4233F2
:1011C800E2681343A268134394F8202043EA0243D9
:1011D800012A3AD0A26A22B102F47072E16A0A4383
:1011E80013432168CD68334A2A401A43CA602268EB
:1011F800936813F0080300D00123ABB9237E94F859
:101208003010490041EA8331D36823F4804323F046
:1012180002030B43D36094F83830012B1AD02268AC
:10122800136923F0010313612369012B24D0226879
:10123800136B23F00F031363636D23F0030343F071
:101248000103636526E0002083E7626A013A43EA06
:101258004243BFE721680B6923F4FF6323F00403CB
:10126800E26B256C2A43656C2A43A56C2A43134319
:1012780043F001030B61D7E721680B6B23F00F03E1
:10128800E269013A13430B63D6E7636D43F0100339
:101298006365012003B030BD0120FBE7000000209A
:1012A800632D3E0500000450000104500002045064
:1012B8000003045007C0F0FF7047704708B5806A04
:1012C800FFF7FBFF08BD704708B50346806A426D0B
:1012D80012F0500F30D1436D43F400734365036837
:1012E8001A6812F0080F14D0DA6812F4406F20D18F
:1012F800DB6813F4005F1CD1436D23F480734365EE
:10130800436D13F4805F14D1436D43F001034365CB
:101318000FE0DB6813F0020F0BD1436D23F48073E9
:101328004365436D13F4805F03D1436D43F00103BC
:101338004365FFF7C1FF08BD426D12F0100F04D1DD
:10134800C26C526B18469047F5E7FFF7BCFFF2E70F
:1013580008B5806A436D43F040034365836D43F0ED
:1013680004038365FFF7AFFF08BD0000F0B583B045
:101378000023019390F85030012B00F00C820446B2
:101388000D46012380F850300068836813F0040F7D
:1013980009D0636D43F0200363650120002384F8BE
:1013A800503003B0F0BD4968052907D80239032930
:1013B8004ED8DFE801F0024F484A0C212A68FFF7AF
:1013C80051FE2068836813F0040300D0012382686B
:1013D80012F0080200D001220BB9002A3CD0226882
:1013E800936813F0010F17D12B68E868D2F8B01092
:1013F800C3F3120621EA060100F0180CA84820FAE7
:101408000CF00340C3F312030B43C2F8B030EA6890
:10141800A44B9A4200F0A5802B68A34A134200F01F
:10142800B681A24A926802F0E070A1498B4200F0AE
:101438005881A0498B4200F07F819F498B4200F080
:1014480093810020AAE71821B8E74FF48071B5E727
:101458000621B3E71221B1E7AA682968FFF71AFE47
:101468006A692168CB68C3F3C1035B009A402869A5
:1014780004280ED02E68603151F820708F4B3B4005
:1014880006F0F8463243134343F0004341F8203056
:10149800A5E70B6E0A6EC2F384622B68C3F31200D1
:1014A80080BBC3F384639A4234D021684B6E4A6E82
:1014B800C2F384622B68C3F3120080BBC3F3846356
:1014C8009A4234D021688B6E8A6EC2F384622B688C
:1014D800C3F3120080BBC3F384639A4234D02168FB
:1014E800CB6ECA6EC2F384622B68C3F3120080BB52
:1014F800C3F384639A427FF472AFCB6E23F0004348
:10150800CB666CE793FAA3F313B1B3FA83F3CAE794
:101518002023C8E70B6E23F000430B66C5E793FA58
:10152800A3F313B1B3FA83F3CAE72023C8E74B6EDA
:1015380023F000434B66C5E793FAA3F313B1B3FA5C
:1015480083F3CAE72023C8E78B6E23F000438B663A
:10155800C5E793FAA3F313B1B3FA83F3CAE72023D9
:10156800C8E720682B68C3F312063EBB9A0E013207
:1015780002F01F02092A8CBF00220122002A55D03E
:101588005EBB990E0131890601F0F8418EBB4FEA26
:10159800936C0CF1010C0CF01F0C012202FA0CF2F6
:1015A8001143AEBB9B0E013303F01F0303EB430350
:1015B8001B051943AA68FFF76DFD2DE793FAA3F2FF
:1015C8004AB1B2FA82F2013202F01F02092A8CBF34
:1015D80000220122D2E72022F5E793FAA3F131B1E4
:1015E800B1FA81F10131890601F0F841CEE72021F5
:1015F800F8E793FAA3F24AB1B2FA82F2013202F0A2
:101608001F024FF0010C0CFA02F2C9E72022F5E79D
:1016180093FAA3F343B1B3FA83F3013303F01F033F
:1016280003EB43031B05C4E72023F6E7E6B9990E4D
:101638000131890601F0F84116BB4FEA936C0CF1B1
:10164800010C0CF01F0C012202FA0CF21143BEBB74
:101658009B0E013303F01F0303EB43031E3B1B05E3
:1016680043F000731943A5E793FAA3F131B1B1FA36
:1016780081F10131890601F0F841DDE72021F8E721
:1016880093FAA3F24AB1B2FA82F2013202F01F02CF
:101698004FF0010C0CFA02F2D8E72022F5E700BF60
:1016A800FFFF070000007F4000000880000304508F
:1016B800000052C7000084CB0100008000F0FF0347
:1016C80093FAA3F35BB1B3FA83F3013303F01F0377
:1016D80003EB43031E3B1B0543F00073C2E72023C3
:1016E800F3E712F4000F7FF4A4AE23682B4A934269
:1016F80005D002F50072934201D000204EE640F476
:101708000000274A936823F0E07318439060254B44
:101718001B689B09244AA2FB03239B09013303EBA3
:1017280043039B00019302E0019B013B0193019B52
:10173800002BF9D1002031E612F0807F7FF47DAED6
:101748002368164A934205D002F50072934201D0ED
:10175800002023E640F0807311498A6822F0E07285
:1017680013438B60002019E612F4800F11D1226810
:101778000A4B9A4201D0002010E640F48003084941
:101788008A6822F0E07213438B60002006E600208E
:1017980004E6002002E6022003E600BF0000045031
:1017A8000003045000000020632D3E0530B583B0CF
:1017B8000023019303689A6812F0010F58D1044678
:1017C80099682D4A114219D19A6822F0004222F0F4
:1017D8003F0242F001029A60284B9B6813F4000F05
:1017E8001CD0274B1B689B09264AA2FB03239B0995
:1017F800013303EB43039B0001930CE0436D43F07B
:1018080010034365836D43F001038365012030E0D5
:10181800019B013B0193019B002BF9D1FFF708FCC9
:10182800054623681A6812F0010F1FD19A6812F052
:10183800010F07D19A6822F0004222F03F0242F0DD
:1018480001029A60FFF7F4FB431B022BE9D92368D6
:101858001B6813F0010FE4D1636D43F01003636557
:10186800A36D43F00103A365012002E0002000E01E
:10187800002003B030BD00BF3F00008000030450CB
:1018880000000020632D3E052DE9F04104463E4B43
:101898009E680068856815F0040F6FD10F46904662
:1018A80006F01F0694F85030012B6AD0012384F803
:1018B8005030364B98420CD0092E05D840F22123DF
:1018C800F34013F0010F04D1002384F850300120B5
:1018D80055E02046FFF76AFF00284BD1636D23F4DB
:1018E800706323F0010343F4807363652368284A17
:1018F800934239D01A46934200D01EB9636D23F43F
:1019080080136365636D13F4805F30D0A36D23F09B
:101918000603A365E36C1F4ADA62E36C1E4A1A6386
:10192800E36C1E4A5A6323681C221A60002384F859
:1019380050302268536843F0100353602268D3681C
:1019480043F00103D360216843463A464031E06CD6
:1019580000F0C8F92268936823F0004323F03F039E
:1019680043F0040393600AE0A2F58072C3E7002302
:10197800A365CFE7002384F8503000E00220BDE8DB
:10198800F0810220FBE700BF00030450000204506E
:1019980000010450D1120008C512000859130008AC
:1019A80090F85020012A00F08D8010B49BB00346B7
:1019B800012280F850200022169217920068424AAD
:1019C80090423FD000220192019A002A3ED09268AC
:1019D80012F0040200D00122806810F0040F61D1D7
:1019E800002A5FD10A68002A39D0384CA26822F44C
:1019F8006042486893F830C040EA4C300243A26025
:101A0800314A906810F0010000D00120304A9268F5
:101A180012F0010200D0012202432E48806810F023
:101A2800010000D00120024348D1284CA26822F4CA
:101A3800716222F00F020868896801430A43A260B4
:101A4800002034E002F580720192BDE75A6D42F041
:101A580020025A65002283F8502001202AE01B4901
:101A68008A6822F460428A60174A916811F001017D
:101A780000D00121164A926812F0010200D001221A
:101A88000A431449896811F0010100D001210A4371
:101A980016D10E498A6822F4716222F00F028A6018
:101AA800002004E05A6D42F020025A65012000220D
:101AB80083F850201BB05DF8044B70470020F6E710
:101AC8000020F4E70220704700000450000304508F
:101AD8000001045000020450002807DB00F01F0238
:101AE800400901239340024A42F82030704700BF62
:101AF80000E100E0002808DB0901C9B200F16040FC
:101B080000F5614080F80013704700F00F000901EC
:101B1800C9B2014B1954704714ED00E000B500F04C
:101B28000700C0F1070CBCF1040F28BF4FF0040CEC
:101B3800031D062B0FD9C31E4FF0FF3E0EFA0CF003
:101B480021EA000199400EFA03FE22EA0E0241EA58
:101B580002005DF804FB0023EEE70000074AD368A3
:101B680023F4E0631B041B0C000200F4E060034351
:101B780043F0BF6343F40033D360704700ED00E0E7
:101B880010B50446054BD868C0F30220FFF7C6FF1E
:101B980001462046FFF7AEFF10BD00BF00ED00E094
:101BA80008B5FFF799FF08BD30B4446C04F01C0C6D
:101BB800012404FA0CF4056C6C60046863608368A3
:101BC800102B05D0036899600368DA6030BC704751
:101BD80003689A600368D960F8E70000002873D0AA
:101BE80010B403460068394A90424AD8384A024439
:101BF8003849A1FB0212120992005A64364A1A6443
:101C0800022283F82520016821F4FF4121F07001A8
:101C18009A68DC6822431C6922435C6922439C69F8
:101C28002243DC6922431C6A22430A4302609A6801
:101C3800B2F5804F1BD0196C274A91422CD0264A06
:101C4800D2F8A814586C00F01C0C0F2000FA0CF005
:101C580021EA0001C2F8A814D2F8A81458685C6CEC
:101C680004F01C0C00FA0CF00143C2F8A814002080
:101C7800D863012283F8252083F824005DF8044BFB
:101C88007047164A02441349A1FB02121209920036
:101C98005A64134A1A64B3E7D2F8A810586C00F0D3
:101CA8001C0C0F2000FA0CF021EA0001C2F8A81061
:101CB800D2F8A81058685C6C04F01C0C00FA0CF000
:101CC8000143C2F8A810D2E7012070470704024078
:101CD800F8FFFDBFCDCCCCCC00000240F8FBFDBF27
:101CE8000004024038B5044690F82400012832D098
:101CF800012084F8240094F82500C0B2012804D0FB
:101D0800002384F82430022038BD022084F82500FE
:101D18000020E0632568286820F00100286020463C
:101D2800FFF742FF236B5BB12268136843F00E0391
:101D380013602268136843F0010313600020E3E78F
:101D48002268136823F0040313602268136843F0C1
:101D58000A031360EDE70220D6E738B5036C19686B
:101D680004682568436C03F01C0304229A400A4265
:101D780015D015F0040F12D0236813F0200F03D1EB
:101D8800236823F004032360436C03F01C02016CF6
:101D9800042393404B60036B03B1984738BD02227C
:101DA8009A400A421CD015F0020F19D0236813F08C
:101DB800200F06D1236823F00A032360012380F84B
:101DC8002530436C03F01C02016C022393404B60E6
:101DD800002380F82430C36A002BDFD09847DDE762
:101DE800082202FA03F30B42D8D015F0080FD5D019
:101DF800236823F00E032360436C03F01C03016C7B
:101E0800012202FA03F34B60C26380F82520002305
:101E180080F82430436B002BC0D09847BEE7000001
:101E2800F0B583B000236BE085685E000324B440FE
:101E380025EA0405CC68B4402C438460456825EA4B
:101E48000C054C68C4F300149C402C43446069E0C2
:101E5800C56A25EA0C05C4F3C0049C402C43C4623F
:101E680066E0DD08083550F8254003F0070C4FEA16
:101E78008C0C4FF00F0E0EFA0CFE24EA0E0E0C69B5
:101E880004FA0CF444EA0E0440F8254067E00624FE
:101E980000E0002404FA0EF42C430CF1020C5C4D13
:101EA80045F82C405B4CA568D44325EA02064F68E8
:101EB80017F4801F01D042EA0506564DAE60ED6862
:101EC80004EA05064F6817F4001F01D042EA050628
:101ED800504DEE606D6804EA05064F6817F4003F40
:101EE80001D042EA05064B4D6E602D682C404E68C5
:101EF80016F4803F01D042EA0504464A14600133D3
:101F08000A6832FA03F400F081804FF0010C0CFAF1
:101F180003FC1CEA0202F2D04C6804F00304013C02
:101F2800012C81D94C6804F0030EBEF1030F8FD049
:101F38004C6804F00304032C0CD0C4685D004FF017
:101F4800030C0CFA05FC24EA0C0C8C68AC4044EA3F
:101F58000C04C4604C6804F00304022C81D00468AB
:101F68004FEA430E4FF0030C0CFA0EFC24EA0C0C5B
:101F78004C6804F0030404FA0EF444EA0C04046008
:101F88004C6814F4403FBAD0234C256E45F0010547
:101F98002566246E04F001040194019C4FEA930C19
:101FA8000CF102051A4C54F8255003F0030E4FEAC1
:101FB8008E0E0F2404FA0EF425EA0405B0F1904FB2
:101FC8003FF467AF154CA04216D004F58064A042D8
:101FD80014D004F58064A04212D004F58064A042B5
:101FE80010D004F58064A0420ED004F58064A042AD
:101FF8003FF44DAF07244DE701244BE7022449E79E
:10200800032447E7042445E7052443E703B0F0BD6C
:102018000000014000040140001002400004004894
:102028000AB1816170478162704700285FD010B59E
:10203800044690F84130002B48D0242384F84130DE
:102048002268136823F0010313606368226823F091
:10205800706313612268936823F400439360E36814
:10206800012B38D0A368226843F404439360E368E3
:10207800022B36D02268536823F400635360226829
:10208800536843F0007343F4004353602268D368F5
:1020980023F40043D360236962691343A16922686A
:1020A80043EA0123D360E369216A22680B43136082
:1020B8002268136843F00103136000206064202342
:1020C80084F84130206384F8420010BD80F8403025
:1020D800FEF768FEB1E7A368226843F40043936003
:1020E800C5E72268536843F400635360C7E70120DB
:1020F8007047034690F84120D2B2202A23D190F8A5
:102108004020012A21D0012280F84020242280F892
:1021180041200068026822F0010202601868026823
:1021280022F480520260186802681143016019683D
:102138000A6842F001020A60202283F84120002048
:1021480083F840007047022070470220704703461A
:1021580090F84120D2B2202A21D190F84020012ABB
:102168001FD0012280F84020242280F841200068F6
:10217800026822F0010202601868026822F47062A4
:1021880042EA0122026019680A6842F001020A6004
:10219800202283F84120002083F840007047022065
:1021A8007047022070472DE9F843076801EBC10327
:1021B80000EB83031A6DDB6C9A4254D880460C46B8
:1021C8009B1A01EBC10200EB8202526C9A4200D3C7
:1021D8001A4602F103094FEA990913E006F10309C7
:1021E8004FEA990904EBC40508EB8505B3B2E2B2DE
:1021F800A96C384601F0CFFFAB6C3344AB642B6D50
:1022080033442B6507EB441303F510639B699BB2BA
:102218004B4512D304EBC40308EB83031A6DDB6C44
:102228009A420AD24BB19B1A04EBC40208EB820211
:10223800566C9E42D2D31E46D0E704EBC40308EB8B
:102248008308D8F84C20D8F850309A420ED804F0B9
:102258000F040122A240D7F8343823EA0203C7F852
:102268003438002000E00120BDE8F8830020FBE7B7
:1022780070B58AB0002800F097800546046890F889
:10228800BD343BB3032385F8BD34E36B13F4807F7F
:1022980001D10023EB60286801F046FD2C4654F874
:1022A800106BEC460FCCACE80F000FCCACE80F007D
:1022B80094E803008CE803002B1D0ECB304601F098
:1022C8009FFC044658B1022385F8BD3401242046FA
:1022D8000AB070BD80F8BC3403F0ECFAD2E70021F4
:1022E800286802F034F9234616E003EBC30205EB35
:1022F8008202012182F83D1082F83C30A2F8563063
:10230800002182F840105164916403EBC30205EB8D
:102318008202D1640133DBB269688B42E5D316E0EF
:1023280004EBC40305EB8303002283F87D2283F8C2
:102338007C4283F88022C3F88422C3F8882204EB05
:10234800C40305EB8303C3F88C220134E4B2A14231
:10235800E6D82C4654F8106BEC460FCCACE80F00CE
:102368000FCCACE80F0094E803008CE803002B1DA9
:102378000ECB304601F034FD044660B9002385F8E1
:102388003830012385F8BD346B6A012B08D02868E2
:1023980002F09CF89BE7022385F8BD34012496E7F8
:1023A800284600F0DDFCF2E7012490E7026890F887
:1023B800BC34012B16D010B50446012380F8BC3478
:1023C800836A012B09D0206801F0A8FC206802F07C
:1023D8006FF8002084F8BC0410BD936B43F480337D
:1023E8009363F0E70220704738B503681C6C03EB71
:1023F800411303F530639D680B4A94420FD115F4DD
:10240800004F03D04FF400429A600BE015F0200F04
:1024180001D020229A60C9B203F0ACFA02E0C9B236
:1024280003F0A8FA002038BD0A31544F10B50368EC
:102438001C6C03EB4113D3F8081B074A944207D9D5
:1024480003F5306311F4004F02D04FF400429A6054
:1024580003F088FA002010BD0A30544F90F8BC34BD
:10246800012B0DD010B50446012380F8BC3480F848
:102478003810006802F00CF8002084F8BC0410BD85
:102488000220704738B505468C4611F0800F29D1D7
:1024980001F00F0E0EEBCE04A40004F51E740444E4
:1024A800211D0EEBCE0E00EB8E0E00208EF87D0265
:1024B8000CF00F0C81F800C08A600B714A780AB1E1
:1024C800A1F81AC0022B1DD095F8BC34012B1CD0E2
:1024D800012385F8BC34286801F040FD002085F808
:1024E800BC0438BD01F00F0000EBC0018900383191
:1024F8002944043100EBC00005EB8000012480F87A
:102508003D40D5E700234B71DEE70220E9E710B52F
:1025180004460A4611F0800F20D101F00F0000EBAD
:10252800C0039B0003F51E732344191D00EBC00074
:1025380004EB8000002380F87D3202F00F020A705D
:1025480094F8BC34012B19D0012384F8BC342068DA
:1025580001F052FD002084F8BC0410BD01F00F000A
:1025680000EBC0039B0038332344191D00EBC00067
:1025780004EB8000012380F83D30DEE70220ECE721
:1025880010B501F00F0C0CEBCC01890001F51E71A0
:1025980001440CEBCC0E00EB8E0ECEF88822CEF860
:1025A8008C320024CEF890428EF87D428EF87CC2A0
:1025B8000431006801F004FE204610BD01F00F014F
:1025C80001EBC10100EB8100D0F89002704710B513
:1025D80001F00F0C0CEBCC018900383101440CEBF5
:1025E800CC0E00EB8E0ECEF84820CEF84C300024EE
:1025F800CEF8504001238EF83D308EF83CC00431AF
:10260800006801F0DDFD204610BD38B501F00F056A
:102618004268954238D804460B4611F0800F1FD106
:1026280001EBC101890001F51E710144043103EB7E
:10263800C30300EB8303002283F87D2201238B7000
:102648000D7094F8BC34012B20D0012384F8BC34DD
:10265800206801F0C2FE8DB1002084F8BC0438BDAA
:1026680005EBC501890038310144043105EBC50388
:1026780000EB8303012283F83D20DFE704F2C44125
:10268800206801F0A5FFE7E70120E8E70220E6E778
:1026980001F00F034268934231D810B5044611F097
:1026A800800F1ED103EBC301890001F51E7101449F
:1026B800043103EBC30200EB8202002082F87D02A2
:1026C80000228A700B7094F8BC34012B19D00123B6
:1026D80084F8BC34206801F0ADFE002084F8BC0406
:1026E80010BD03EBC301890038310144043103EB09
:1026F800C30200EB8202012082F83D00E0E70120DE
:1027080070470220ECE708B511F0800F0CD101F0FA
:102718000F0101EBC101890001F51E71014404316B
:10272800006801F0D9FC08BD01F00F0101EBC101FF
:102738008900383101440431F2E72DE9F04F83B0C4
:1027480004460568284601F0FEFE10B103B0BDE856
:10275800F08F0646206801F0C7FE0028F6D005F580
:102768000067BB68C3F30D23C4F8FC34206801F08C
:10277800BBFE10F0020F04D02268536903F0020375
:102788005361206801F0B0FE10F0100F14D02268D9
:10279800936923F010039361D5F8208008F00F099E
:1027A800C8F34343022B69D0062B00F08D802268C2
:1027B800936943F010039361206801F095FE10F4CB
:1027C800002F40F09380206801F08EFE10F4802FD7
:1027D80040F0FC80206801F087FE0028C0F2658187
:1027E800206801F081FE10F4006F09D0BB6813F077
:1027F800010F40F072812268536903F4006353614A
:10280800206801F071FE10F0006F15D0226853693E
:1028180003F00063536194F8F434002B40F06181B5
:10282800012184F8F41423685B6DC3F38303C4F8AF
:10283800F834204603F0E4F9206801F055FE10F45E
:10284800805F40F05281206801F04EFE10F4005F76
:1028580040F09E81206801F047FE10F0080F40F01C
:10286800AF81206801F040FE10F0800F00F0C281B7
:10287800AB6923F08003AB610126ABE147F6F07347
:1028880018EA030F93D04FEA181A4FEAC9030193C5
:1028980009EBC90B04EB8B0BC8F30A12DBF888129F
:1028A800284601F077FDDBF88832CAF30A0A534458
:1028B800CBF88832DBF89032019A4A4404EB820262
:1028C8005344C2F8903272E7082204F2C441284601
:1028D80001F060FD09EBC90304EB8303D3F89022F0
:1028E800C8F30A184244C3F8902260E7206801F050
:1028F800FFFD8046B14635E005EB49130122C3F8D8
:10290800082B49462046FFF76FFD3CE005EB4913CD
:102918000822C3F8082B49462046FFF787FD35E013
:1029280009EBC90304EB830393F87F32012B41D0F1
:1029380005EB49130222C3F8082B1AF0200F04D024
:1029480005EB49132022C3F8082B1AF4005F05D0C1
:1029580005EB49134FF40052C3F8082B09F101099C
:102968004FEA5808B8F1000F3FF42DAF18F0010FE7
:10297800F4D05FFA89FB5946206801F0C9FD824608
:1029880010F0010FB8D11AF0080FBFD11AF0100FCC
:1029980004D005EB49131022C3F8082B1AF0020FD4
:1029A800CBD06B6913F0800FBAD07B6843F4806397
:1029B8007B60B5E709EBC90304EB8303002283F8C6
:1029C8007F225946204603F037F8B1E7206801F026
:1029D80097FD8046B1461BE009F00F02012101FA7C
:1029E80002F27B6B23EA02037B6305EB4913C3F80E
:1029F80008195946204602F0C9FF1AE01AF0020FDA
:102A080030D11AF0800F4BD109F101094FEA58086B
:102A1800B8F1000F3FF4DEAE18F0010FF4D05FFA02
:102A280089FB5946206801F07CFD824610F0010FB1
:102A3800D2D11AF0080F04D005EB49130822C3F8C5
:102A480008291AF0100F04D005EB49131022C3F817
:102A580008291AF0400FD1D005EB49134022C3F8DA
:102A68000829CBE74946284601F064F909EBC90370
:102A780004EB830393F83F30012B05D005EB491392
:102A88000222C3F80829BCE709EBC90304EB830356
:102A9800002283F83F205946204602F0D3FFEDE795
:102AA80049462046FFF77FFBAEE77B6823F001032A
:102AB8007B6094F8F434012B08D0204602F0A2FF82
:102AC8002268536903F00043536189E6002184F8C2
:102AD800F414204603F094F8F2E7204602F07AFF57
:102AE80089E6204602F076FFA6E67B6823F001031C
:102AF8007B601021206801F01DF91AE005EB4613F0
:102B08004FF67F31C3F80819D3F8002922F40012D0
:102B1800C3F80029C3F8081BD3F8002B22F40012CD
:102B2800C3F8002BD3F8002B42F00062C3F8002B47
:102B380001366368B342E1D8FB6943F00113FB61D6
:102B4800236BD3B1D7F8843043F00B03C7F8843034
:102B58007B6C43F00B037B64D5F8003823F4FE63E9
:102B6800C5F8003804F2C441206801F031FD22683C
:102B7800536903F48053536165E67B6943F400535A
:102B880043F02B037B613B6943F00B033B61E3E7B5
:102B9800206801F00DFD206801F0D2F92061266857
:102BA80000F0FAF80146227C304601F045F820464C
:102BB80002F0FDFE2268536903F40053536149E6AD
:102BC800204602F0EEFE2268536903F008035361C1
:102BD80047E601366368B3420CD906EBC60304EB3B
:102BE800830393F87F32012BF3D1F1B22046FFF72C
:102BF8008AFDEEE7206801F077FC10F4801F27D1EA
:102C0800206801F071FC10F4001F5BD0012328E05C
:102C180001366368B3421DD905EB4613D3F8002982
:102C280006EBC60304EB830393F84030012BEFD186
:102C3800002AEDDA06EBC60304EB8303012283F8CE
:102C48003F2066F07F01C9B22046FFF75CFDDFE751
:102C58000126DEE72268536903F480135361CFE746
:102C6800013362689A4228D905EB4312D2F8001B57
:102C780003EBC30204EB820292F88022012AEFD10F
:102C88000029EDDA01F48031D4F8FC2402F00102C5
:102C98009142E5D103EBC30204EB8202012182F8E1
:102CA8007F12AA6942F08002AA616A6912F0800F55
:102CB800D6D17B6843F400737B602268536903F4C0
:102CC80000135361206801F00FFC10F0804F10D101
:102CD800206801F009FC10F0040F3FF437AD2368B9
:102CE8005D6815F0040F0DD1226853682B435360BB
:102CF8002CE5204602F0ACFE2268536903F08043BD
:102D08005361E5E7204602F0A9FEEDE710B4046838
:102D1800606A31B940EA0240A06200205DF8044BC5
:102D280070478C46A36A00EB1340002308E003F1C8
:102D3800400104EB8101496800EB11400133DBB22B
:102D48000CF1FF318B42F2D340EA02400CF13F0113
:102D580004EB81046060E0E7036859620020704773
:102D6800034602680121C0F80015002083F8F40426
:102D7800936943F000639361536D43F0805343F0CC
:102D88000303536570470000024A536843F48063A5
:102D98005360704700700040014B1868704700BFCF
:102DA8000000002008B5FFF7F7FF054B9B68C3F349
:102DB800C223044AD35C03F01F03D84008BD00BFF8
:102DC80000100240405D00080F2303600B4B9A6817
:102DD80002F0030242609A6802F0F00282609A6888
:102DE80002F4E062C2609B68DB0803F4E0630361FD
:102DF800034B1B6803F007030B6070470010024089
:102E08000020024030B4026A036A23F0010303621F
:102E18004468836923F4803323F073030D681D43EA
:102E280022F002028B6813431C4A90420FD002F52D
:102E3800006290420BD002F54062904207D002F542
:102E48008062904203D002F58062904205D123F05F
:102E58000803CA681A4322F00403104A90420FD0AC
:102E680002F5006290420BD002F54062904207D012
:102E780002F58062904203D002F58062904205D14B
:102E880024F440744A6922438C6914434460856180
:102E98004A684263036230BC704700BF002C01409F
:102EA80030B4036A026A22F4807202624468C2691A
:102EB80022F4803222F073020D68154323F4007364
:102EC8008A6843EA0223184A904203D002F5006256
:102ED800904206D123F40063CA6843EA022323F42C
:102EE8008063114A90420FD002F5006290420BD0E5
:102EF80002F54062904207D002F58062904203D00A
:102F080002F58062904207D124F440524C6942EAAB
:102F180004128C6942EA04144460C5614A68C263B9
:102F2800036230BC704700BF002C014030B4036A14
:102F3800026A22F4805202624468C26922F08072F6
:102F480022F4E6420D6842EA052223F400538D6814
:102F580043EA05330F4DA8420FD005F50065A84296
:102F68000BD005F54065A84207D005F58065A84255
:102F780003D005F58065A84204D124F480444D6946
:102F880044EA85144460C2614A680264036230BC42
:102F9800704700BF002C014030B4036A026A22F473
:102FA800803202624468426D22F4803222F070025C
:102FB8000D68154323F400338A6843EA02430F4A35
:102FC80090420FD002F5006290420BD002F54062A9
:102FD800904207D002F58062904203D002F58062E9
:102FE800904204D124F480344A6944EA02244460BB
:102FF80045654A688265036230BC7047002C014011
:1030080030B4036A026A22F4801202624468426D94
:1030180022F0807222F4E0420D6842EA052223F48D
:1030280000138D6843EA05530F4DA8420FD005F5EC
:103038000065A8420BD005F54065A84207D005F504
:103048008065A84203D005F58065A84204D124F420
:1030580080244D6944EA8524446042654A68C26513
:10306800036230BC704700BF002C014010B4036AF3
:10307800046A24F001040462846924F0F00C4CEA28
:10308800021223F00A030B43826103625DF8044BCA
:10309800704710B4036A046A24F010040462846957
:1030A80024F4704C4CEA023223F0A00343EA0113E3
:1030B800826103625DF8044B7047836823F07003F4
:1030C8000B4343F0070383607047000090F83D30DE
:1030D800DBB2012B36D1022380F83D300268D36879
:1030E80043F00103D3600368194A93421CD0B3F13B
:1030F800804F19D0A2F59432934215D002F5806220
:10310800934211D002F5806293420DD002F59432B9
:10311800934209D002F54062934205D01A6842F002
:1031280001021A600020704799680A4A0A40062A74
:103138000AD0B2F5803F09D01A6842F001021A603D
:10314800002070470120704700207047002070471A
:10315800002C014007000100704770477047704716
:10316800704770B504460368DE681D6915F0020FE4
:1031780010D016F0020F0DD06FF002021A61012371
:10318800037703689B6913F0030F64D0FFF7E6FF2A
:103198000023237715F0040F12D016F0040F0FD078
:1031A80023686FF004021A610223237723689B695E
:1031B80013F4407F55D02046FFF7D0FF0023237734
:1031C80015F0080F12D016F0080F0FD023686FF013
:1031D80008021A61042323772368DB6913F0030FBD
:1031E80046D02046FFF7BAFF0023237715F0100FCB
:1031F80012D016F0100F0FD023686FF010021A616A
:10320800082323772368DB6913F4407F37D02046EF
:10321800FFF7A4FF0023237715F0010F02D016F063
:10322800010F33D115F0800F02D016F0800F35D181
:1032380015F4807F02D016F0800F37D115F0400FBB
:1032480002D016F0400F39D115F0200F02D016F039
:10325800200F3BD170BDFFF780FF2046FFF77FFFAF
:1032680096E72046FFF779FF2046FFF778FFA5E7A6
:103278002046FFF772FF2046FFF771FFB4E72046AC
:10328800FFF76BFF2046FFF76AFFC3E723686FF07D
:1032980001021A612046FDF7E1F8C3E723686FF0E1
:1032A80080021A61204600F0A6FBC1E723686FF48C
:1032B80080721A61204600F09FFBBFE723686FF019
:1032C80040021A612046FFF74BFFBDE723686FF005
:1032D80020021A61204600F08DFBBBE70368304AE4
:1032E800904212D0B0F1804F0FD0A2F594329042A4
:1032F8000BD002F58062904207D002F580629042BE
:1033080003D002F59432904203D123F070034A6847
:103318001343234A90421ED0B0F1804F1BD0A2F530
:103328009432904217D002F58062904213D002F591
:10333800806290420FD002F5943290420BD002F591
:103348004062904207D002F58062904203D002F5B5
:103358008062904203D123F44073CA68134323F078
:1033680080034A69134303608B68C3620B688362F6
:103378000B4B98420FD003F5006398420BD003F52E
:103388004063984207D003F58063984203D003F561
:103398008063984201D10B6903630123436170473D
:1033A800002C014060B310B5044690F83D3013B3CB
:1033B800022384F83D30214651F8040BFFF78EFFB5
:1033C800012384F8483084F83E3084F83F3084F88C
:1033D800403084F8413084F8423084F8433084F82F
:1033E800443084F8453084F8463084F8473084F80F
:1033F8003D30002010BD80F83C30FDF711FDD7E7C7
:103408000120704760B310B5044690F83D3013B3FF
:10341800022384F83D30214651F8040BFFF75EFF84
:10342800012384F8483084F83E3084F83F3084F82B
:10343800403084F8413084F8423084F8433084F8CE
:10344800443084F8453084F8463084F8473084F8AE
:103458003D30002010BD80F83C30FFF77DFED7E7F7
:103468000120704730B4036A026A22F01002026237
:103478004468826922F0807222F4E6420D6842EACA
:10348800052223F020038D6843EA0513174DA8424F
:1034980003D005F50065A84206D123F08003CD6866
:1034A80043EA051323F04003104DA8420FD005F559
:1034B8000065A8420BD005F54065A84207D005F580
:1034C8008065A84203D005F58065A84207D124F499
:1034D800406C4C694CEA840C8C694CEA8404446066
:1034E80082614A688263036230BC7047002C0140E5
:1034F80038B590F83C30012B00F0958004460D4615
:10350800012380F83C30142A00F28880DFE802F0BA
:103518000B8686861F8686863486868648868686B5
:103528005D86868671000068FFF76CFC22689369E7
:1035380043F0080393612268936923F004039361BD
:103548002268936929690B439361002067E000684A
:10355800FFF788FF2268936943F400639361226848
:10356800936923F48063936122689369296943EA24
:1035780001239361002052E00068FFF791FC226864
:10358800D36943F00803D3612268D36923F00403A5
:10359800D3612268D36929690B43D36100203EE0D7
:1035A8000068FFF7C3FC2268D36943F40063D36162
:1035B8002268D36923F48063D3612268D3692969B7
:1035C80043EA0123D361002029E00068FFF7E4FC07
:1035D8002268536D43F0080353652268536D23F046
:1035E800040353652268536D29690B435365002012
:1035F80015E00068FFF704FD2268536D43F400638B
:1036080053652268536D23F4806353652268536DB4
:10361800296943EA01235365002000E001200023C3
:1036280084F83C3038BD0220FCE710B4846824F4E8
:103638007F4C42EA03220A4342EA0C0282605DF8A8
:10364800044B704790F83C30012B76D010B50446F7
:10365800012380F83C30022380F83D3002689068EE
:10366800374B034093600B68602B4CD029D8402B14
:1036780054D00CD9502B22D1CA6849682068FFF76A
:10368800F5FC50212068FFF718FD002005E0202BED
:103698000DD009D9302B0AD00120012384F83D3000
:1036A800002384F83C3010BD0BB1102B05D119460E
:1036B8002068FFF702FD0020EFE70120EDE7012079
:1036C800EBE7B3F5805F34D0B3F5005F0CD1CB687E
:1036D8004A6889682068FFF7A8FF2268936843F45E
:1036E800804393600020D8E7702B24D1CB684A68C8
:1036F80089682068FFF799FF2268936843F0770389
:1037080093600020C9E7CA6849682068FFF7C1FCD0
:1037180060212068FFF7D1FC0020BEE7CA6849682D
:103728002068FFF7A3FC40212068FFF7C6FC0020B3
:10373800B3E70020B1E70120AFE70220704700BFE0
:103748008800FEFF01F01F014FF0010C0CFA01FC8C
:10375800036A23EA0C030362036A8A401343036281
:103768007047000010B5044610293CD8DFE801F086
:10377800093B3B3B1F3B3B3B263B3B3B2D3B3B3B02
:10378800340090F83E30DBB2013B18BF0123002B18
:1037980040F0928010297DD8DFE801F02C7C7C7CF9
:1037A8006C7C7C7C707C7C7C747C7C7C780090F865
:1037B8003F30DBB2013B18BF0123E8E790F8403007
:1037C800DBB2013B18BF0123E1E790F84130DBB2DF
:1037D800013B18BF0123DAE790F84230DBB2013B26
:1037E80018BF0123D3E790F84330DBB2013B18BF81
:1037F8000123CCE7022384F83E3001222068FFF73A
:10380800A1FF23682F4A93420FD002F5006293422A
:103818000BD002F54062934207D002F580629342D2
:1038280003D002F58062934203D15A6C42F40042FD
:103838005A642368234A934230D0B3F1804F2DD085
:10384800A2F59432934229D002F58062934225D0A2
:1038580002F58062934221D002F5943293421DD042
:1038680002F54062934219D01A6842F001021A60C8
:10387800002022E0022384F83F30BEE7022384F8C8
:103888004030BAE7022384F84130B6E7022384F8CF
:103898004230B2E7022384F84330AEE799680A4A17
:1038A8000A40062A0AD0B2F5803F09D01A6842F0C9
:1038B80001021A60002000E0012010BD0020FCE792
:1038C8000020FAE7002C01400700010090F83C2096
:1038D800012A42D030B40346012280F83C2002225B
:1038E80080F83D200068426884681D4DA84203D0D6
:1038F80005F50065A84203D122F470024D682A43F9
:1039080022F070020D682A4342601A681448824205
:1039180016D0B2F1804F13D0A0F5943082420FD068
:1039280000F5806082420BD000F58060824207D0AB
:1039380000F59430824203D000F54060824204D101
:1039480024F08004896821439160012283F83D2096
:10395800002083F83C0030BC70470220704700BF4D
:10396800002C014090F83C30012B3ED010B40246A8
:10397800012380F83C30CB6823F440738868034304
:1039880023F480634868034323F40063086803430F
:1039980023F480530869034323F40053486903431D
:1039A80023F48043886A034323F47023886943EA35
:1039B800004310680E4CA04203D004F50064A042F6
:1039C8000CD123F470034C6A43EA045323F0807348
:1039D800CC69234323F00073096A0B434364002036
:1039E80082F83C005DF8044B70470220704700BF26
:1039F800002C014070477047704710B4046891FA72
:103A0800A1F3A3B1B3FA83F35B004FF0030C0CFAF4
:103A180003F324EA030391FAA1F151B1B1FA81F158
:103A280049008A40134303605DF8044B7047202324
:103A3800EAE72021F4E710B4846891FAA1F3A3B16E
:103A4800B3FA83F35B004FF0030C0CFA03F324EA98
:103A5800030391FAA1F151B1B1FA81F149008A4009
:103A6800134383605DF8044B70472023EAE7202165
:103A7800F4E710B4C46891FAA1F3A3B1B3FA83F3DD
:103A88005B004FF0030C0CFA03F324EA030391FAEA
:103A9800A1F151B1B1FA81F149008A401343C360E1
:103AA8005DF8044B70472023EAE72021F4E710B4BF
:103AB800046A91FAA1F3A3B1B3FA83F39B004FF020
:103AC8000F0C0CFA03F324EA030391FAA1F151B1A4
:103AD800B1FA81F189008A40134303625DF8044B0F
:103AE80070472023EAE72021F4E710B4446A090A62
:103AF80091FAA1F3A3B1B3FA83F39B004FF00F0C33
:103B08000CFA03F324EA030491FAA1F151B1B1FAD2
:103B180081F189008A40144344625DF8044B704780
:103B28002023EAE72021F4E7F8B507460E460D689A
:103B380095FAA5F515B1B5FA85F51BE0202519E02C
:103B4800B26821463846FFF776FF3268F1687B682D
:103B580023EA020301FB02F213437B6016E0726959
:103B680021463846FFF7C1FF726821463846FFF7FD
:103B780044FF0135346834FA05F217D00122AA400F
:103B88001440F6D07368013B012BD9D9326921461C
:103B98003846FFF76EFF7368022BE5D1FF2CDED89D
:103BA800726921463846FFF782FFDDE70020F8BD3D
:103BB80082B000230193019B01330193019A0F4BBB
:103BC8009A4215D80369002BF5DA0023019303699B
:103BD80043F001030361019B01330193019A074BF1
:103BE8009A4208D8036913F0010FF4D1002000E0CD
:103BF800032002B070470320FBE700BF400D03001D
:103C080084B010B504460DF10C0C8CE80E00C368A6
:103C180043F04003C360FFF7CBFF0C9B3BB9A36B9A
:103C280043F48033A363BDE8104004B07047A36B2E
:103C380023F48033A363F6E7022A0AD00922C36873
:103C480023F47053C360C36843EA8223C36000202F
:103C58007047234B0B44234A93422FD9224B0B44E2
:103C6800224A93422CD9A1F57403A3F51053204A94
:103C7800934227D9A1F18373A3F5E7431D4A9342E1
:103C880022D31D4B0B441D4A93421FD91C4B0B4496
:103C98001C4A93421CD31C4B0B441C4A934219D315
:103CA800A1F1B773A3F55853194A934214D3194B8A
:103CB8000B44194A934211D20722C0E70F22BEE7EC
:103CC8000E22BCE70D22BAE70C22B8E70B22B6E7B2
:103CD8000A22B4E70922B2E70822B0E70622AEE7D3
:103CE800405327FFFF340C00401E1BFF3F420F00CC
:103CF8007F4F120020D6130060B6E5FE5FE3160082
:103D080000D3CEFE40771B00C05BB3FEC0912100FC
:103D180020753800E05459FEE09C4100836843F068
:103D28000103836000207047836823F001038360E8
:103D38000020704782B000230193019B0133019357
:103D4800019A0F4B9A4215D80369002BF5DA002324
:103D58000193890141F020010161019B0133019325
:103D6800019A074B9A4208D8036913F0200FF4D13F
:103D7800002000E0032002B070470320FBE700BFEB
:103D8800400D030082B000230193019B013301938E
:103D9800019A0E4B9A4213D80369002BF5DA0023D7
:103DA800019310230361019B01330193019A074B8F
:103DB8009A4208D8036913F0100FF4D1002000E0EC
:103DC800032002B070470320FBE700BF400D03004B
:103DD800D0F800381943C0F80018002070470000D8
:103DE80084B0F8B5044607A880E80E00002306E072
:103DF80003F1400204EB82020021516001330E2BD3
:103E0800F6D9119E76BBD4F8043843F00203C4F8FF
:103E18000438A36B23F40013A363236843F040031F
:103E28002360236843F0800323600023C4F8003E26
:103E380003212046FFF7CCFF10212046FFF77AFF29
:103E4800054600B101252046FFF79CFF00B101257A
:103E580004F5006C0023CCF81030CCF81430CCF802
:103E68001C300FE0A36B43F40013A363DDE7C3B971
:103E78004FF00060C2F8000900220A614FF67F3255
:103E88008A6001330799994210D904EB431202F56D
:103E98001061D2F800090028E9DB0020C2F8000907
:103EA800EAE74FF09040C2F80009E5E700230AE08E
:103EB800BBB14FF09047C2F8007B002202614FF679
:103EC8007F3282600133994210D904EB431202F524
:103ED8003060D2F8007B002FEADB0027C2F8007BB5
:103EE800EBE74FF00067C2F8007BE6E7DCF810303C
:103EF80023F48073CCF810300023A3616FF0804363
:103F08006361A36943F01003A361A2690B4B1343D8
:103F1800A3610D9B1BB1A36943F00803A361012EA4
:103F280004D02846BDE8F84004B07047A36943F0C0
:103F3800804343F00403A361F3E700BF00383C80EB
:103F4800D0F8083803F00603022B05D0062B01D061
:103F58000F207047022070470220704710B591F873
:103F680000C04B78012B23D000F5006ED0F81C3828
:103F78000CF00F040122A24043EA0243C0F81C38A7
:103F880000EB4C10D0F8003B13F4004F0ED1D0F8E2
:103F9800003B8A68C2F30A02097942EA8142134364
:103FA80043F0805343F40043C0F8003B002010BDA9
:103FB800D0F81C280CF00F0E03FA0EF39BB2134333
:103FC800C0F81C3800EB4C10D0F8003913F4004F3F
:103FD800ECD1D0F800398A68C2F30A02097942EABA
:103FE800814242EA8C52134343F0805343F4004326
:103FF800C0F80039DAE7000030B40B784A78012AB3
:1040080026D000EB4313D3F8002B002A52DBD0F85C
:104018003C480A7802F00F024FF0010C0CFA02F249
:1040280024EA0242C0F83C28D0F81C28097801F09C
:104038000F010CFA01FC22EA0C42C0F81C28D3F844
:10404800001B234A0A40C3F8002B002030BC7047ED
:1040580000EB4313D3F80029002A1EDBD0F83C58A4
:104068000A7802F00F02012404FA02F292B225EA59
:104078000202C0F83C28D0F81C28097801F00F018A
:104088008C40A4B222EA0402C0F81C28D3F8001914
:10409800104A0A40C3F80029D7E7D3F8002942F0AC
:1040A8000062C3F80029D3F8002942F08042C3F81F
:1040B8000029D3E7D3F8002B42F00062C3F8002BA5
:1040C800D3F8002B42F08042C3F8002B9FE700BFD3
:1040D8000078F3EF007833EC10B483B00246002385
:1040E8000193487801280BD00B7802EB4313D3F8DF
:1040F800000B00282DDB002003B05DF8044B70474F
:104108000B7802EB4313D3F80049002C01DB0020A5
:10411800F2E7D3F8004944F00064C3F800490B788B
:1041280002EB4313D3F8004944F08044C3F8004934
:10413800019B01330193019C42F210739C42DBD82E
:104148000B7802EB4313D3F80039002BF0DB002087
:10415800D2E7D3F8000B40F00060C3F8000B0B78EF
:1041680002EB4313D3F8000B40F08040C3F8000B78
:10417800019B01330193019842F21073984208D8C9
:104188000B7802EB4313D3F8003B002BF0DB002045
:10419800B2E70120B0E710B5DC1CA4084FF0000E10
:1041A80009E000EB023C0CF5805C51F8043BCCF8CC
:1041B80000300EF1010EA645F3D3002010BD00001B
:1041C80070B50A784B78012B2BD000EB421C0CF50C
:1041D80030631C69E40CE4041C611C6924F0FF547E
:1041E80024F4C0141C61002A40F09C800A690AB1BA
:1041F8008A680A618A680A621C69C2F31202224349
:104208001A611A6942F400221A610B79012B00F035
:10421800AC80DCF8003B43F00443CCF8003B0020C2
:1042280070BD0B6973BB00EB4213D3F8104924F03F
:10423800FF5424F4C014C3F81049D3F8104944F4C7
:104248000024C3F81049D3F81049E40CE404C3F877
:10425800104900EB4212D2F8003943F00443C2F887
:1042680000390B79012B45D00B69002BD7D0D0F83A
:104278003438097801F00F0101228A401343C0F84D
:104288003438CCE700EB421303F510631C69E40CE7
:10429800E4041C611C6924F0FF5424F4C0141C615C
:1042A800DAB90D698C68A54200D90C611C6944F41F
:1042B80000241C611C690D69C5F3120C44EA0C0446
:1042C8001C610C79012CC4D11C6924F0C0441C6108
:1042D8001C6944F000541C61BBE71D690C698E68B9
:1042E8003444013CB4FBF6F4294E06EAC4442C439A
:1042F8001C61DFE7D0F8083813F4807F0BD1D2F8BF
:10430800003943F00053C2F800390B8A0A78C968AB
:10431800FFF741FF83E7D2F8003943F08053C2F832
:104328000039F2E70A6952B91A698C68C4F31204B1
:1043380022431A611A6942F400221A6165E78C68FF
:104348002244013AB2FBF4F292B202FB04F40C628A
:104358001C690F4D05EAC24222431A611A690C6AA8
:10436800C4F3120422431A614FE7D0F8083813F453
:10437800807F06D1DCF8003B43F00053CCF8003BCB
:1043880047E7DCF8003B43F08053CCF8003B40E7BC
:104398000000F81F10B5844608464FEA920E02F056
:1043A8000302002305E00CF58051096840F8041B5E
:1043B80001337345F7D37AB10CF5805CDCF8004023
:1043C8000021CBB2DB0024FA03F300F8013B0131F2
:1043D800013A92B2002AF4D110BD0B784A78012A2A
:1043E80014D000EB4310D0F8002B002A06DB2BB1C9
:1043F800D0F8003B23F08043C0F8003BD0F8003BE6
:1044080043F40013C0F8003B0020704700EB431052
:10441800D0F80029002A06DB2BB1D0F8003923F0A8
:104428008043C0F80039D0F8003943F40013C0F8CD
:104438000039E9E70B784A78012A0ED000EB4310DF
:10444800D0F8003B23F40013C0F8003B0B79023B83
:10445800DBB2012B15D90020704700EB4310D0F8D0
:10446800003923F40013C0F800390B79023BDBB2A2
:10447800012BF0D8D0F8003943F08053C0F8003948
:10448800E9E7D0F8003B43F08053C0F8003BE2E78F
:10449800D0F8003823F4FE63C0F80038D0F80038AC
:1044A800090101F4FE610B43C0F800380020704791
:1044B800D0F8003E23F00303C0F8003ED0F80438DB
:1044C80023F00203C0F8043800207047D0F8003EFB
:1044D80023F00303C0F8003ED0F8043843F0020389
:1044E800C0F804380020704742698069104070475E
:1044F800D0F8183800F50060C0691840000C704703
:10450800D0F8183800F50060C069184080B27047CC
:1045180000EB4111D1F8082B00F50060406910400C
:104528007047D0F81028D0F8343801F00F0C23FA6F
:104538000CF3DB01DBB2134300EB411000F5106014
:10454800806818407047406900F00100704738B52E
:104558000546C36823F0C043C360012913D019BBC3
:10456800C36843F08043C36000240120FCF766FD64
:1045780001342846FFF7E7FF08B1312CF5D9322C72
:1045880014D0002038BDC36843F00053C360002432
:104598000120FCF753FD01342846FFF7D4FF01281A
:1045A800EDD0312CF4D9EAE70120EBE70120E9E767
:1045B800D0F8003923F4FF6323F00703C0F800396B
:1045C800D0F8043843F48073C0F8043800207047EA
:1045D800026C0F4B9A4203D9D0F8003B002B14DB36
:1045E8000023C0F8103BD0F8103B43F40023C0F878
:1045F800103BD0F8103B43F01803C0F8103BD0F83C
:10460800103B43F0C043C0F8103B0020704700BF88
:104618000A30544F014B1860704700BF000000205B
:1046280010B5D0F8D43203F1B00250F822408CB162
:1046380000EB820043687BB194F80002FF280DD09C
:104648009B6894F8012221469847FF2384F800329A
:10465800002010BD0320FCE70020FAE70020F8E75F
:104668000A2303800048704788000020F8B50646F2
:104678000F4F8221384600F024FC054601213846B8
:1046880000F01FFC04468121384600F01AFC0DB1E9
:104698001022AA711CB1402222710022627118B145
:1046A8004022027100224271432333800048F8BD42
:1046B8000C000020F8B506460F4F8221384600F05E
:1046C80000FC05460121384600F0FBFB0446812129
:1046D800384600F0F6FB0DB11022AA711CB1402239
:1046E80022710022627118B14022027100224271C7
:1046F800432333800048F8BD0C000020F8B5064677
:104708000F4F8221384600F0DCFB05460121384670
:1047180000F0D7FB04468121384600F0D2FB0DB1EA
:104728001022AA711CB1002222710222627118B1F2
:104738000022027102224271432333800048F8BDEF
:104748000C00002038B5D0F8D432B03350F82350DC
:1047580095B1044601F04EFAC5F80C02D4F8D432EB
:10476800B03304EB83046368DB6805F50371D5F89F
:1047780004029847002038BD0320FCE738B5D0F87C
:10478800C852D0F8D432B03350F8234084B301F083
:104798000F0303EB830200EB820292694AB103EB39
:1047A800C30C05EB8C056D6CB2FBF5FC05FB1C22FC
:1047B80092B10023C4F81432D0F8D432B03300EBED
:1047C800830043681B69ABB10A4604F50471D4F849
:1047D80008029847002038BD03EB830300EB8303EE
:1047E80000249C612346224601F0E6F92046F2E7C0
:1047F8000320F0E70020EEE7F0B583B0D0F8D4321C
:1048080003F1B00250F8227000228DF80720ADF8AD
:104818000420002F7BD004460D46097811F060066D
:1048280034D0202E6CD1EA882AB311F0800F07D13A
:104838006B7887F80032EA883F2A13D8D2B212E0A0
:10484800B03300EB83035B689B6839466878984708
:10485800EA88072A28BF07223946204600F0F2FED8
:10486800002651E0402287F801223946204600F010
:10487800FEFE002648E0B03300EB83035B689B68CC
:10488800002229466878984700263DE06F780B2F6C
:1048980031D8DFE807F0063930303030303030308A
:1048A800162690F89C32DBB2032B04D0294600F080
:1048B80045FB032628E0022201A900F0C3FE3E467C
:1048C80022E090F89C32DBB2032B04D0294600F09A
:1048D80035FB032618E001220DF1070100F0B2FEB6
:1048E80012E090F89C32DBB2032B0DD0294600F081
:1048F80025FB032608E0294600F020FB032603E0F9
:10490800294600F01BFB0326304603B0F0BD032602
:10491800FAE738B50446812101F0FBF80025258720
:104928000121204601F0F5F8A4F8785182212046AB
:1049380001F0EFF8A4F84C50A4F84E50D4F8D43253
:1049480003F1B00254F822209AB1B03304EB830388
:104958005B685B689847D4F8D432B03354F82300C6
:1049680001F084F9D4F8D432B03344F82350C4F8B1
:10497800BC52002038BD70B504464FF4077001F0F2
:1049880071F9002849D005464FF40772002101F05B
:1049980098F9D4F8D432B03344F82350C4F8BC5250
:1049A800237C002B41D14FF4007302228121204641
:1049B80001F09DF8012626874FF400730222314644
:1049C800204601F094F8A4F878611023A4F84E303A
:1049D800082303228221204601F089F80123A4F844
:1049E8004C300026C5F80462D4F8D432B03304EB56
:1049F80083035B681B689847C5F81462C5F818629A
:104A0800D5F8042262B3257C1DBB4FF40073012145
:104A1800204601F0E0F8284670BDD4F8D432B0330F
:104A2800002244F823200225F5E7402302228121B1
:104A3800204601F05CF801262687402302223146F1
:104A4800204601F054F8A4F878611023A4F84E30F9
:104A5800BEE740230121204601F0BDF80025DAE732
:104A68000225D8E739B1D0F8D432B03300EB83004F
:104A780041600020704703207047D0F8D432B0332B
:104A880050F823302BB1C3F80812C3F810220020C5
:104A9800704703207047D0F8D432B03350F8233031
:104AA8001BB1C3F80412002070470320704710B5EB
:104AB800D0F8D432B03350F8232092B1047C44B9F2
:104AC8004FF40073D2F80422012101F084F8204643
:104AD80010BD4023D2F80422012101F07CF8002403
:104AE800F5E70324F3E798B108B503460020C3F8B7
:104AF800B802C3F8C402C3F8D00209B1C3F8B412AB
:104B0800012183F89C121A70184600F0ADFF08BD09
:104B18000320704710B582B00023ADF8063089B184
:104B28000446C0F8B812CB6A23B10DF106009847C5
:104B3800C4F8D002D4F8D8320133C4F8D8320020EF
:104B480002B010BD0320FBE708B500F0C1FF08BDA7
:104B580008B5D0F8B83213B11B68984708BD0020D3
:104B6800FCE708B5D0F8B8325B68984700B908BDCB
:104B78000320FCE738B5044600F2AA25284600F0D1
:104B8800C9F90123C4F89432B4F8B032C4F89832A1
:104B980094F8AA1201F01F03012B0DD0022B10D09C
:104BA8002BB101F08001204600F0C2FF03E0294646
:104BB800204600F095FB38BD2946204600F0CBFB87
:104BC800F9E72946204600F008FCF4E7F8B5044662
:104BD800012380F89C320023C0F894324360C0F867
:104BE800A43280F8A032D0F8B832DBB15B68DBB110
:104BF800002198470746C8B940230022114620469D
:104C080000F075FF0126A4F864614025C4F86051DE
:104C18002B4600228021204600F069FFA6842562E9
:104C28003846F8BD0027E7E70027E5E70327E3E76D
:104C380001740020704790F89C32DBB2042B04D03A
:104C480090F89C32DBB280F89D32042380F89C32C5
:104C58000020704790F89C32DBB2042B01D0002072
:104C6800704790F89D32DBB280F89C32F7E708B5C0
:104C780090F89C32DBB2032B01D0002008BDD0F89D
:104C8800B832002BF9D0DB69002BF6D09847F4E74F
:104C980008B5D0F8D432AE3350F823205AB190F882
:104CA8009C32DBB2032B01D0002008BD136A23B16C
:104CB80098470020F9E70320F7E70020F5E708B553
:104CC800D0F8D432AE3350F823205AB190F89C3241
:104CD800DBB2032B01D0002008BD536A23B19847EB
:104CE8000020F9E70320F7E70020F5E700207047E8
:104CF80008B5012380F89C32D0F8B83223B15B683C
:104D08000179984710B908BD0020FCE70320FAE7AD
:104D1800002070470020704738B504460D4600292A
:104D280043D11346D0F89422032A01D0084638BD4F
:104D3800D0F85C11D0F86021914212D890F8AA32CC
:104D480003F01F03012B17D0022B1CD0284694F820
:104D58009C32DBB2032B1BD0204600F09FFC284678
:104D6800E5E7891AC0F85C118A4228BF0A46194645
:104D780000F08CFC2846DAE790F8AE12FFF7C8FF7F
:104D88000028E9D1E3E790F8AE12FFF7C3FFF7E791
:104D980000F1AE0354F823301A69002ADCD0C4F8B5
:104DA800D4021B6920469847D6E701F07F01FFF738
:104DB800B1FF90B994F89C32DBB2032BB7D100F164
:104DC800AE0354F823309A69002AB0D0C4F8D4024C
:104DD8009B69294620469847A9E70020A7E738B5E8
:104DE80004460D4600294BD11346D0F89422022AD6
:104DF80007D094F8A00218B1002384F8A0322846FE
:104E080038BDC269016A8A420ED88A4218D094F81D
:104E18009C32DBB2032B27D08021204600F088FE8D
:104E2800204600F046FCE4E7521AC261194600F039
:104E380016FC00231A461946204600F0CCFED8E797
:104E480083699942E3D8D0F898229342DFD20022AE
:104E5800114600F004FC0021C4F898120B460A46DB
:104E6800204600F0B8FEC4E7D4F8B832DA68002A61
:104E7800D2D00022C4F8D422DB6820469847CBE77A
:104E880041F08001FFF746FF90B994F89C32DBB2FD
:104E9800032BB5D100F1AE0354F823305A69002A28
:104EA800AED0C4F8D4025B69294620469847A7E7E4
:104EB8000020A5E70B88027813440B800378184478
:104EC8007047428803789A4218D930B583B00446AF
:104ED8000D46ADF806306388BDF806209A420AD21E
:104EE8000DF10601FFF7E6FF4378052BF3D1837830
:104EF800AB42F0D100E0002003B030BD0020704785
:104F08000346002002E00130C0B201331A78002ABB
:104F1800F9D170470B7803704B7843708B78CA7857
:104F280043EA022343800B794A7943EA02238380C8
:104F38008B79CA7943EA0223C380704710B50446C7
:104F4800802100F0F5FD0021204600F0F1FD10BDA4
:104F580030B583B004460D460023ADF806304A88C4
:104F6800130A013B0E2B00F2BC80DFE803F015307A
:104F780044BABA9EABBABABABABABABA0800D0F842
:104F8800B432DB6923B10DF10601007C98470AE0D1
:104F98002946FFF7D3FF18E0D0F8B4321B680DF1AB
:104FA8000601007C9847EA88002A00F0A380BDF833
:104FB8000630002B00F099809A4228BF1A46ADF8B7
:104FC80006200146204600F03DFB03B030BD037CBF
:104FD80043B9D0F8B8329B6A0DF10600984702230E
:104FE8004370E0E7D0F8B832DB6A0DF10600984765
:104FF80002234370D7E7D2B2052A52D8DFE802F07D
:1050080003101D2A3744D0F8B4325B6823B10DF180
:105018000601007C9847C6E72946FFF78FFFD4E7CB
:10502800D0F8B4329B6823B10DF10601007C984793
:10503800B9E72946FFF782FFC7E7D0F8B432DB6843
:1050480023B10DF10601007C9847ACE72946FFF72C
:1050580075FFBAE7D0F8B4321B6923B10DF1060128
:10506800007C98479FE72946FFF768FFADE7D0F82F
:10507800B4325B6923B10DF10601007C984792E7D1
:105088002946FFF75BFFA0E7D0F8B4329B6923B14C
:105098000DF10601007C984785E72946FFF74EFF8A
:1050A80093E72946FFF74AFF8FE7037C33B9D0F827
:1050B800B8325B6B0DF10600984774E72946FFF795
:1050C8003DFF82E7037C43B9D0F8B8321B6B0DF182
:1050D800060098470723437065E72946FFF72EFF28
:1050E80073E72946FFF72AFF6FE729462046FFF7AF
:1050F80025FF6AE7204600F0D1FA66E738B504468E
:105108008B88FBB9CB88EBB94B887F2B1AD803F077
:105118007F0590F89C32DBB2032B0CD080F89E52AE
:10512800294600F03AFD204600F0B8FA35B10223CE
:1051380084F89C3209E0FFF701FF06E0012384F8B8
:105148009C3202E02046FFF7F9FE38BD70B50446F0
:105158000E468D782F4B1D70012D10D890F89C327B
:10516800DBB2022B0FD0032B26D0FFF7E7FE294B2B
:1051780019782046FFF7F5FC0325284670BDFFF790
:10518800DDFE0325F9E7A5B145602946FFF7E0FCF8
:10519800054638B131462046FFF7D0FE022384F891
:1051A8009C32EAE7204600F079FA032384F89C321F
:1051B800E3E700F073FAE0E7CDB141688D4225D00E
:1051C800C9B2FFF7CEFC134B197861602046FFF790
:1051D800BFFC0546B0B131462046FFF7AFFE217946
:1051E8002046FFF7BEFC022384F89C32C5E7022361
:1051F80080F89C3245602946FFF7B3FC204600F052
:105208004DFABAE7204600F049FAB6E700F046FA48
:105218000025B2E7E403002008B5CB88012B0BD1A9
:1052280090F89C32DBB2022B09D9032B09D1012259
:10523800011D00F007FA01E0FFF780FE08BD5BB230
:1052480013B9FFF77BFEF9E70146002341F8083F51
:10525800012200F0F7F9F1E708B590F89C32013B1C
:10526800022B12D8CB88022B0CD10123C360D0F8B3
:10527800A4320BB10323C360022200F10C0100F039
:10528800E1F908BDFFF75AFEFBE7FFF757FEF8E71D
:1052980008B54B88012B04D0022B07D0FFF74EFE30
:1052A80008BDC0F8A43200F0F9F9F9E78B881B0AA9
:1052B80080F8A03200F0F2F9F2E708B590F89C32D5
:1052C800013B022B09D84B88012B00D008BD0023D5
:1052D800C0F8A43200F0E2F9F8E7FFF72FFEF5E78F
:1052E80038B50C7804F06004202C06D0402C04D08B
:1052F8006CB1FFF723FE002407E0D0F8D432AE33B8
:1053080050F823309B6898470446204638BD4D78AE
:10531800092D1DD8DFE805F012191C161C08051CFC
:105328000F0BFFF715FEF0E7FFF7E8FEEDE7FFF7D5
:105338000DFF0446E9E7FFF76FFFE6E7FFF78CFF8D
:105348002C46E2E7FFF7A4FFDFE7FFF7B6FFDCE74D
:10535800FFF7F4FDD9E770B505460C460B7803F066
:105368006003202B07D0402B05D023B1FFF7E6FDC3
:105378000026304670BD95F89C32013B022B26D89A
:105388002179012905D921462846FFF7D7FD0026AE
:10539800EFE72846FFF7BCFC68B900F1AE0255F804
:1053A8002220916889B1C5F8D4029368214628461D
:1053B8009847064600E00326E388002BD9D1002E43
:1053C800D7D1284600F06AF9D3E70326F4E7214647
:1053D8002846FFF7B3FD0026CBE72DE9F041064646
:1053E8000D468B88DFB20C7804F06004202C08D0BE
:1053F800402C06D0DCB1FFF7A1FD00242046BDE813
:10540800F08139463046FFF785FC0446002840F015
:10541800F880C6F8D40200F1AE0356F823309B6832
:10542800002BEBD02946304698470446E6E791F82A
:105438000180B8F1010F31D0B8F1030F05D0B8F1F0
:10544800000F67D0FFF77AFDD8E790F89C32DBB2FF
:10545800022B04D0032B12D0FFF770FDCEE70FB15B
:10546800802F04D129463046FFF768FDC6E7394644
:1054780000F05EFB8021304600F05AFBBEE74B8807
:1054880023B91FB1802F01D0CB881BB1304600F063
:1054980005F9B3E7394600F04BFBF7E790F89C3283
:1054A800DBB2022B04D0032B12D0FFF747FDA5E790
:1054B8000FB1802F04D129463046FFF73FFD9DE705
:1054C800394600F035FB8021304600F031FB95E786
:1054D8004B88002B92D117F07F0F17D1304600F080
:1054E800DDF839463046FFF715FC002886D1C6F8A6
:1054F800D40200F1AE0256F822209268002A00F089
:105508008280294630469047044677E7394600F0BE
:105518001EFBE3E790F89C22D2B2022A05D0032AA8
:1055280027D0FFF70BFD444668E70FB1802F13D152
:1055380013F0800F14D107F07F0707EB8707B90036
:1055480001F5A8713144043100230B600222304672
:1055580000F078F8444651E7FFF7F0FC44464DE781
:1055680007F07F0707EB8707B90010313144043192
:10557800EAE75BB2002B1FDB07F00F0202EB8202A7
:1055880000EB8202B2F864211AB3002B25DB07F086
:105598007F0303EB83039C0004F5A87434440434AC
:1055A8000FB1802F22D100232360022221463046EA
:1055B80000F048F8444621E707F00F0202EB8202A8
:1055C80000EB8202928C002ADFD1FFF7B7FC444639
:1055D80014E7FFF7B3FC444610E707F07F0303EB3B
:1055E80083039C00103434440434D9E739463046E8
:1055F80000F0BCFA10B101232360D6E70023236032
:10560800D3E70024FAE60446F8E6D0B170B50D46B3
:1056180016460446FFF774FC431C5B009BB23380BC
:105628002B7003236B70022307E0EA5401345A1CE1
:10563800D2B20021A9540233DBB22278002AF4D175
:1056480070BD704708B513460222C0F894228361E2
:10565800C3610A46002100F0AFFA002008BD08B572
:1056680013460A46002100F0A7FA002008BD08B535
:1056780013460322C0F89422C0F85831C0F85C31B0
:105688000A46002100F0A7FA002008BD08B5134615
:105698000A46002100F09FFA002008BD08B5042240
:1056A800C0F8942200231A46194600F085FA002013
:1056B80008BD08B50522C0F8942200231A461946E9
:1056C80000F089FA002008BD08B500220F491048EB
:1056D800FFF709FA70B90F490D48FFF71BFA60B9CF
:1056E8000D490B48FFF7BEF950B90948FFF72CFAE6
:1056F80048B908BDFAF7BEFEEDE7FAF7BBFEEFE7DB
:10570800FAF7B8FEF1E7FAF7B5FEF2E7E80000208D
:10571800E80300205000002094000020002070477B
:10572800002070470020704710B50146044C204601
:10573800FFF7B1F92046FFF7BAF9002010BD00BF06
:10574800E803002010B5064C002206492046FFF762
:1057580094F905492046FFF79EF9002010BD00BFC7
:10576800E8030020C4060020C40E002012230B808A
:1057780000487047D400002004230B80004870477D
:10578800C40000200C230B8000487047C80000208C
:10579800002393421ED200B510E00CF1370C01F83B
:1057A80013C000014FEA430C0CF1010C4FF0000E3E
:1057B80001F80CE00133DBB2934209D24FEA107CC6
:1057C800B0F1204FE9D20CF1300C01F813C0E8E732
:1057D8005DF804FB7047000038B50B4BD3F8900513
:1057E800D3F89445D3F89835C01800D138BD074D83
:1057F80008222946FFF7CCFF042205F110012046B4
:10580800FFF7C6FFF2E700BF0070FF1FAA000020E5
:1058180008B51A230B80FFF7DFFF014808BD00BF5A
:10582800A800002008B50A4628B905490548FFF729
:10583800ECFE034808BD02490248FFF7E6FEF8E718
:10584800C4160020485D000810B50A46034C2146DE
:105858000348FFF7DAFE204610BD00BFC41600203B
:10586800605D000808B50A4628B905490548FFF7EC
:10587800CCFE034808BD02490248FFF7C6FEF8E718
:10588800C4160020745D000808B50A4628B9054901
:105898000548FFF7BAFE034808BD02490248FFF76A
:1058A800B4FEF8E7C4160020805D000808B5FAF7D2
:1058B800E3FD08BD10B588B0002303930493059356
:1058C800069307930368B3F1A04F01D008B010BD49
:1058D800234CD4F8883023F0406343F08063C4F845
:1058E8008830E36C43F00103E364E36C03F00103E5
:1058F8000093009B4FF4C0530393022304930323A4
:1059080006930A23079303A94FF09040FCF788FAFF
:10591800E36C43F48053E364E36C03F48053019332
:10592800019BA36D13F0805F17D1A36D43F08053E3
:10593800A365A36D03F080530293029BFDF724FA3D
:10594800A36D23F08053A365002211464320FCF782
:1059580017F94320FCF724F9B8E7FDF715FAF3E740
:105968000010024008B500F2C441D0F80805FFF75E
:1059780001F908BD08B501EBC10300EB8303D3F8B7
:105988008822D0F80805FFF7C7F908BD08B501EB6C
:10599800C10300EB83039A6CD0F80805FFF71FFAE0
:1059A80008BD08B5D0F80805FFF761F908BD10B5BE
:1059B80004460369022B09D10121D4F80805FFF731
:1059C80037F9D4F80805FFF701F910BDFAF752FDC9
:1059D800F2E7000010B504460268D2F8003E43F032
:1059E8000103C2F8003ED0F80805FFF724F9236A3E
:1059F80023B1034A136943F00603136110BD00BFC6
:105A080000ED00E010B504460268D2F8003E23F02D
:105A18000103C2F8003E036A23B9D4F80805FFF76A
:105A280019F910BD034A136923F006031361FFF740
:105A38003DFFF2E700ED00E008B5D0F80805FFF7F4
:105A48003EF908BD08B5D0F80805FFF721F908BDEB
:105A580008B5D0F80805FFF749F908BD08B5D0F82A
:105A68000805FFF745F908BD02780AB1002070471C
:105A780010B503461548C0F80835C3F8C8024FF0FA
:105A8800A04303600623436002230361836100236C
:105A9800C3610362436283620363C362FCF7E8FB8A
:105AA80080B90A4C80212046FDF756F94022002192
:105AB8002046FDF72BF9802201212046FDF726F923
:105AC800002010BDFAF7D6FCEBE700BFE41A00206F
